S00C000070726F6D2E737265635A
S315C000000093000000130100009301000013020000DA
S315C000001093020000130300009303000013040000C2
S315C000002093040000130500009305000013060000AA
S315C00000309306000013070000930700001308000092
S315C0000040930800001309000093090000130A00007A
S315C0000050930A0000130B0000930B0000130C000062
S315C0000060930C0000130D0000930D0000130E00004A
S315C0000070930E0000130F0000930F0000370101001C
S315C00000809702000093828202739052309302F01C52
S315C00000907390127C732540F1930510006370B50010
S315C00000A01304000067000400730010006FF0DFFF48
S705C00000003A
