S00B000072616D2E73726563D9
S315000000009751000093810170970200009382820D40
S3150000001073905230732440F163100402970200007B
S315000000209382420D73905230EF0080419702000098
S3150000003093824223E78002001313240097020000F4
S3150000004093824204B302530003A302000F00F00F91
S31500000050E31C03FE138E012493134400B30E7E00AB
S31500000060138F8E0083BF0E0003310F00970200002E
S315000000709382420873905230732540F1E7800F0057
S31500000080730010007300100073001000730010005E
S31500000090730010007300100073001000730010004E
S315000000A0730010007300100073001000730010003E
S315000000B0730010007300100073001000730010002E
S315000000C013132500970300009383C3FBB302730049
S315000000D00F00500F2FA002081305000067800000D4
S315000000E0730010001300000013000000130000004E
S315000000F073202034130101EF23301100233831001F
S31500000100233C41002330510223346102233871021B
S31500000110233C8102233091042334A1042338B10403
S31500000120233CC1042330D1062334E1062338F106EB
S31500000130233C0107233011092334210923383109CF
S31500000140233C41092330510B2334610B2338710BB7
S31500000150233C810B2330910D2334A10D2338B10D9F
S31500000160233CC10D2330D10F2334E10F2338F10F87
S3150000017073250030F325103473262034233CA10E5A
S315000001802330B1102334C11063560600EF00803AC5
S315000001906F00C00093060100EF0040398330010074
S315000001A0833101010332810183320102033381026B
S315000001B0833301030334810383340104033581044B
S315000001C0833501050336810583360106033781062B
S315000001D0833701070338810783380108033981080B
S315000001E083390109033A8109833A010A033B810AEB
S315000001F0833B010B033C810B833C010C033D810CCB
S31500000200833D010D033E810D833E010E033F810FA9
S31500000210833F011073100F3073901F34033F810E1C
S31500000220833F010F1301011173002030130101FFF9
S3150000023023341100EF00001717550000130585BF82
S31500000240EF10C01DEF00C0178330810013050000BA
S31500000250130101016780000000000000000000009B
S31500000260EF00001E1304010093020000639C0200CD
S315000002701385011213860158B306A64093D536009E
S31500000280EF00001D9382012023B08200EF00401E84
S31500000290EF00001BEF008048EF00004EEF00C03576
S315000002A017150000130585F5EF00D070EF00907A62
S315000002B0EF0000179382811203A502009382010FBB
S315000002C083B5020013060000EFF05FF6EF00D06F73
S315000002D07300100000000000000000009387010C6E
S315000002E01387010C630AF700930700006386070073
S315000002F01385010C67800700678000009387010C57
S315000003009385010CB385F54093D7354093D5F50316
S31500000310B385F50093D51540638A05009307000061
S31500000320638607001385010C67800700678000005D
S31500000330130101FF2330810083C78120233411007C
S3150000034063920702EFF09FF99307000063880700A6
S315000003501385811197000000E70000009307100045
S315000003602384F1208330810003340100130101014D
S31500000370678000009307000063840702130101FFF2
S315000003809385012113858111233411009700000004
S31500000390E700000083308100130101016FF01FF6B2
S315000003A06FF0DFF5F32740F16398070083B7810EFE
S315000003B01307100023A8E70013050000678000005C
S315000003C083B7810E1307100023AAE7001305000068
S315000003D06780000083B7810E23A0A70013050000E5
S315000003E06780000083B7810E23A4A70013050000D1
S315000003F06780000083B7810E23A2A70013050000C3
S315000004006780000083B7810E23ACA70067800000D9
S3150000041083B7810E1307100023AEE7006780000044
S31500000420B707801F9387172093973700130730006D
S3150000043023A0E7006780000003A501146780000081
S3150000044067800000000000000000000000000000BF
S315000004509387F5FF638C05001307F0FF2330050033
S315000004609387F7FF13058500E39AE7FE6780000090
S31500000470B757000037570000138607F0930507F0BB
S315000004806304B60AB7560000938606F063FED508E5
S315000004903365B6009386F6FF13757500130707F0EC
S315000004A0B386B6406310050613B5C602134515009C
S315000004B01375F50F6308050493D626009386160078
S315000004C013D8160013183800938707F0330806016F
S315000004D003B507009387870013078700233CA7FE11
S315000004E0E39807FF13F5E6FF13172500B307E600A9
S315000004F0B385E500638AA60283A7070023A0F5005B
S315000005006780000093F6C6FF93864600B306D600C2
S31500000510938707F003A70700938747009385450055
S3150000052023AEE5FEE398F6FE678000007300100038
S31500000530678000009317160093D717001307B000C3
S315000005406386E7007300100067800000130101FD59
S315000005502334310183B98113B707200023382101E1
S31500000560B389F90003A9490023304101233411025C
S3150000057023308102233C91001B090900138A0134B0
S31500000580630209049317090293D7D701B307FA0048
S3150000059003B407009B040900630E040083370401BB
S315000005A00335840193850400E780070003340400C3
S315000005B0E31604FE23A2290103A949001B09090029
S315000005C0E31209FC83308102033401028334810182
S315000005D00339010183398100033A01001301010344
S315000005E06780000083A70114130500009B8717008E
S315000005F023A0F11467800000130101FA2338810457
S3150000060083A70114233C110423349104638E070C41
S3150000061083B78113639A070203A5810FB7170000FA
S31500000620938707051308010013074000930620006F
S315000006301306200C93051000EF00502093170502B7
S3150000064093D7070223BCF11283B70113639A0702FB
S3150000065003A5810FB717000093870705130801004C
S3150000066013074000930620001306300C9305100074
S31500000670EF00D01C9317050293D7070223B8F11297
S3150000068003A7411483B68113930710001B17270095
S31500000690130707201317C7003387E6002320070038
S315000006A09305100013060002139727003387E60010
S315000006B02320B7009B871700E398C7FEB7170000F3
S315000006C09B87078073A047309307800073A007308D
S315000006D0833081050334010583348104130500004A
S315000006E0130101066780000003A5810F9307405E92
S315000006F01308000013074000930610001306D00BE2
S3150000070093051000EF00901383A70114E39207F0FE
S315000007109307100023A0F1146FF09FEF130101FF60
S315000007202330810083B781142334110013050000A0
S31500000730639C070203A5810FB7170000130800008A
S315000007409387070513074000930640001306C00071
S3150000075093051000EF00900E1315050213550502C0
S3150000076023B4A1141335150083308100033401002E
S315000007701301010167800000130101FD233081028E
S3150000078083B781152334110213050000638A07001D
S3150000079083308102033401021301010367800000E4
S315000007A003A5810FB717000093870705130881007B
S315000007B0130740009306400013061001930510002E
S315000007C0EF00D0079317050293D7070223BCF11455
S315000007D013051000E38E07FA034791008330810268
S315000007E00334010223A8E1141305000013010103D9
S315000007F067800000638205206302062E03A70500BA
S31500000800233CB6029B57570093F607061377F7016A
S3150000081093F7F70133E7E6002300F600A300E600AE
S3150000082083A70501639607121307000093060000CD
S31500000830130800002306060183A745012322D600DC
S315000008402324E600638607181B970701B706F0FF07
S3150000085033F7E7003377D70013F8F7009308300033
S315000008601B07070093060800630A18219BD7470059
S315000008709B97470193C7F7FF9B8707001308F0FF75
S315000008806388071713170702939707021357070280
S31500000890B367F7002338F60083A78501230CD6003B
S315000008A09308F0FF638E07109B9607013707F0FF4A
S315000008B0B3F6D700B3F6E6001303300013F7F700DC
S315000008C09B86060013080700630267181BD74700BC
S315000008D01B1747011347F7FF1B070700630617118E
S315000008E083A7C501232ED6002320E6022302060392
S315000008F06382070A1B970701B706F0FF33F7E70085
S315000009003377D70093F5F700130830001B0707006D
S31500000910938605006386050F9BD747009B97470183
S3150000092093C7F7FF9B8707009305F0FF638AB70A13
S31500000930131707021357070293970702B367F700C7
S315000009402334F6022308D602130500006780000050
S315000009509B9607013707F0FFB3F6D700B3F6E6001C
S315000009609308300013F7F7009B860600130807006C
S31500000970630E17131BD747001B1747011347F7FFD3
S315000009801B0707009307F0FFE316F7EA13070000BB
S315000009906FF05FEA130700009307000013170702C2
S315000009A0135707029397070293060000B367F700F1
S315000009B02334F6022308D6021305000067800000E0
S315000009C01307000093060000130800006FF05FF1A4
S315000009D09307000013070000930600006FF09FEADC
S315000009E0930700006FF0DFF4130700006FF05FEF6E
S315000009F0930700006FF01FE91305100067800000E1
S31500000A0093C7F7FF9BD74700B7051000938505F0FE
S31500000A109B9787001B57C700B3F7B7003367E500FE
S31500000A2093E7F70F1B0707009B87070013170702BB
S31500000A301357070293970702B367F7002334F602AA
S31500000A402308D602130500006780000013C7F7FFCE
S31500000A501B574700B70710001B178700938707F03F
S31500000A609BD6C6003377F700B366D5001367F70F3A
S31500000A709B8606001B0707006FF09FE693C7F7FFEC
S31500000A809BD74700370810009B978700130808F08C
S31500000A901B57C700B3F707013367E50093E7F70F66
S31500000AA01B0707009B8707006FF0DFDD13C7F7FF03
S31500000AB01B574700B70710001B178700938707F0DF
S31500000AC09BD6C6003377F700B366D5001367F70FDA
S31500000AD09B8606001B0707006FF0DFD51305200075
S31500000AE067800000130101F2233C310B2338410BD0
S31500000AF02330610B233C7109233491092330A1096A
S31500000B002330D102233C110C2338810C2334910C61
S31500000B102330210D2334510B23388109233CB1079F
S31500000B2093F6160023341101930C0500138B050070
S31500000B30930B0600130D0700138A0700930908009C
S31500000B406388061037F40F0033648500131404021B
S31500000B5013540402630E080E638405366302063ED0
S31500000B60B714000013890480330924019384F4FF29
S31500000B706F00C00013040402630C240D83260400D6
S31500000B809BD7C600B3F797001BD786019B87070044
S31500000B9033E7E7001B0707009BD68601E30C07FC3B
S31500000BA0E39A66FDE398FBFC930504001306010334
S31500000BB013850C00EFF01FC48337810013070D0067
S31500000BC09306100013860B0093050B001305010313
S31500000BD0E78009001B050500E30E05F86F004010CD
S31500000BE0B71A000093870A80330CF400938AFAFF41
S31500000BF00327040093050400130601039B54C70052
S31500000C00B3F454019B8404009B578701B3E7F400B7
S31500000C109B87070013850C00130404021B598701E8
S31500000C2063860702EFF01FBD8337810013070D00AF
S31500000C3093061000138604009305090013050103AB
S31500000C40E78009001B050500631C0508E31284FB09
S31500000C5003370102B707100093840780B3E49C00B2
S31500000C60137C270013774700939404022330E10096
S31500000C70B71D00003717000093D40402938D0D8032
S31500000C801309F7FF9387F7FF1B071D00B38DB40108
S31500000C90233CE1002334F10203A304001B58C300E4
S31500000CA0337709019B5783011B5483019B0A070075
S31500000CB0630C0C00B3E7FA009B870700638C070000
S31500000CC0630E0B04630C8B0463764D0193071000CF
S31500000CD0630CF40893840402E3909DFC1305000062
S31500000CE08330810D0334010D8334810C0339010CEB
S31500000CF08339810B033A010B833A810A033B010ACC
S31500000D00833B8109033C0109833C8108033D0108BB
S31500000D10833D81071301010E6780000063840B0089
S31500000D20E3945BFBE38209FA13060103938504004F
S31500000D3013850C0023280101EFF0DFAB8337810018
S31500000D4013070D009306200013860A00930504007E
S31500000D5013050103E78009001B05050003280101AF
S31500000D60E30405F66FF0DFF7930700026380FA12DB
S31500000D70B71700009387B7FF33F807011B08080071
S31500000D809307B0046304F81083370100E38407F483
S31500000D9093076000E390FAF483A7040137F40F0089
S31500000DA01B93070133F36700B707F0FF3373F300B4
S31500000DB01B03030033648300131404021354040258
S31500000DC0930A04086F000001630ABB02130484003F
S31500000DD0E30254F1032704001B56C70033762601AD
S31500000DE01B0606009B578701B367F6009B87070023
S31500000DF09B558701E38C07FCE3180BFC63840B000F
S31500000E00E396CBFCE38409FC9B57570093F6070651
S31500000E101377F70133E7E60093F7F7012308F102AA
S31500000E20A308E1028326440083378100033781014A
S31500000E301B9546009BD0C6001BD84600B70610007F
S31500000E40B3F0A000138506F0833681021B188800D4
S31500000E50B3F0A0003378A800B3E060003348D800B0
S31500000E6013050103930640002338610023308104F3
S31500000E70232A1102232C0103E78009001B05050024
S31500000E8003330101E30405F46FF09FE503A5840035
S31500000E90E30C05EE833881000337810183360102B6
S31500000EA01388090093070A0013860B0093050B00AD
S31500000EB0EFF05FC31B050500E30805EC6FF05FE28A
S31500000EC0E30006D237190000930A0980B30A5401D9
S31500000ED01309F9FF6F00C00013040402E38A8AD6DF
S31500000EE0832504009BD7C500B3F727019B8707001E
S31500000EF01BD7850133E7E7001B0707009BD4850155
S31500000F00E30C07FCE39AFBFC9305040013060103BC
S31500000F1013850C00EFF01F8E8337810013070D0039
S31500000F209306100013860B00938504001305010336
S31500000F30E78009001B050500E30005FA6FF05FDA9C
S31500000F4037190000930A0980B30A54011309F9FFFF
S31500000F506F00C00013040402E30C54CF03270400FF
S31500000F609B54C700B3F424019B5787019B8404005C
S31500000F70B3E7F4009B8707001B578701E38C07FC48
S31500000F80E31AEBFC930504001306010313850C001A
S31500000F90EFF05F868337810013070D00930610007C
S31500000FA01386040093050B0013050103E78009006F
S31500000FB01B050500E30005FA6FF09FD2638805065E
S31500000FC0630A060603A8050037071000130307F097
S31500000FD09B56580093F806061378F80193F6F60127
S31500000FE033E808012300D600A300060183A74500C5
S31500000FF09306F7FF2338B6001BD7C7009B9547001B
S315000010009BD747003377B7009B97870033776700F6
S31500001010B3F767003365A700B3C7D7002322A6003E
S315000010202324F60013050000678000001305100056
S315000010306780000013052000678000009308080001
S315000010401388070093070700130700006FF09FA996
S31500001050638C070013074000638CE6009B86F6FF4F
S31500001060130710006376D70203254500678000004A
S315000010700337050023B0E7000337850023B4E700F4
S31500001080033705010325450023B8E7006780000004
S31500001090033E0500033385008338050103388501C7
S315000010A08335050203368502833605030337850338
S315000010B00325450023B0C70123B4670023B81701F1
S315000010C023BC070123B0B70223B4C70223B8D70253
S315000010D023BCE7026780000083B68113638206069D
S315000010E0F375043003A741141B56F5411B56B60190
S315000010F03B06A6001B1727001B5656401317570022
S315000011003307C70013172700B386E600372700000A
S31500001110B386E60003A7060093071000BB97A70057
S3150000112093C7F7FFB3F7E7009B87070023A0F600F6
S3150000113093F7850073A00730130500006780000051
S31500001140130510006780000003B7811363000706CC
S315000011507376043083A741149B56F5419BD6B6019E
S31500001160BB86A6009B9727009BD6564093975700B1
S31500001170B387D700939727003307F700B7270000F8
S315000011803307F70083270700930610003B95A60058
S3150000119033E5A7001B0505002320A70093778600EB
S315000011A073A00730130500006780000013051000C8
S315000011B067800000930505009306000013060000F3
S315000011C0130500006F008044130101FF9305000022
S315000011D0233081002334110013040500EF00004F73
S315000011E003B5810D8337850463840700E780070014
S315000011F013050400EF30D01D130101FE23388100D2
S31500001200B757000037540000130484EF938707F0A4
S31500001210B387874023349100233C110093D4374091
S3150000122063800402938787FF338487008337040033
S315000012309384F4FF130484FFE7800700E39804FE19
S3150000124083308101033401018334810013010102DB
S3150000125067800000130101FE23388100233021013D
S315000012603754000037590000930704EF130909EFBC
S315000012703309F940233C11002334910013593940B6
S3150000128063000902130404EF93040000833704008B
S315000012909384140013048400E7800700E31899FE82
S315000012A03754000037590000930704EF130989EFFC
S315000012B03309F9401359394063000902130404EF56
S315000012C093040000833704009384140013048400FD
S315000012D0E7800700E31899FE83308101033401019A
S315000012E08334810003390100130101026780000085
S315000012F0130101F923308106130405001385050047
S31500001300233C91042334110693840500EF008023C7
S31500001310B7570000938707E42330F10493071000C2
S315000013202334F1049307010313071500233CF1004E
S315000013309307200023389102233CA1022334E102C3
S315000013402320F10263080408832704036380070847
S3150000135083350401B7570000938787EB6380F50A4E
S31500001360B7570000938707E8638EF508B757000064
S31500001370938787E4638CF508839705011397270302
S315000013806342070203A7850AB7260000B3E7D70022
S31500001390B7E6FFFF9386F6FF3377D7002398F5006D
S315000013A023A4E50A1306810113050400EF00900D3E
S315000013B0631205061305A000833081060334010677
S315000013C083348105130101076780000013050400BB
S315000013D0EF00500A8327040383350401E39C07F6D4
S315000013E0130504002334B100EF00D00883358100D3
S315000013F0B7570000938787EBE394F5F683358400AF
S315000014006FF09FF7833504016FF01FF78335840172
S315000014106FF09FF61305F0FF6FF01FFA130101F945
S3150000142023308106233C910403B401109304050084
S3150000143023341106EF000011B7570000938707E425
S315000014402330F104930710002334F10493070103BA
S3150000145013071500233CF10093072000233891025F
S31500001460233CA1022334E1022320F102630804088D
S31500001470832704036380070883350401B7570000F8
S31500001480938787EB6380F50AB7570000938707E8D1
S31500001490638EF508B7570000938787E4638CF508D9
S315000014A083970501139727036342070203A7850A5B
S315000014B0B7260000B3E7D700B7E6FFFF9386F6FF2F
S315000014C03377D7002398F50023A4E50A1306810194
S315000014D013050400EF00007B631205061305A00048
S315000014E08330810603340106833481051301010725
S315000014F06780000013050400EF00C077832704030C
S3150000150083350401E39C07F6130504002334B10078
S31500001510EF00407683358100B7570000938787EB4D
S31500001520E394F5F6833584006FF09FF78335040165
S315000015306FF01FF7833584016FF09FF61305F0FFF8
S315000015406FF01FFA9377750013070500639A070675
S3150000155083B6010C9305F0FF0336070013078700D7
S31500001560B377D600B387D700B3E7C700B3E7D70092
S31500001570E384B7FE834687FFB307A7406384060666
S31500001580834697FF638C06048346A7FF638406069B
S315000015908346B7FF638C06048346C7FF0346D7FF1F
S315000015A00345E7FF638C0604630E06043335A0008B
S315000015B03305F5001305E5FF67800000E38A06F8AA
S315000015C0834707001307170093767700E39807FE13
S315000015D03307A7401305F7FF67800000138597FFC1
S315000015E067800000138587FF678000001385B7FFBB
S315000015F0678000001385A7FF678000001385C7FF7B
S31500001600678000001385D7FF6780000083B7011647
S315000016106384070603A787001308F0016344E80AFA
S31500001620630C050203B80711630E08089318370008
S31500001630B308180123B0C8000323082013061000BE
S315000016403B16E6003363C3002320682023B0D8107E
S31500001650930620006302D50493062700939636006E
S315000016601B07170023A4E700B387D70023B0B700F2
S3150000167013050000678000009388014423B011170A
S315000016801307000093870144E30607F803370000B9
S3150000169023B8E7106FF01FF88326482013050000D3
S315000016A033E6C600930627002322C8201B0717002F
S315000016B09396360023A4E700B387D70023B0B7007C
S315000016C0678000001305F0FF67800000130101FA30
S315000016D0233451032330210503B90116233C110499
S315000016E02338810423349104233C310323384103F6
S315000016F023306103233C7101233881012334910196
S315000017002330A101630A090A930B0500138A050019
S31500001710130B1000130DF0FF83248900033C0911FD
S315000017201B84F4FF634A040863040A0E63060C086C
S3150000173093943400B3099C00B30499006F004001F0
S315000017401B04F4FF938989FF938484FF6306A4072F
S3150000175083B7890FE316FAFE832C890003B784004A
S315000017609B87FCFF638A870823B40400E30A07FC0F
S3150000177083270C20BB168B00B3F7D7009B87070087
S315000017806388070683274C2083B589FFB3F7D70004
S315000017909B8707006388070613850500E700070097
S315000017A00327890083B7011663149701E30AF9F842
S315000017B013890700E39207F6833081050334010598
S315000017C0833481040339010483398103033A010315
S315000017D0833A8102033B0102833B8101033C010101
S315000017E0833C8100033D0100130101066780000070
S315000017F0E70007006FF0DFFA23248900930C04004A
S315000018006FF0DFF613850B00E70007006FF05FF956
S3150000181063020C0A939C3400B30999011B87F4FFF9
S3150000182083B78900B30C9C016306870623B40900BD
S315000018306382070403270C20BB168B003377D7007F
S315000018401B070700630E070403274C2083B58CFF94
S315000018503377D7001B0707006318070413850B00AF
S31500001860E78007000327890083B70116E31297F480
S31500001870E310F9F41B04F4FF938989FF938C8CFF22
S31500001880E30CA4F38324890083B789001B87F4FF44
S31500001890E31E87F823248900930404006FF05FF9A0
S315000018A0E78007006FF01FFC13850500E78007003F
S315000018B06FF05FFB93993400B30939016F000003A1
S315000018C023B409001B04F4FF638C0700E7800700BC
S315000018D00327890083B70116E31C97ECE39A27EDEB
S315000018E0938989FFE30AA4ED832489001B87F4FF0B
S315000018F083B78900E31687FC232489009304040038
S315000019006FF05FFCB7450000938545A36F00900E0E
S31500001910130101FE233491001306000B9B84F5FF8F
S31500001920B384C402233021011389050023388100C2
S31500001930233C11009385840CEF0010191304050055
S3150000194063000502130585012330040023242401C6
S315000019502338A4001386040B93050000EF10806360
S3150000196083308101130504000334010183348100AF
S31500001970033901001301010267800000130101FD14
S31500001980233C910083B4810D2338210123341102B5
S3150000199083A704032330810223343101233041011C
S315000019A0130905006380070C938404089309000B50
S315000019B0130A400083A7840003B40401635CF008A3
S315000019C09B87F7FF9397070293D707029387170022
S315000019D0B3873703B307F4006F00C0001304040B8A
S315000019E0638A870603170401E31A07FEB707FFFF9A
S315000019F0938717002328F4002324040A23300400C5
S31500001A0023340400233C040023200402232404027C
S31500001A1013068000930500001305040AEF10805793
S31500001A202330040623240406233004082324040850
S31500001A3083308102130504000334010283348101DB
S31500001A400339010183398100033A010013010103BF
S31500001A506780000003B40400630C040093040400D0
S31500001A606FF05FF513850400EF0040056FF0DFF3BC
S31500001A709305802D13050900EF00100513040500DA
S31500001A80630605021305850123300400232444015F
S31500001A902338A4001306002C93050000EF10804F96
S31500001AA023B08400930404006FF0DFF023B0040039
S31500001AB09307C0002320F9006FF09FF7130101FC84
S31500001AC003B7810DB727000023388102233C11029A
S31500001AD02334910223302103233C31012338410171
S31500001AE02334510123306101938747902334F50451
S31500001AF023300508232405082338050813040500A8
S31500001B00630CE51413050400EFF05FE72334A4002B
S31500001B1013050400EFF09FE62338A4001305040024
S31500001B20EFF0DFE583348400233CA40093074000F4
S31500001B3023A8F400130680009305000023B00400D8
S31500001B4023B4040023A4040A23BC040023A0040233
S31500001B5023A404021385040AEF10C043373B000098
S31500001B6003390401B73A0000373A0000B7390000DC
S31500001B70130BCB64938A0A6B130A8A739389097BC6
S31500001B80B707010023B0640523B4540523B8440500
S31500001B9023BC340523BC9402938797002328F900BD
S31500001BA013068000930500002324090A2330090048
S31500001BB023340900233C09002320090223240902B7
S31500001BC01305090AEF10003D83348401B7070200AC
S31500001BD0233069052334590523384905233C390543
S31500001BE0233C29039387270123A8F40023A4040A8E
S31500001BF023B0040023B4040023BC040023A0040281
S31500001C0023A404021385040A13068000930500002A
S31500001C10EF1040389307100023B0640523B4540531
S31500001C2023B8440523BC340523BC940283308103C6
S31500001C302328F402033401038334810203390102A9
S31500001C4083398101033A0101833A8100033B010094
S31500001C501301010467800000930710002328F50292
S31500001C606FF05FEA03B5810DB7450000938545A384
S31500001C706F00405883270503639407006FF01FE445
S31500001C8067800000833706016388072883D705012C
S31500001C90130101FA23388104233841032334510305
S31500001CA0233C11042334910423302105233C3103C2
S31500001CB023306103233C71012338810123349101D0
S31500001CC02330A10113F78700130A0600930A0500C3
S31500001CD0138405006308070803B785016304070832
S31500001CE013F7270003390A00630E070883378404B5
S31500001CF083358403370B00809309000093040000AA
S31500001D00134B0BC01386090013850A006384040471
S31500001D109386040063749B0093060B009B86060063
S31500001D20E78007006350A01E83370A01B389A90024
S31500001D30B384A4403385A7402338AA00630E051652
S31500001D4083378404833584031386090013850A00C8
S31500001D50E39004FC833909008334890013090901DF
S31500001D606FF05FFA9305040013850A00EF10502BFD
S31500001D70631C053A8357040103390A0013F7270049
S31500001D80E31607F613F717006312070A8324C40045
S31500001D9003350400370B0080934BEBFF130C000058
S31500001DA093090000134BFBFF938C0400638809061C
S31500001DB013F707206308071C138D040063FC99249E
S31500001DC0938C0900138D090013060D0093050C0072
S31500001DD0EF00507C0327C400833704009384090076
S31500001DE0BB0C9741B387A701232694012330F40047
S31500001DF09309000003360A01330C9C00B304964095
S31500001E0023389A00638A040A8324C4000335040035
S31500001E1083570401938C0400E39C09F8033C0900F2
S31500001E2083398900130909016FF01FF8930900002F
S31500001E3013050000930C0000130C000063020C0E47
S31500001E406308050E938B090063743C01930B0C0029
S31500001E5003350400833784018326040293840B0030
S31500001E6063F8A7008327C4003B8BD70063427B0F30
S31500001E7063C0DB24833784048335840313860C0014
S31500001E8013850A00E780070093040500635CA0063B
S31500001E909B070500BB89F94013051000638C0904F4
S31500001EA083370A01B38C9C00330C9C40B384974063
S31500001EB023389A00E39404F8130500008330810563
S31500001EC00334010583348104033901048339810312
S31500001ED0033A0103833A8102033B0102833B8101FA
S31500001EE0033C0101833C8100033D0100130101060F
S31500001EF0678000009305040013850A00EF20800127
S31500001F00E30005FA8317040193E707042318F40096
S31500001F101305F0FF6FF09FFA1305000067800000BD
S31500001F20033C8900833C090013090901E30A0CFEFE
S31500001F3013060C009305A00013850C00EF00503922
S31500001F406308051C13051500BB0995416FF09FEF4B
S31500001F5093850C0013060B00EF00D0638337040053
S31500001F609305040013850A00B38767012330F40044
S31500001F70EF10507AE31805F893070B0093040B0053
S31500001F806FF05FF18337840163E2A70483270402BD
S31500001F9063EEF9029386090063F43B0193060B0096
S31500001FA0BBC6F602033784048335840313060C008C
S31500001FB013850A00BB86F602E700070093040500B6
S31500001FC0E352A0F4B38999406FF0DFE263F499001D
S31500001FD0938409001386040093050C00EF00905BC0
S31500001FE08327C40003370400BB8697403307970056
S31500001FF02326D4002330E400E39606FC9305040070
S3150000200013850A00EF101071E31E05EEB38999409F
S315000020106FF05FDE13F70748E30807DA832404024C
S3150000202083358401138719009B961400BB8696009E
S315000020303305B5409BD4F6011B0D0500BB84D400C7
S315000020409BD414403307A70163F6E4009B84190070
S31500002050BB84A40093F707406382070893850400B6
S3150000206013850A00EF004026930C05006306050A57
S315000020708335840113060D00EF00103283570401E7
S3150000208093F7F7B793E707082318F4003385AC01F5
S31500002090BB87A441233C94012330A400232094024F
S315000020A0938C09002326F400138D09006FF0DFD10D
S315000020B013860B0093850C00EF00D04D8326C400D9
S315000020C0033704009B870B00BB86764133077701F5
S315000020D02326D4002330E4006FF0DFDB13860400F0
S315000020E013850A00EF005079930C0500E31005FAFA
S315000020F08335840113850A00EF20000C8317040141
S315000021001307C00023A0EA0093F7F7F76FF0DFDFAD
S315000021109B091C006FF01FD31307C000831704012F
S3150000212023A0EA006FF05FDE1305F0FF6FF01FD902
S31500002130130101FB233821032334310323304103E8
S31500002140233C5101233861012334710123341104E6
S3150000215023308104233C9102138A050013090508E4
S31500002160130B0000930A000B930B10009309F0FF6A
S3150000217083278900033409016352F0049B84F7FF27
S315000021809394040293D4040293841400B3845403F6
S31500002190B30494008357040163FEFB0083172401F4
S315000021A01305040063883701E7000A00336B6501F5
S315000021B01B0B0B001304040BE39E84FC033909007C
S315000021C0E31809FA8330810403340104833481035C
S315000021D00339010383398102033A0102833A8101FB
S315000021E0833B810013050B00033B0101130101052D
S315000021F067800000130101FB2338210323343103D8
S3150000220023304103233C51012338610123347101FA
S31500002210233081012334110423308104233C9102AD
S31500002220130C0500138A050013090508130B00009B
S31500002230930A000B930B10009309F0FF8327890084
S31500002240033409016354F0049B84F7FF939404025A
S3150000225093D4040293841400B3845403B304940007
S315000022608357040163F0FB028317240193050400DE
S3150000227013050C0063883701E7000A00336B65011C
S315000022801B0B0B001304040BE39C84FC03390900AD
S31500002290E31609FA8330810403340104833481038D
S315000022A00339010383398102033A0102833A81012A
S315000022B0833B8100033C010013050B00033B010136
S315000022C01301010567800000130101FA233491040C
S315000022D023302105233C110423388104233C310398
S315000022E0233841032334510323306103233C710116
S315000022F02338810123349101938475019307E00209
S315000023001309050063E697069307000263E0B72604
S31500002310EF001056930400029307000513064000D1
S31500002320B7590000938909FBB387F90003B4870006
S31500002330138707FF630CE426833784008336840102
S315000023400336040193F7C7FFB307F40003B787000A
S31500002350233CD60023B8C6001367170013050900EF
S3150000236023B4E700EF001051130504016F00C020ED
S31500002370B707008093F404FF93C7F7FF63E8971E3F
S3150000238063E6B41EEF00D04E9307701F63F0974EBE
S3150000239093D7940063860734130740006366F740BB
S315000023A093D764001B8697039B1616001B8587032D
S315000023B093963600B7590000938909FBB386D90076
S315000023C003B48600938606FF6388861E9305F00194
S315000023D06F0000016352073603348401638E861C46
S315000023E08337840093F7C7FF33879740E3D4E5FE2E
S315000023F003B4090237580000130808FC1306050049
S315000024006314041D83B789001B57264093051000EB
S31500002410B395E50063F8B72203B40901033A8400D3
S31500002420937ACAFF63E89A00B3879A401307F001CC
S315000024306340F72E03BA811703B781109307F0FFA5
S31500002440330C5401338A44016306F74EB717000074
S315000024509387F701330AFA00B7F7FFFF337AFA00DA
S3150000246093050A0013050900EF1080189307F0FF83
S31500002470130B05006306F54263628543938B815512
S3150000248003A70B00BB07470123A0FB0093860700A9
S31500002490630AAC5403B781109307F0FF6302F75643
S315000024A0B3078B41BB87D70023A0FB00137CFB003F
S315000024B063040C4A37170000330B8B41930707015F
S315000024C0130B0B01B3878741B30C4B01338A97413A
S315000024D01307F7FF337AEA0093050A00130509008C
S315000024E0EF1000119307F0FF630AF55633056541B7
S315000024F01B070A00330A450183A70B0023B86901AD
S31500002500136A1A00BB87E70023A0FB0023344B01A4
S31500002510630C344F1306F001637C564F83368400F8
S3150000252013878AFE137707FF93F61600B3E6E600D5
S315000025302334D40093059000B306E40023B4B60018
S3150000254023B8B6006366E652033A8B0013040B0009
S3150000255083B6011763F4F60023B8F11683B6811625
S3150000256063F4F63423B4F1166F0000349307C00009
S315000025702320F9001305000083308105033401058B
S31500002580833481040339010483398103033A010347
S31500002590833A8102033B0102833B8101033C010133
S315000025A0833C8100130101066780000003B48701A4
S315000025B01B062600E39287D803B4090237580000A9
S315000025C0130808FCE30004E5833784009306F00152
S315000025D093F7C7FF3387974063CCE62423B40903F8
S315000025E023B00903635607101307F01F636CF71433
S315000025F093D737001B8717001B17170013173700D1
S3150000260003B589003387E900833507009BD6274049
S3150000261093071000B397D700B3E7A700930607FF09
S31500002620233CD4002338B40023B4F90023308700B8
S3150000263023BC85001B57264093051000B395E50083
S31500002640E3ECB7DC33F7F500631407029395150046
S315000026501376C6FF33F7F5001B064600631A07001C
S315000026609395150033F7F5001B064600E30A07FEAF
S315000026709308F0011B0316001B13130013133300FA
S31500002680130303FF338369001305030083378501B2
S31500002690130E0600630EF51203B7870013840700B6
S315000026A083B787011377C7FFB306974063CED81267
S315000026B0E3C206FE3307E4008336870003360401CF
S315000026C01305090093E616002334D700233CF600D1
S315000026D023B8C700EF00101A130504016FF0DFE9F5
S315000026E093060040130600041305F0036FF09FCC19
S315000026F0B307F40003B78700130509001367170033
S3150000270023B4E700EF001017130504016FF0DFE6AE
S3150000271013E714002334E400B304940023B89900AB
S3150000272093E717001305090023B4F400EF00901493
S31500002730130504016FF05FE4833684010336040158
S315000027406FF09FC013D797009306400063FCE61214
S315000027509306400163EEE6229B05C7059B9515008F
S315000027609B06B70593953500B385B90003B70500F9
S31500002770938505FF6384E51C8336870093F6C6FFC1
S3150000278063F6D70003370701E398E5FE8335870133
S3150000279083B78900233CB4002338E40023B88500BE
S315000027A0233C87006FF01FE9130740016370F7129F
S315000027B013074005636EF71E93D7C4001B86F70602
S315000027C09B1616001B85E706939636006FF09FBE94
S315000027D01B0E1E0093773E00130505016388071044
S315000027E0833785016FF01FEB0336040193E5140070
S315000027F02334B400233CF60023B8C700B304940086
S3150000280023B4990223B0990293E7160023BC04016E
S3150000281023B8040123B4F4003307E40013050900C8
S315000028202330D700EF001005130504016FF0DFD445
S3150000283093E614002334D400B304940023B499021D
S3150000284023B099029366170023BC040123B8040140
S3150000285023B4D400B307F4001305090023B0E7003E
S31500002860EF005001130504016FF01FD113D6340099
S315000028709B0716009B9717001B06060093973700C9
S315000028806FF01FAA13D767009B0597039B9515004A
S315000028909B068703939535006FF01FED630A34138B
S315000028A003B40901033A8400137ACAFFB3079A40B6
S315000028B063669A001307F001E34CF7E41305090079
S315000028C0EF00407B130500006FF01FCB1B86C7058A
S315000028D09B1616001B85B705939636006FF09FADC5
S315000028E0833703011B06F6FF6390671E9377360056
S315000028F0130303FFE39607FE03B7890093C7F5FFAB
S31500002900B3F7E70023B4F90093951500E3E6B7B0F3
S31500002910E38405B033F7F500631A070093951500B5
S3150000292033F7F5001B0E4E00E30A07FE13060E00F2
S315000029306FF05FD4130A0A026FF09FB203B58900E5
S315000029409BD6264093071000B397D700B3E7A7009E
S3150000295023B4F9006FF01FE4330C4B01330C8041B4
S31500002960131C4C03135C4C0393050C001305090060
S31500002970EF0010489307F0FF13070000E30EF5B6CB
S31500002980330565411B070C00330A85016FF0DFB67E
S315000029909306400563E4E60813D7C7009B05F706D0
S315000029A09B9515009B06E706939535006FF0DFDBD8
S315000029B0130740156364F70893D7F4001B8687074F
S315000029C09B1616001B857707939636006FF09F9E21
S315000029D0938B815583A70B00BB86470123A0DB00A1
S315000029E06FF05FAB13174C03E31607AA03B4090194
S315000029F0338A4A01136A1A00233444016FF05FB523
S31500002A0023B461116FF09FAA13040B006FF05FB43B
S31500002A10930710002334FB006FF05FEA930640151E
S31500002A2063E6E60613D7F7009B0587079B95150017
S31500002A309B067707939535006FF01FD31307405514
S31500002A406366F70693D724011B86D7079B161600E5
S31500002A501B85C707939636006FF0DF95130C0CFFA6
S31500002A60338A8C01330A6A41130700006FF0DFA82E
S31500002A709305040113050900EF10007403B409015E
S31500002A8083A70B00033A84006FF09FAC9306405572
S31500002A9063E6E60213D727019B05D7079B9515002A
S31500002AA09B06C707939535006FF01FCC9306007FF2
S31500002AB01306F0071305E0076FF0DF8F9305007F1D
S31500002AC09306E0076FF05FCA83B789006FF0DFE314
S31500002AD09377750093F6F50F638A07029307F6FF5F
S31500002AE0630E06021306F0FF6F0080011305150042
S31500002AF013777500630E07009387F7FF6380C7029D
S31500002B0003470500E314D7FE67800000930706001D
S31500002B10130770006366F70263960700130500004B
S31500002B2067800000B307F5006F00C00013051500AD
S31500002B30E306F5FE03470500E31AD7FE67800000AB
S31500002B4093F5F50F13978500B365B7001397050145
S31500002B5083B8810C3367B70003B8010D93150702DC
S31500002B60B3E5E500130370000337050033C7E5003E
S31500002B70330617011347F7FF3377E600337707016C
S31500002B80E31207FA938787FF13058500E36EF3FCCC
S31500002B90E39A07F86FF09FF8B3C7A50093F777009D
S31500002BA0B308C5006398070E9307700063F4C70E59
S31500002BB093777500930605006398070413F688FF5C
S31500002BC0930706FC63ECF60663FCC6021387050052
S31500002BD0938706000338070093878700130787004B
S31500002BE023BC07FFE3E8C7FE9307F6FFB387D7408A
S31500002BF093F787FF93878700B386F600B385F500C2
S31500002C0063EE16096780000003C705009386160069
S31500002C1093F77600A38FE6FE93851500E38007FA07
S31500002C2003C705009386160093F77600A38FE6FE8A
S31500002C3093851500E39A07FC6FF05FF883B3850070
S31500002C4083BF050103BF850183BE050203BE85025E
S31500002C5003B3050303B8850303B7050483B2050070
S31500002C609386860423B076FC23BC56FA23B4F6FD7D
S31500002C7023B8E6FD23BCD6FD23B0C6FF23B466FE0B
S31500002C8023B806FF23BCE6FE93858504E3E8F6FA3F
S31500002C906FF09FF393060500E37615F79387F8FF29
S31500002CA013861600B387D74093B7970033B7C8008B
S31500002CB01347170093C71700B3F7E70093F7F70F0B
S31500002CC013870600638E070AB3E7B60093F777000B
S31500002CD06398070A1303100063E4C8003383D840DF
S31500002CE0137883FF938705003308B80003B60700FF
S31500002CF09387870013078700233CC7FEE39807FFE7
S31500002D00937783FFB385F500E30EF3EE03C7050063
S31500002D1093871700B386F600A38FE6FEE3F416EF5B
S31500002D2003C71500938716002380E600E3FC17ED22
S31500002D3003C7250093872600A380E600E3F417ED7A
S31500002D4003C73500938736002381E600E3FC17EBC3
S31500002D5003C7450093874600A381E600E3F417EB1B
S31500002D6003C75500938756002382E600E3FC17E964
S31500002D7083C76500A382F60067800000130616006D
S31500002D8083C7050093851500A30FF6FEE36816FFBB
S31500002D906780000063F6A502B387C5006372F5027B
S31500002DA03307C500630A061C83C6F7FF9387F7FF40
S31500002DB01307F7FF2300D700E398F5FE67800000AE
S31500002DC09307F00163EAC70E930705009308F6FF21
S31500002DD0630C061A9386150033E7B7003386D7408F
S31500002DE0137777001336760013461600133717004D
S31500002DF03377C7006304071613B7A80013471700F5
S31500002E001377F70F630C0714138898FF13583800CD
S31500002E10138E180013081800138605009386070002
S31500002E201307000003330600130717001306860076
S31500002E3023B0660093868600E36607FF1318380002
S31500002E40B3870701B3850501B388084163060E13EE
S31500002E5003C705002380E7006380081283C61500B8
S31500002E6013071000A380D7006388E81083C62500E7
S31500002E70130720002381D7006380E81083C635003E
S31500002E8013073000A381D7006388E80E83C6450088
S31500002E90130740002382D7006380E80E83C65500DF
S31500002EA013075000A382D7006388E80C03C76500A8
S31500002EB02383E70067800000B3E7A50093F7770058
S31500002EC0639E070A930806FE93F808FE9388080295
S31500002ED0330815011387050093070500833607009D
S31500002EE0130707029387070223B0D7FE833687FEB0
S31500002EF023B4D7FE833607FF23B8D7FE833687FF72
S31500002F0023BCD7FEE31CF8FC13778601B3851501B5
S31500002F109376F601630C070683B80500138786FFD0
S31500002F201308700023B01701637EE80083B885009C
S31500002F30938606FF23B417016376D80083B605018E
S31500002F4023B8D700137787FF130787001376760019
S31500002F50B387E700B385E5006FF05FE79388180055
S31500002F60B388170103C7F6FF9387170093861600E9
S31500002F70A38FE7FEE39817FF678000009308F6FF2C
S31500002F80930705006FF01FE56780000013860600B3
S31500002F906FF0DFE31303F00013070500637AC30243
S31500002FA09377F7006390070A639E0506937606FFFC
S31500002FB01376F600B386E6002330B7002334B70055
S31500002FC013070701E36AD7FE631406006780000053
S31500002FD0B306C3409396260097020000B3865600B8
S31500002FE06780C6002307B700A306B7002306B7000D
S31500002FF0A305B7002305B700A304B7002304B70051
S31500003000A303B7002303B700A302B7002302B70048
S31500003010A301B7002301B700A300B7002300B70040
S315000030206780000093F5F50F93968500B3E5D5000C
S3150000303093960501B3E5D50093960502B3E5D50051
S315000030406FF0DFF69396270097020000B3865600CE
S3150000305093820000E78086F993800200938707FF3A
S315000030603307F7403306F600E374C3F66FF0DFF379
S315000030706780000067800000130101FB23382103ED
S315000030802334110423308104233C91022334310379
S3150000309023304103233C510123386101233471015C
S315000030A023308101130906006386051C138405007D
S315000030B0930A0500EFF0DFFB033784FF93047901E1
S315000030C09307E002130B04FF137AC7FF63FA970E08
S315000030D0B707008093F404FF93C7F7FF63E6970EE4
S315000030E063E4240FB3094B01635C9A12B7570000DF
S315000030F0938B07FB83B60B0183B78900638E361D5E
S3150000310093F6E7FFB386D90083B6860093F61600DA
S315000031106394061493F7C7FFB306FA0063D6960EB8
S315000031201377170063140702033C04FF330C8B412B
S3150000313003378C001377C7FFB307F700B38B47013C
S3150000314063D89B34B30BEA0063D29B2C930509002A
S3150000315013850A00EFF04F9713090500630C050469
S31500003160833784FF130705FF93F7E7FFB307FB00D9
S315000031706384E72813068AFF9307800463E4C73055
S315000031801307700283360400636CC720930705009B
S315000031901307040023B0D7008336870023B4D70073
S315000031A00337070123B8E7009305040013850A00D7
S315000031B0EF10800013850A00EFF0DFEB6F0080014F
S315000031C093040002E3F024F39307C00023A0FA005F
S315000031D0130900008330810403340104833481031E
S315000031E083398102033A0102833A8101033B0101DB
S315000031F0833B8100033C01001305090003390103E9
S31500003200130101056780000083B7890103B709012F
S31500003210138A0600B309DB00233CF70023B8E70056
S3150000322083378B0033079A409306F00193F7170014
S3150000323063ECE606B367FA002334FB0083B7890024
S3150000324093E7170023B4F90013850A00EFF09FE215
S31500003250130904006FF01FF813771700E31807EE41
S31500003260033C04FF330C8B4103378C001377C7FFF5
S315000032706FF05FED033401048330810483348103EE
S315000032800339010383398102033A0102833A81013A
S31500003290033B0101833B8100033C010093050600CB
S315000032A0130101056FF04F82B3E7F4002334FB00EE
S315000032B0B3059B001367170023B4E50083B78900A5
S315000032C09385050113850A0093E7170023B4F900D7
S315000032D0EF00906E6FF05FF793F7C7FFB306FA0043
S315000032E01386040263D0C60E13771700E31007E6B1
S315000032F0033C04FF330C8B4103378C001377C7FF65
S31500003300B307F700B3894701E3CEC9E283378C01DF
S3150000331003370C0113068AFF93068004233CF7004B
S3150000332023B8E70013090C0163ECC6269305700267
S31500003330033704009307090063F2C5022338EC0043
S315000033400337840093077003233CEC0063E2C7262F
S315000033500337040193070C021304040123B0E700AA
S315000033600337840023B4E7000337040123B8E700DA
S3150000337033079C00B389994023B8EB0093E7190003
S315000033802334F70083378C0013850A0093F7170060
S31500003390B3E4970023349C00EFF0DFCD6FF09FE39A
S315000033A02330D50083368400130770032334D500F9
S315000033B0636EC716833604011307040193070501DC
S315000033C06FF05FDD330B9B00B386964023B86B012D
S315000033D093E716002334FB00833784FF13850A0026
S315000033E01309040093F71700B3E49700233C94FEF7
S315000033F0EFF05FC86FF01FDE833785FF93F7C7FFD7
S31500003400330AFA00B3094B016FF09FE183378C0151
S3150000341003370C0113068AFF93068004233CF7004A
S3150000342023B8E70013090C01B3097C0163E2C60E59
S3150000343093057002033704009307090063F2C5027F
S315000034402338EC000337840093077003233CEC0019
S3150000345063E0C7100337040193070C021304040149
S3150000346023B0E70003378400138A0B00130B0C000C
S3150000347023B4E700033704011304090023B8E70067
S315000034806FF01FDA93050400EFF0DF906FF0DFD1E5
S3150000349083B7890103B7090113068AFF93068004DF
S315000034A0233CF70023B8E70003370C0183378C0170
S315000034B013090C01B3097C01233CF70023B8E7008C
S315000034C063E8C604930670020337040093070900F5
S315000034D0E3F8C6F82338EC0003378400930770033B
S315000034E0233CEC0003370401E3F8C7F62330EC0273
S315000034F003378401930780042334EC020337040264
S315000035006304F60693070C03130404026FF05FF5D9
S315000035109305040013050900EFF0DF871304090083
S31500003520138A0B00130B0C006FF09FCF03370401B7
S315000035302338E50003378401233CE5008336040283
S315000035406302F60413070402930705026FF09FC493
S31500003550833704012330FC02833784012334FC02C1
S3150000356003370402E310D6FA2338EC020337840249
S3150000357093070C0413040403233CEC0203370400F2
S315000035806FF01FEE2330D50283368402130704033F
S31500003590930705032334D502833604036FF09FBFD8
S315000035A09305040013050900EFF0CFFE6FF05FDC12
S315000035B0833704012330FC02833784012334FC0261
S315000035C0033704026308D60093070C0313040402AE
S315000035D06FF0DFD82338EC020337840293070C041C
S315000035E013040403233CEC02033704006FF01FD7D7
S315000035F0130101FE233881002334910013040500D2
S3150000360013850500233C110023A00118EF10C066A6
S315000036109307F0FF630CF500833081010334010149
S3150000362083348100130101026780000083A701181B
S31500003630E38407FE833081012320F4000334010173
S31500003640833481001301010267800000130101FF2A
S31500003650233081001384050083952501233411004E
S31500003660EF10C0146340050283378409833081005C
S31500003670B387A700233CF4080334010013010101BA
S31500003680678000008357040137F7FFFF1307F7FF32
S31500003690B3F7E700833081002318F40003340100F8
S315000036A01301010167800000130500006780000018
S315000036B083970501130101FD23308102233C91000C
S315000036C023382101233431012334110213F7071063
S315000036D0138405009304050083952501130906004C
S315000036E093890600631E070237F7FFFF1307F7FFEC
S315000036F0B3F7E7002318F400033401028330810294
S3150000370093860900130609008339810003390101F4
S315000037101385040083348101130101036F00C0097E
S315000037209306200013060000EF00905B8317040148
S31500003730831524016FF05FFB130101FF2330810025
S31500003740138405008395250123341100EF00505999
S315000037509307F0FF6308F50283570401371700004B
S3150000376083308100B3E7E7009B9707019BD70741AA
S31500003770233CA4082318F4000334010013010101BB
S31500003780678000008357040137F7FFFF1307F7FF31
S31500003790B3F7E7009B9707019BD70741833081006A
S315000037A02318F400033401001301010167800000AF
S315000037B0839525016F004022130101FE1387050042
S315000037C02338810023349100930506001304050075
S315000037D01386060013050700233C110023A00118D9
S315000037E0EF1040509307F0FF630CF5008330810122
S315000037F00334010183348100130101026780000054
S3150000380083A70118E38407FE833081012320F40097
S315000038100334010183348100130101026780000033
S31500003820130101FE2334910083B401102338810073
S3150000383023302101233C11001309050013840500E0
S315000038406386040083A70403638E0706B757000048
S31500003850938787EB6302F408B7570000938707E85E
S31500003860630EF410B7570000938787E46306F414D9
S3150000387003170401931707039376870093D707036B
S3150000388063880606833684016388060813F61700E4
S31500003890630C060A0326040223260400130500000F
S315000038A03B06C0402324C402638E060A833081018E
S315000038B0033401018334810003390100130101023D
S315000038C06780000013850400EFE0CFBAB757000009
S315000038D0938787EBE312F4F803B48400031704011B
S315000038E0931707039376870093D70703E39C06F89D
S315000038F093F607016386060C93F74700639407085F
S315000039008336840113678700931707032318E4009F
S3150000391093D70703E39C06F613F6072893050020C2
S31500003920E306B6F69305040013050900EF00D0413F
S3150000393003170401833684019317070393D70703FC
S3150000394013F61700E31806F413F627009305000094
S3150000395063140600832504022326B4001305000021
S31500003960E39606F493F70708E38207F41367070460
S315000039702318E4001305F0FF6FF05FF303B40401AE
S315000039806FF01FEF83350406638E05009307C407A7
S315000039906388F50013050900EF0010020317040100
S315000039A023300406833684011377B7FD23240400ED
S315000039B02330D4006FF01FF503B484016FF05FEB82
S315000039C0930790002320F900136707042318E400E7
S315000039D01305F0FF6FF09FED130101FE2338810000
S315000039E0233491001304050013850500233C1100C0
S315000039F023A00118EF10C0389307F0FF630CF50001
S31500003A0083308101033401018334810013010102F3
S31500003A106780000083A70118E38407FE83308101D5
S31500003A202320F400033401018334810013010102D1
S31500003A3067800000130101FE233C1100233881003A
S31500003A4023349100233021016384050C138405007F
S31500003A50930405006306050083270503638E070CA0
S31500003A60B7570000938787EB6304F40CB757000041
S31500003A70938707E86306F40CB7570000938787E43B
S31500003A806304F40E83170401638407089305040096
S31500003A9013850400EF00C021833784051309050050
S31500003AA0638A07008335840313850400E7800700D3
S31500003AB0634C05088357040193F70708639E0708BC
S31500003AC083350406638C05009307C4076386F500F7
S31500003AD013850400EF00406E233004068335040886
S31500003AE06388050013850400EF00006D2330040889
S31500003AF083308101231804000334010183348100DB
S31500003B001305090003390100130101026780000053
S31500003B1083308101033401011309000083348100DD
S31500003B201305090003390100130101026780000033
S31500003B3003B484006FF01FF5EFE0CF936FF05FF2F0
S31500003B4003B404016FF01FF4835704011309F0FF57
S31500003B5093F70708E38607F6833584011385040087
S31500003B60EF0080656FF0DFF503B484016FF09FF11D
S31500003B70130101FE233C11002338810023349100F8
S31500003B80233021016304050C83B4011013040500DE
S31500003B906386040083A70403638E070CB7570000EF
S31500003BA0938787EB6304F40CB7570000938707E805
S31500003BB06308F40CB7570000938787E46306F40E96
S31500003BC08317040163840708930504001385040022
S31500003BD0EF00000E8337840513090500638A07008A
S31500003BE08335840313850400E7800700634E0508C8
S31500003BF08357040193F707086390070A8335040681
S31500003C00638C05009307C4076386F50013850400DB
S31500003C10EF00805A233004068335040863880500C4
S31500003C2013850400EF0040592330040883308101D6
S31500003C3023180400033401018334810013050900AD
S31500003C4003390100130101026780000083308101FE
S31500003C5003340101130900008334810013050900B0
S31500003C6003390100130101026780000003B48400D8
S31500003C706FF01FF513850400EFD0DFFF6FF01FF222
S31500003C8003B404016FF0DFF3835704011309F0FF57
S31500003C9093F70708E38407F6833584011385040048
S31500003CA0EF0080516FF09FF503B484016FF05FF170
S31500003CB083970501130101FD23308102233431016D
S31500003CC023341102233C91002338210193F6870007
S31500003CD01384050093090500639C0610371700003E
S31500003CE01307078083A68500B3E7E7002398F5004E
S31500003CF06356D01803370405630C070C9397070324
S31500003D0093D70703B716000083A40900B3F6D700BC
S31500003D1023A0090083358403639806161306000062
S31500003D209306100013850900E70007009307F0FFCC
S31500003D3013060500630CF5188357040103370405C1
S31500003D408335840393F74700638E07008326840038
S31500003D50833704063306D640638607008327840725
S31500003D603306F6409306000013850900E7000700B6
S31500003D709307F0FF631EF51003A7090083170401DC
S31500003D80630807169306D0016306D7009306600101
S31500003D90631AD7168336840137F7FFFF1307F77FB9
S31500003DA0B3F7E7002318F400232404002330D400DB
S31500003DB08335040623A09900638C05009307C40786
S31500003DC06386F50013850900EF00003F23300406E3
S31500003DD0130500008330810203340102833481011C
S31500003DE00339010183398100130101036780000053
S31500003DF003B98501E30E09FC83B405001397070395
S31500003E00135707031377370023B02501BB842441DA
S31500003E10930700006314070083A705022326F40016
S31500003E20634890006FF0DFFA3309A900E35290FA75
S31500003E3083378404833584039386040013060900BC
S31500003E4013850900E7800700BB84A440E34EA0FC6D
S31500003E5083570401833081028334810193E7070489
S31500003E602318F40003340102033901018339810068
S31500003E701305F0FF130101036780000003A7850700
S31500003E80E34AE0E66FF0DFF4033684096FF09FEB58
S31500003E908357040137F7FFFF1307F77FB3F7E700F0
S31500003EA0833684019B9707019BD70741371700008C
S31500003EB02318F400232404002330D400B3F7E700CA
S31500003EC0E38807EE233CA4086FF09FEE83A7090062
S31500003ED0E38407E61307D0016386E7001307600152
S31500003EE0E398E7F623A09900130500006FF09FEE14
S31500003EF037F7FFFF1307F77F83368401B3F7E70031
S31500003F006FF0DFFA93E707042318F4001305F0FFB8
S31500003F106FF05FEC83B78501638E0708130101FE1E
S31500003F2023388100233C11001304050063060500B5
S31500003F308327050363800706B7570000938787EB3F
S31500003F406386F504B7570000938707E8638CF5048A
S31500003F50B7570000938787E4638AF50483970501C2
S31500003F60638C0700130504000334010183308101CB
S31500003F70130101026FF0DFD38330810103340101A5
S31500003F8013050000130101026780000083358400D9
S31500003F906FF0DFFC2334B100EFD0DFCD8335810035
S31500003FA06FF09FF9833504016FF05FFB8335840161
S31500003FB06FF0DFFA13050000678000006304050A4E
S31500003FC083378501130101FE23388100233C11004C
S31500003FD0130405006380070603B501106306050098
S31500003FE08327050363820706B7570000938787EB8D
S31500003FF0630CF402B7570000938707E8630CF406D6
S31500004000B7570000938787E4630AF4068317040111
S3150000401063820702930504000334010183308101A2
S31500004020130101026FF0DFC8033485008317040112
S31500004030E39207FE8330810103340101130500007A
S3150000404013010102678000002334A100EFD09FC254
S31500004050B7570000938787EB03358100E31CF4F81C
S315000040606FF09FFC03B5810DB7450000938545F1C0
S315000040706FE04F98033405016FF05FF90334850153
S315000040806FF0DFF8130101FD23343101B759000049
S3150000409023308102233C9100233821012330410142
S315000040A023341102138A050013090500938909FBBD
S315000040B0EFE01FFC03B70901B71700001384F7FDF3
S315000040C0833487003304444193F4C4FF33049400DB
S315000040D01354C4001304F4FF1314C400634EF40015
S315000040E09305000013050900EFF08FD083B709018F
S315000040F0B38797006308F50213050900EFE09FF701
S3150000410083308102033401028334810103390101C2
S3150000411083398100033A01001305000013010103EE
S3150000412067800000B305804013050900EFF04FCC0F
S315000041309307F0FF6308F5049387815503A70700EB
S3150000414083B60901B384844093E414003B0487409A
S315000041501305090023B4960023A08700EFE09FF122
S315000041608330810203340102833481010339010162
S3150000417083398100033A010013051000130101037E
S31500004180678000009305000013050900EFF04FC695
S3150000419003B709019306F001B307E540E3DEF6F441
S315000041A083B6811093E717002334F7003305D54013
S315000041B023ACA1546FF05FF4638E0512130101FE68
S315000041C023388100233491001384050093040500ED
S315000041D0233C1100EFE0DFE9033584FF130704FFFA
S315000041E0B75500009377E5FF3306F700938505FB87
S315000041F08336860003B8050193F6C6FF6300C81C24
S315000042002334D600137515003308D6006314050A47
S31500004210033304FF0338880037550000330767402F
S3150000422083380701130505FCB38767001378180068
S315000042306386A8140333870123BC6800233813015F
S315000042406308081E93E617002334D7002330F600D0
S315000042509306F01F63ECF60A93D737009B86170088
S315000042609B9616009396360003B88500B386D50054
S3150000427003B506001BD6274093071000B397C70067
S31500004280B3E70701138606FF233CC7002338A700C0
S3150000429023B4F50023B0E600233CE5000334010116
S315000042A083308101138504008334810013010102E8
S315000042B06FE05FDC0335880013751500631E050289
S315000042C037550000B387D700130505FC8336060172
S315000042D093E817003308F700638AA61603368601AB
S315000042E023BCC6002338D600233417012330F80038
S315000042F06FF01FF66780000093E61700233CD4FE9C
S315000043002330F6009306F01FE3F8F6F493D69700F1
S3150000431013064000636AD60E93D667001B85960384
S315000043201B1515001B868603131535003385A5005E
S3150000433083360500130505FF6308D51203B686000C
S315000043401376C6FF63F6C70083B60601E318D5FEEB
S3150000435003B58601233CA7002338D70003340101A7
S315000043602338E500833081011385040083348100FE
S3150000437023BCE600130101026FE0DFCF631A0814C5
S315000043808335860103360601B387F600033401013F
S31500004390233CB60023B8C50093E61700833081019D
S315000043A02334D700138504003307F70083348100D4
S315000043B02330F700130101026FE0DFCB1375150000
S315000043C0B387D70063100502033504FF3307A74000
S315000043D08336870103360701B387A700233CD6003F
S315000043E023B8C60013E6170083B601112334C700AD
S315000043F023B8E500E3E4D7EA83B581171385040003
S31500004400EFF05FC86FF09FE9130640016376D602AE
S31500004410130640056368D60693D6C7001B85F606C5
S315000044201B1515001B86E606131535006FF01FF0E9
S31500004430B387D7006FF09FE91B85C6051B151500CE
S315000044401B86B605131535006FF05FEE23B4E50243
S3150000445023B0E502233CA7002338A7002334170125
S315000044602330F8006FF09FE303B885001B56264003
S31500004470930710003396C7003366060123B4C500C0
S315000044806FF05FED13064015636ED60093D6F70006
S315000044901B8586071B1515001B8676071315350029
S315000044A06FF0DFE813064055636ED60093D62701FA
S315000044B01B85D6071B1515001B86C6071315350069
S315000044C06FF0DFE61305007F1306E0076FF01FE6C7
S315000044D093E617002334D7002330F6006FF01FDC75
S315000044E0130101FE13870500233881002334910050
S315000044F0930506001304050013860600130507003E
S31500004500233C110023A00118EF0090079307F0FF4A
S31500004510630CF5008330810103340101833481008B
S31500004520130101026780000083A70118E38407FED8
S31500004530833081012320F400033401018334810098
S31500004540130101026780000083D70501130101F6FC
S3150000455023388108233C110823349108233021098C
S31500004560233C31072338410713F72700138405003E
S31500004570630C07029387F50723B0F50023BCF5000B
S315000045809307100023A0F502833081090334010943
S31500004590833481080339010883398107033A010707
S315000045A01301010A67800000839525019304050025
S315000045B063CC050813068100EF00C0546344050868
S315000045C08329C100B7F7000037190000B3F9F900D5
S315000045D0B7270000B389F94093B919001309098078
S315000045E0130A00409305004013850400EFD0DFCD89
S315000045F083170401630E050637270000130747904B
S3150000460023B4E40493E707082318F4002330A40036
S31500004610233CA40023204403639A0908B367F900E6
S31500004620833081092318F400033401098334810897
S315000046300339010883398107033A01071301010A87
S31500004640678000008357040193F7070813090000E9
S31500004650638607049305000413850400EFD0DFC6C4
S3150000466083170401130A000493090000E31605F8F2
S3150000467013F70720E31A07F093F7C7FF93E727001E
S315000046801307F4072318F400930710002330E400FF
S31500004690233CE4002320F4026FF01FEF130A0040CE
S315000046A093090000930500406FF01FF48315240161
S315000046B013850400EF00404B6316050083170401C1
S315000046C06FF0DFF58357040193F7C7FF93E71700F1
S315000046D09B9707019BD707416FF05FF4130101F722
S315000046E0233081081384050083952501233C910618
S315000046F02338210723341108930406001389060082
S3150000470063CA050413068100EF00C03F6344050435
S315000047108327C10037F7000083308108B3F7E7002D
S3150000472037270000B387E7400334010893B7170023
S315000047302320F9009307004023B0F400371500004A
S315000047408334810703390107130505801301010925
S3150000475067800000831704012320090093F70708E8
S315000047606384070283308108033401089307000439
S3150000477023B0F400033901078334810713050000D1
S3150000478013010109678000008330810803340108A2
S315000047909307004023B0F4000339010783348107EF
S315000047A0130500001301010967800000130101FED3
S315000047B013870500233881002334910093050600F2
S315000047C0130405001386060013050700233C110099
S315000047D023A00118EF0000409307F0FF630CF500DB
S315000047E08330810103340101833481001301010206
S315000047F06780000083A70118E38407FE83308101E8
S315000048002320F400033401018334810013010102E3
S3150000481067800000130101FD2338210103B905005B
S3150000482023308102233C91002334110223343101C9
S315000048302330410113840500930405006302090433
S31500004840833909006388090203BA0900630E0A0066
S3150000485083350A0063840500EFF0DFFB93050A0049
S3150000486013850400EFF05F95938509001385040016
S31500004870EFF09F949305090013850400EFF0DF9392
S3150000488093050400033401028330810203390101D8
S3150000489083398100033A01001385040083348101C2
S315000048A0130101036FF05F9183B701106384A7249E
S315000048B083370504130101FB233C910223341104C1
S315000048C02330810423382103233431032330410369
S315000048D0233C5101233861012334710123308101C6
S315000048E093040500638A071C83B587016384050466
S315000048F01309000093090020B387250103B40700BC
S3150000490063000402930504000334040013850400C5
S31500004910EFF09F8AE31804FE83B7040483B587018A
S3150000492013098900E31A39FD13850400EFF0DF88C7
S3150000493083B7040483B507006380051C1385040050
S31500004940EFF09F8783B58402638605001385040014
S31500004950EFF09F8683B704046388070093850700FA
S3150000496013850400EFF05F8583B5040663860500B2
S3150000497013850400EFF05F8483B584066386050023
S3150000498013850400EFF05F8383B504076386050093
S3150000499013850400EFF05F8283B5840A6386050001
S315000049A013850400EFF05F8183B5040A6386050072
S315000049B013850400EFF05F8083B5840563860500E8
S315000049C013850400EFF04FFF83A70403638C070EE3
S315000049D083B7840413850400E780070003B4040842
S315000049E06302040E03390400630C090883390900C5
S315000049F06382090803BA090063080A06833A0A00B3
S31500004A00638E0A0403BB0A0063040B04833B0B009A
S31500004A10638A0B0203BC0B0063000C0283350C0097
S31500004A206386050013850400EFF0DFDE93050C00B6
S31500004A3013850400EFF04FF893850B0013850400EF
S31500004A40EFF08FF793050B0013850400EFF0CFF618
S31500004A5093850A0013850400EFF00FF693050A000C
S31500004A6013850400EFF04FF59385090013850400C4
S31500004A70EFF08FF49305090013850400EFF0CFF3F0
S31500004A8093050400033401048330810403390103D0
S31500004A9083398102033A0102833A8101033B010112
S31500004AA0833B8100033C01001385040083348103AA
S31500004AB0130101056FF04FF083358502E39805E891
S31500004AC06FF09FEA83308104033401048334810349
S31500004AD00339010383398102033A0102833A8101D2
S31500004AE0033B0101833B8100033C010013010105E7
S31500004AF0678000006780000083B58402E39805E4C0
S31500004B006FF0DFE5130101FE1387050023388100EE
S31500004B1023349100130405009305060013050700CE
S31500004B20233C110023A00118EF0080259307F0FF16
S31500004B30630CF50083308101033401018334810065
S31500004B40130101026780000083A70118E38407FEB2
S31500004B50833081012320F400033401018334810072
S31500004B601301010267800000130101FE2338810052
S31500004B70233491001304050013850500233C11001E
S31500004B8023A00118EF0000219307F0FF630CF50046
S31500004B908330810103340101833481001301010252
S31500004BA06780000083A70118E38407FE8330810134
S31500004BB02320F40003340101833481001301010230
S31500004BC067800000000000000000000000000000F8
S31500004BD073001000630E0608130101FD23308102E5
S31500004BE0233C910023382101233431012330410134
S31500004BF023341102930406001389050013040000F0
S31500004C009309A000130AD0006F00C000630E45018F
S31500004C10638E8402EF00401FB30789002380A7003C
S31500004C2013041400E31435FF8330810213050400D6
S31500004C300334010283348101033901018339810080
S31500004C40033A0100130101036780000083308102EB
S31500004C50033401020339010183398100033A01005B
S31500004C60138504008334810113010103678000006A
S31500004C70130500006780000083B6811993070500BD
S31500004C806386060203B70119630C070203B5811890
S31500004C9063040504B307F50063F6E70023B4F118CF
S31500004CA0678000001305F0FF678000001386015837
S31500004CB023BCC11803B7011993860158E31807FCF2
S31500004CC003B70120B7E5FFFF3307B70023B8E118A4
S31500004CD003B58118E31005FC23B4D118138506002B
S31500004CE06FF05FFB130101FD233431012334110200
S31500004CF023308102233C91002338210193090600C9
S31500004D0063020602138405003389C5009304A000DC
S31500004D10034504006308950213041400EF004008DD
S31500004D20E31824FF833081020334010283348101B6
S31500004D300339010113850900833981001301010339
S31500004D40678000001305D000EF00800513041400EF
S31500004D501305A000EF00C004E31C24FB833081028E
S31500004D6003340102833481010339010113850900EB
S31500004D7083398100130101036780000000000000F1
S31500004D8093078005138501182320F5001305F0FF0E
S31500004D906780000013051000678000000000000017
S31500004DA003B78114630E070283A7011A9305100047
S31500004DB0638EB70293062000638AD7008327870095
S31500004DC09B87070063C2070223A0D11A83274700E7
S31500004DD093F74700E38C07FE1B0505002320A70079
S31500004DE0130500006780000023A0B11A832747003F
S31500004DF093F70720E38207FE8327470093F70720F0
S31500004E00E39607FE6FF05FFD03B7811413050000FC
S31500004E10630C07008327470093F71700E38C07FE10
S31100004E20032507001375F50F67800000DE
S30900004E2C000000007C
S31500004E3054657374207072696E740000000000007F
S31500004E400A00000000000000000000000000000052
S31500004E50000000000000000000000000000000004C
S31500004E60000000000000000000000000000000003C
S31500004E70000000000000000000000000000000002C
S31500004E80000000000000000000000000000000001C
S31500004E90000000000000000000000000000000000C
S31500004EA000000000000000000000000000000000FC
S31500004EB000000000000000000000000000000000EC
S31500004EC000000000000000000000000000000000DC
S31500004ED000000000000000000000000000000000CC
S31500004EE000000000000000000000000000000000BC
S30D00004EF074030000000000003D
S30D00004EF8300300000000000079
S31500004F000000000000000000B84E00000000000095
S31500004F10804E000000000000484E00000000000027
S31500004F20000000000000000000000000000000007B
S31500004F30000000000000000000000000000000006B
S31500004F40000000000000000000000000000000005B
S31500004F50000000000000000000000000000000004B
S31500004F60000000000000000000000000000000003B
S31500004F70000000000000000000000000000000002B
S31500004F80000000000000000000000000000000001B
S31500004F90000000000000000000000000000000000B
S31500004FA000000000000000000000000000000000FB
S31500004FB000000000000000000000000000000000EB
S31500004FC0B04F000000000000B04F000000000000DD
S31500004FD0C04F000000000000C04F000000000000AD
S31500004FE0D04F000000000000D04F0000000000007D
S31500004FF0E04F000000000000E04F0000000000004D
S31500005000F04F000000000000F04F0000000000001C
S3150000501000500000000000000050000000000000EA
S3150000502010500000000000001050000000000000BA
S31500005030205000000000000020500000000000008A
S31500005040305000000000000030500000000000005A
S31500005050405000000000000040500000000000002A
S3150000506050500000000000005050000000000000FA
S3150000507060500000000000006050000000000000CA
S31500005080705000000000000070500000000000009A
S31500005090805000000000000080500000000000006A
S315000050A0905000000000000090500000000000003A
S315000050B0A050000000000000A0500000000000000A
S315000050C0B050000000000000B050000000000000DA
S315000050D0C050000000000000C050000000000000AA
S315000050E0D050000000000000D0500000000000007A
S315000050F0E050000000000000E0500000000000004A
S31500005100F050000000000000F05000000000000019
S3150000511000510000000000000051000000000000E7
S3150000512010510000000000001051000000000000B7
S315000051302051000000000000205100000000000087
S315000051403051000000000000305100000000000057
S315000051504051000000000000405100000000000027
S3150000516050510000000000005051000000000000F7
S3150000517060510000000000006051000000000000C7
S315000051807051000000000000705100000000000097
S315000051908051000000000000805100000000000067
S315000051A09051000000000000905100000000000037
S315000051B0A051000000000000A05100000000000007
S315000051C0B051000000000000B051000000000000D7
S315000051D0C051000000000000C051000000000000A7
S315000051E0D051000000000000D05100000000000077
S315000051F0E051000000000000E05100000000000047
S31500005200F051000000000000F05100000000000016
S3150000521000520000000000000052000000000000E4
S3150000522010520000000000001052000000000000B4
S315000052302052000000000000205200000000000084
S315000052403052000000000000305200000000000054
S315000052504052000000000000405200000000000024
S3150000526050520000000000005052000000000000F4
S3150000527060520000000000006052000000000000C4
S315000052807052000000000000705200000000000094
S315000052908052000000000000805200000000000064
S315000052A09052000000000000905200000000000034
S315000052B0A052000000000000A05200000000000004
S315000052C0B052000000000000B052000000000000D4
S315000052D0C052000000000000C052000000000000A4
S315000052E0D052000000000000D05200000000000074
S315000052F0E052000000000000E05200000000000044
S31500005300F052000000000000F05200000000000013
S3150000531000530000000000000053000000000000E1
S3150000532010530000000000001053000000000000B1
S315000053302053000000000000205300000000000081
S315000053403053000000000000305300000000000051
S315000053504053000000000000405300000000000021
S3150000536050530000000000005053000000000000F1
S3150000537060530000000000006053000000000000C1
S315000053807053000000000000705300000000000091
S315000053908053000000000000805300000000000061
S315000053A09053000000000000905300000000000031
S315000053B0A053000000000000A05300000000000001
S315000053C0B053000000000000B053000000000000D1
S315000053D0C053000000000000C053000000000000A1
S315000053E0D053000000000000D05300000000000071
S315000053F0E053000000000000E05300000000000041
S31500005400F053000000000000F05300000000000010
S3150000541000540000000000000054000000000000DE
S3150000542010540000000000001054000000000000AE
S31500005430205400000000000020540000000000007E
S31500005440305400000000000030540000000000004E
S31500005450405400000000000040540000000000001E
S3150000546050540000000000005054000000000000EE
S3150000547060540000000000006054000000000000BE
S31500005480705400000000000070540000000000008E
S31500005490805400000000000080540000000000005E
S315000054A0905400000000000090540000000000002E
S315000054B0A054000000000000A054000000000000FE
S315000054C0B054000000000000B054000000000000CE
S315000054D0C054000000000000C0540000000000009E
S315000054E0D054000000000000D0540000000000006E
S315000054F0E054000000000000E0540000000000003E
