S00B000072616D2E73726563D9
S3150000000097A10100938101C1970200009382821596
S3150000001073905230732440F163100402970200007B
S315000000209382421573905230EF70902E9702000023
S3150000003093824235E78002001313240097020000E2
S315000000409382420CB302530003A302000F00F00F89
S31500000050E31C03FE17DE0100130E4E8B93134400C0
S31500000060B30E7E00138F8E0083BF0E0003310F0088
S31500000070970200009382021073905230732540F16C
S31500000080E7800F00130000001300000013000000BB
S31500000090130000001300000013000000130000000E
S315000000A013000000130000001300000013000000FE
S315000000B013000000130000001300000013000000EE
S315000000C013000000130000001300000013000000DE
S315000000D013000000130000001300000013000000CE
S315000000E013000000130000001300000013000000BE
S315000000F013000000130000001300000013000000AE
S3150000010073001000730010007300100073001000DD
S3150000011073001000730010007300100073001000CD
S3150000012073001000730010007300100073001000BD
S3150000013073001000730010007300100073001000AD
S3150000014013132500970300009383C3FBB3027300C8
S315000001500F00500F2FA00208130500006780000053
S3150000016073001000130000001300000013000000CD
S3150000017073202034130101EF23301100233831009E
S31500000180233C41002330510223346102233871029B
S31500000190233C8102233091042334A1042338B10483
S315000001A0233CC1042330D1062334E1062338F1066B
S315000001B0233C01072330110923342109233831094F
S315000001C0233C41092330510B2334610B2338710B37
S315000001D0233C810B2330910D2334A10D2338B10D1F
S315000001E0233CC10D2330D10F2334E10F2338F10F07
S315000001F073250030F325103473262034233CA10EDA
S315000002002330B1102334C11063560600EF70501F1F
S315000002106F00C00093060100EF70101E83300100CE
S3150000022083310101033281018332010203338102EA
S3150000023083330103033481038334010403358104CA
S3150000024083350105033681058336010603378106AA
S31500000250833701070338810783380108033981088A
S3150000026083390109033A8109833A010A033B810A6A
S31500000270833B010B033C810B833C010C033D810C4A
S31500000280833D010D033E810D833E010E033F810F29
S31500000290833F011073100F3073901F34033F810E9C
S315000002A0833F010F1301011173002030000000008D
S315000002B00000000000000000000000000000000038
S315000002C00000000000000000000000000000000028
S315000002D00000000000000000000000000000000018
S315000002E00000000000000000000000000000000008
S315000002F000000000000000000000000000000000F8
S3150000030000000000000000000000000000000000E7
S3150000031000000000000000000000000000000000D7
S3150000032000000000000000000000000000000000C7
S3150000033000000000000000000000000000000000B7
S3150000034000000000000000000000000000000000A7
S31500000350130101FF23341100EF0050281785010017
S31500000360130545CEEF904067EF005029833081009A
S315000003701305000013010101678000000000000062
S31500000380EF700079130401009302000063900202EB
S31500000390179501001305051717D60100130606ACBD
S315000003A0B306A64093D53600EF708077938201AFEF
S315000003B023B08200EF70C078EF708075EF70D03197
S315000003C0EF709037EF70101E17A50000130505BDDE
S315000003D0EFF0506EEF909032EF000011938281970C
S315000003E003A50200979201009382420E83B5020094
S315000003F013060000EFF0DFF5EF9040577300100092
S31500000400000000000000000037950100379701004A
S315000004109307054113070741630AF7009307000096
S3150000042063860700130505416780070067800000A3
S31500000430379501009307054137970100930507415A
S31500000440B385F54093D7354093D5F503B385F500CD
S3150000045093D51540638A050093070000638607005D
S31500000460130505416780070067800000130101FF3F
S315000004702330810083C781AF2334110063940702C0
S31500000480EFF09FF893070000638A07003795010095
S315000004901305054F97000000E700000093071000C2
S315000004A0238CF1AE83308100033401001301010176
S315000004B067800000930700006386070237950100F6
S315000004C0130101FF938501B01305054F2334110075
S315000004D097000000E700000083308100130101014E
S315000004E06FF01FF56FF0DFF4B707801F93871720B3
S315000004F0939737001307300023A0E70067800000BA
S31500000500130101FF23308100130405003755040150
S3150000051023341100EF00101013051000EF00D01067
S315000005208327840093F707016396071683278400C1
S3150000053093F78700639A07148327840093F747008D
S31500000540638E07128327840093F7270063920712AE
S315000005508327840093F717006396071083274400C8
S3150000056093F78700638A070E8327440093F74700B3
S31500000570639E070C8327440093F727006392070CBA
S315000005808327440093F717006396070A1305200094
S31500000590EF009009930710002322F400032744007C
S315000005A06306F70013059000EF0050099307A005B6
S315000005B02328F4008327840093F79700E38C07FE33
S315000005C08327840093F7870063900706930710003C
S315000005D02324F40003278400930740006306F700F2
S315000005E01305B000EF0090050327C4009307F00F32
S315000005F06306F7001305C000EF0050042322040031
S3150000060003274400930780006306F7001305D00014
S31500000610EF00D0028330810003340100130500008F
S3150000062013010101678000001305A000EF0010010F
S315000006306FF0DFF913058000EF0050006FF01FF533
S3150000064013057000EF00807F6FF09FF313056000C5
S31500000650EF00C07E6FF01FF213055000EF00007E22
S315000006606FF09FF013054000EF00407D6FF01FEF25
S3150000067013053000EF00807C6FF09FED130520001E
S31500000680EF00C07B6FF01FEC13051000EF00007B3E
S315000006906FF09FEA13050000EF00407A6FF01FE944
S315000006A09797010083A707E69B8717001797010016
S315000006B0232AF7E467800000130101FE233491002A
S315000006C0930405001305400023388100233C1100E4
S315000006D0EF00807583A704001384040213D7470133
S315000006E01377F700630C070083A704001307600065
S315000006F09BD7470193F7F700637EF71AB707700792
S3150000070023A0F4028327440013971703634A0716AE
S315000007108327440013973703634E07168327440045
S3150000072013974703634207188327440093F707404C
S31500000730639C07128327440093F7072063900712F0
S315000007408327440093F7071063840710B7B6DE0BC0
S315000007509307E0FF232CF400130700009B8656D571
S3150000076013060002BB97E6002328F4008327440003
S3150000077093F70710E38C07FE1B078700E314C7FEF9
S3150000078083A7040013D7A700832744001377F70332
S315000007906316070A139737036356070AB71700004D
S315000007A02322F40083274400E3CE07FE8327440177
S315000007B08327440183274401832744018327440078
S315000007C093F707206398070A930630001307000083
S315000007D0232804008327440093F70720E38C07FEB1
S315000007E0832744011B1787009B86F6FF9BD70701CB
S315000007F093F7F70FB3E7E7001B870700E39A06FCBA
S31500000800B7B7DE00938747D56306F7001305A00048
S31500000810EF00C0629307F0FF232CF40023A004022C
S31500000820833081012322F4000334010183348100E3
S3150000083013050000130101026780000013973703B8
S31500000840E35E07F413058000EF00405F6FF01FF5CD
S3150000085013057000EF00805E6FF05FEF1305600018
S31500000860EF00C05D6FF0DFED13055000EF00005D97
S315000008706FF05FEC13059000EF00405C6FF0DFF463
S3150000088013052000EF00805B83274400139737038E
S31500000890E35607E813053000EF00405A832744006B
S315000008A013974703E35207E813054000EF0000598A
S315000008B06FF09FE713051000EF0040586FF01FE43C
S315000008C0130101FC23302103130905001305500011
S315000008D0233C11022338810223349102233C310147
S315000008E093840500EF0040541306C10097050000ED
S315000008F0938545DB1385040023260100EF70C010A5
S315000009001304090293090500630A051213850400FE
S31500000910EF704041930710006304F50E83274400EF
S31500000920639E070AB70730432320F9029307002086
S315000009302324F4009797010083A7C7BC639A07088E
S315000009402328040083274400E3CE07FE83274400C0
S3150000095093F707206380070A832744019B870700D4
S315000009602324F1008327440093F70720639E07069C
S3150000097017970100032707B9930710006306F700CE
S3150000098013056000EF00804B232404002320090296
S3150000099013850900EF70C01393072000630AF5085A
S315000009A013850400EF70003193071000630EF50401
S315000009B08330810303340103833481020339010246
S315000009C083398101130500001301010467800000CB
S315000009D013053000EF0080466FF09FF613052000E8
S315000009E0EF00C0456FF01FF413055000EF000045FF
S315000009F06FF01FF813054000EF0040446FF0DFF57D
S31500000A00EF00C0436FF09FF113058000EF00004335
S31500000A1083308103033401038334810203390102E5
S31500000A20833981011305000013010104678000006A
S31500000A3013057000EF0080406FF09FF6EF00004056
S31500000A406FF0DFEC130101FB23343103930905003A
S31500000A5037D5020123308104233041032338610155
S31500000A6023341104233C910223382103233C5101F2
S31500000A702334710123308101138B0500EF00803987
S31500000A8003AA0900138409021B5A4A019377FA0044
S31500000A90138A0700638A071A9B8717001309F0FF5A
S31500000AA0130510003B19F900EF00003883A709026F
S31500000AB01349F9FF930AF0001B090900BB8A4A4152
S31500000AC06390071A832744006394071A83278400D8
S31500000AD06398071A8327C400639C071A83270401B7
S31500000AE06390071C13052000EF000034131A4A0117
S31500000AF0B7070043B367FA0003AC090023A0F90265
S31500000B00832744001B5C8C00137CFC0F1397170390
S31500000B10634A072A8327440013973703634E07283F
S31500000B20832744001397470363420728832744001B
S31500000B3093F70740639607268327440093F7072019
S31500000B40639A07248327440093F70710638E0722CE
S31500000B50B7B4AAAA9384A4AA930700001B8704002B
S31500000B602328E4009B87170093C4F4FFE358FCFE98
S31500000B708327440093F707406392072083274400A6
S31500000B8093F70710E38C07FE8327440093F70720AB
S31500000B906380071E9B84040023289400B707400047
S31500000BA02326F4003747000083274400B3F7E70005
S31500000BB093961703E3DA06FE832744001397370359
S31500000BC06352071AB7BBAAAA938BABAA9304000079
S31500000BD003274401B3777901BB9757011B85E400CE
S31500000BE06384E700EF0080259B84140093CBFBFF12
S31500000BF0E3509CFE9307F0FF23A009022322F40092
S31500000C00930720006306FB1C83A709001397D702EE
S31500000C10634E07088330810403340104833481035F
S31500000C200339010383398102033A0102833A8101C0
S31500000C30033B0101833B8100033C010013050000D7
S31500000C40130101056780000013051000EF00C01DA9
S31500000C5083A70902930A00001309F0FFE38407E65D
S31500000C6013050000EF00801D83274400E38007E69C
S31500000C7013051000EF00801C83278400E38C07E433
S31500000C8013052000EF00801B8327C400E38807E4D8
S31500000C9013053000EF00801A83270401E38407E47C
S31500000CA013054000EF0080196FF0DFE313053000F5
S31500000CB0EF008017B72700C3336AFA0037F7ADDEB7
S31500000CC023A049031307D700B717522123A0E92011
S31500000CD0938727FF23A2F9201307300023A8E904EE
S31500000CE023AA090423AC090423AE09042322E4023F
S31500000CF09307200093840905138B09202320F4020F
S31500000D008327440093F70720E38C07FEB7F7ADDE91
S31500000D109387D70003270B20B377F900BB975701BA
S31500000D206386E7001305FC00EF004011B717522158
S31500000D30938727FF03274B203379F9003B19590185
S31500000D406306E90013050C01EF00400F232004029F
S31500000D508327040293F72700E39C07FE23A00902DA
S31500000D606FF05FEB1305D000EF00400D6FF09FE5CD
S31500000D701305C000EF00800C6FF0DFE11305B00033
S31500000D80EF00C00B6FF09FDF1305A000EF00000B14
S31500000D906FF01FDC13059000EF00400A6FF09FDA3A
S31500000DA013058000EF0080096FF01FD9130570004E
S31500000DB0EF00C0086FF09FD713056000EF00000832
S31500000DC06FF01FD613055000EF0040076FF09FD459
S31500000DD013850900EFF05F8E6FF01FE3F32740F1F4
S31500000DE0639A07009787010083B7C76D1307100042
S31500000DF023A8E7001305000067800000978701001D
S31500000E0083B7476C1307100023AAE70013050000F9
S31500000E10678000009787010083B7C76A23A0A700F1
S31500000E2013050000678000009787010083B7876974
S31500000E3023A4A70013050000678000009787010020
S31500000E4083B7476823A2A700130500006780000048
S31500000E509787010083B7076723ACA7006780000068
S31500000E609787010083B707661307100023AEE700D4
S31500000E7067800000130101F823388106130405007A
S31500000E8037B50401233C110623349106233021078C
S31500000E9093840500233C310523306105233C71030F
S31500000EA02334910323345105233881032330A103CE
S31500000EB0EFF05FF6B70700013304F400138B0191DE
S31500000EC0938981901305000023B0890023309B008D
S31500000ED0EFF09FF503350B00978C0100938C8C6324
S31500000EE0178901001309C962EF60401A93070500CC
S31500000EF01305100023A0FC00EFF01FF303350B00D1
S31500000F00978B0100938B8B60EF604017930705006A
S31500000F1003350B009B97A7002320F900EF6000180C
S31500000F209307050003A50C0023A0FB00EFF05FF27A
S31500000F30832709001BD5F7411B5565013B05F500C5
S31500000F401B55A540EFF0DFF003A50B00EFF05FF0B7
S31500000F5013052000EFF05FED13053000EFF0DFEC36
S31500000F6083AF0C00635CF009032F090083B5090009
S31500000F70B72800009B030F001B8305001306000023
S31500000F80130E00009B02CFFF938818003307B600AC
S31500000F909346F3FFB30EE601BB8762002320D7001A
S31500000FA093C7F7FF3387D501232EF7FE93060F006D
S31500000FB01BD7F6013B07D7001B5717409B07C7FFF8
S31500000FC013850600B387C7009B060700B387F500A5
S31500000FD03387C6003387E50013C8F7FF23A0070150
S31500000FE09347F7FF2320F700E3C4A8FC1B0E1E005F
S31500000FF03B03730013860E00E31AFEF91305400047
S31500001000EFF09FE283A70C00372C0000130D0010B1
S31500001010930A0000130C1C006356F0142338410594
S315000010208327090003B8090003370B00BB85570364
S315000010301BD6F74183A60B001B5666013B06F6003E
S315000010401B56A64013058100BB05B800EF6040792A
S3150000105083278100638A07448327090083B5090033
S3150000106003370B003B8857031BD6F7419B88C7FF06
S3150000107083A60B001B5666013B06F6001B56A640D0
S315000010801305810033081801BB850501EF60407523
S315000010908327810063840740032509001B0A3D005E
S315000010A093040500BB85AA029BD7F401BB87970072
S315000010B01BD4174003B809001B56F5419B08C4FF13
S315000010C003370B0083A60B001B5666013B06A600E2
S315000010D0B38515011B56A640BB05B8001305810054
S315000010E0EF600070832781006384073A03250900B7
S315000010F083B5090003370B00BB87AA021B56F541CF
S3150000110083A60B001B5666013B06A6001B56A6408F
S3150000111013058100B3878700BB85F500EF60406C3F
S3150000112083278100638C0700032509001B0A2A0018
S3150000113063509C02930404006FF0DFF613050A0067
S31500001140EFF0DFCF032509001B0A2A00E3449CFECB
S3150000115083A70C009B8A1A001B0D0D01E3C2FAEC53
S31500001160033A01058327090003B709001305500058
S315000011709B972700B307F70013C7F7FF23A0E700E5
S31500001180EFF09FCA8327090003370B0083A60B00E5
S315000011901BD6F74183A509001B5666013B06F600E0
S315000011A01B56A64013058100EF60806383278100EC
S315000011B0639C073213041000930450008327090030
S315000011C003B8090003370B00BB05F4021BD6F74131
S315000011D083A60B001B5666013B06F6001B56A6406F
S315000011E013058100BB05B800EF60805F832781008F
S315000011F06386072E1B041400E31294FC130560009B
S31500001200EFF09FC283A70C0003B60900032709006D
S315000012106354F00E1304301893040000BB85E402F7
S315000012201B05D4FFB307B60083A6070093C7F7FFD5
S315000012309B870700638AF600EFF05FC0032709006B
S3150000124003B60900BB85E4029B57F701BB87E7009D
S315000012509BD717409B86C7FFB386B600B306D6005A
S3150000126003A8060093C6F6FF9B8606001B05E4FF4F
S315000012706300D802EFF09FBC0327090003B60900FC
S31500001280BB85E4029B57F701BB87E7009BD7174056
S31500001290B387B700B307F60083A6070093C7F7FF27
S315000012A09B8707001B05F4FF638AF600EFF01FB962
S315000012B00327090003B60900BB85E4029B07C7FFA5
S315000012C0B387B700B307F60083A6070093C7F7FFF7
S315000012D09B870700130504006388F61EEFF01FB610
S315000012E083A70C009B84140003B60900032709009A
S315000012F01B040401E3C4F4F2BB87E7023306F600DD
S31500001300032706001346F6FF9B0706006306F70051
S315000013101305001CEFF09FB213057000EFF0DFB06D
S3150000132083350B0013051000EF50905B130560002A
S31500001330EFF09FAF83A70C0003B60900032709004F
S315000013406354F00E1304301B93040000BB85E402C3
S315000013501B05D4FFB307B60083A6070093C7F7FFA4
S315000013609B870700638AF600EFF05FAD032709004D
S3150000137003B60900BB85E4029B57F701BB87E7006C
S315000013809BD717409B86C7FFB386B600B306D60029
S3150000139003A8060093C6F6FF9B8606001B05E4FF1E
S315000013A06300D802EFF09FA90327090003B60900DE
S315000013B0BB85E4029B57F701BB87E7009BD7174025
S315000013C0B387B700B307F60083A6070093C7F7FFF6
S315000013D09B8707001B05F4FF638AF600EFF01FA644
S315000013E00327090003B60900BB85E4029B07C7FF74
S315000013F0B387B700B307F60083A6070093C7F7FFC6
S315000014009B870700130504006386F60AEFF01FA307
S3150000141083A70C009B84140003B609000327090068
S315000014201B040401E3C4F4F29B1727003306F600FD
S31500001430032706001346F6FF9B0706006306F70020
S315000014401305F01FEFF09F9F03350B00EF50503848
S315000014501305800CEFF05F9D83308107033401078D
S31500001460833481060339010683398105833A810471
S31500001470033B0104833B8103033C0103833C81025C
S31500001480033D0102130500001301010867800000F7
S315000014901B05FAFFEFF09F9A6FF05FC51B051D0055
S315000014A0EFF0DF996FF05FBF13050D00EFF01F99A6
S315000014B06FF09FBA83A70C009B8414001B040401E1
S315000014C0E3C6F4E86FF05FF683A70C009B84140074
S315000014D01B040401E3C4F4D46FF01FE21B050414DB
S315000014E0EFF0DF956FF01FD11B850A14EFF01F9503
S315000014F06FF05FCC130101FF233081001304050058
S315000015003785020123341100EFF0DF901305100038
S31500001510EFF09F9103270400B70701009387F7FFB9
S315000015206306F70013050000EFF05F918327440080
S31500001530639E071283278400639407128327C400DF
S31500001540639A071013052000EFF01F8E93073000F3
S315000015502320F400930700082322F400130500005B
S315000015609306500017770100130707CE1306600095
S3150000157063E4A60893172500B387E70083A707004F
S31500001580B387E70067800700232404009307000160
S315000015902326F4008327C40093F72700E39C07FE65
S315000015A08327C40093F707086398070C8327C400B2
S315000015B093F707026392070E1B051500E31AC5FA97
S315000015C0930780062326F4008327C40093F7270099
S315000015D0E39C07FE0327840093075005631CF7046A
S315000015E08330810023220400033401001305000028
S315000015F013010101678000009307000A2324F40009
S31500001600930700092326F4006FF0DFF89307100A0A
S315000016102324F400930700092326F4006FF09FF7B4
S31500001620930750052324F400930700052326F400AE
S315000016306FF05FF61305F000EFF05F8083308100F6
S3150000164023220400033401001305000013010101E5
S315000016506780000013053000EFF04FFE6FF09FEE3D
S3150000166013052000EFF08FFD6FF05FED13051000FE
S31500001670EFF0CFFC6FF01FEC1B054500EFF00FFC01
S315000016808330810023220400033401001305000087
S3150000169013010101678000001B059500EFF00FFAAA
S315000016A08330810023220400033401001305000067
S315000016B01301010167800000130101FC2338810238
S315000016C01304050037E50301233C1102233491027C
S315000016D02330210393840500233C31012338410143
S315000016E02334510123306101EFF0CFF213052000BE
S315000016F0EFF08FF39307300323A0F40023A6040032
S3150000170023AA04009307D00123A2F4009307A000A4
S315000017102320F400930700082322F40093076006B1
S315000017202324F400930700092326F4001305000080
S31500001730EFF00FF20325C400EFF08FF18327C4000A
S3150000174093F72700E39C07FE13050000EFF04FF028
S315000017508327C40093F707086394071A8327C400F6
S3150000176093F707026398071813090000930A2000ED
S31500001770130AF00F930930001B0B090023246401A0
S3150000178093070001630C59132326F40083A78400F2
S3150000179093F74700E38C07FE23A4440183A70401C3
S315000017A0638667011B052B00EFF04FE98327C40012
S315000017B093F72700E39C07FE8327C40093F70708E7
S315000017C0639807101B091900E31839FB9307700685
S315000017D02324F400930700092326F4000329C400F8
S315000017E013792900E31C09FE8327C40093F7070831
S315000017F0639C070E93091000130A2000930700024A
S31500001800630049072326F4008327C40093F72700C3
S31500001810E39C07FE83A7840093F7270063860704EB
S31500001820630A490523AA340183A7440093E74700C6
S3150000183023A2F40083A784009B87070023A4F40057
S3150000184083278400638027091B05F900EFF00FDF6B
S315000018501B0919009B89190093070002E31449FB31
S31500001860930780066FF01FFA1B05C900EFF00FDD26
S31500001870E31A49FB83A784009B87070023A4F4008F
S3150000188083278400639C270523A2040083308103F9
S315000018902322040003340103833481020339010245
S315000018A083398101033A0101833A8100033B010038
S315000018B0130500001301010467800000930700056B
S315000018C06FF09FEC1B0919009B8919006FF01FF33D
S315000018D01B055B00EFF08FD66FF0DFEE13051001EE
S315000018E0EFF0CFD56FF05FFA1305B000EFF00FD52C
S315000018F06FF05FF013051000EFF04FD46FF0DFE6E6
S3150000190013050000EFF08FD36FF05FE583274501E5
S315000019101307050093F737006398070483278501AB
S315000019201305200093F7C700639E0702832707016C
S315000019301305300093F7070263960702930710001A
S31500001940232AF7006F00800063940702832787012C
S3150000195093F647009B87070093F78700E39606FEFA
S315000019601305400067800000130510006780000023
S315000019709307C000232CF7001305000067800000C2
S31500001980032745019307050013773700631A0702FB
S3150000199003278501130520001377C7006314070288
S315000019A003A707011305300013770702631C07001E
S315000019B01307100023AAE700130500006780000044
S315000019C013051000678000008327850113F7470081
S315000019D09B87070093F78700630C0700E38607FEE3
S315000019E09307C000232CF500130500006780000054
S315000019F013054000678000008327050193E707026F
S31500001A002328F5009307F0FF2324F50EB70700807F
S31500001A10B3E5F5002320B50C8327050CE3CE07FEBE
S31500001A202324050E8327050193F7F7FD2328F500E8
S31500001A30678000008327050193E707022328F50046
S31500001A409307F0FF2326F50EB7070080B3E5F500F0
S31500001A502320B50C8327050CE3CE07FE2326050EAF
S31500001A608327050193F7F7FD2328F500678000001B
S31500001A708327050093F7F70F13D747006300070C7A
S31500001A8093F7F70023200504138717006388070AD6
S31500001A9023220504930720006302F70A2324050482
S31500001AA093073000630CF7082326050493074000CC
S31500001AB06306F70823280504930750006300F70818
S31500001AC0232A050493076000630AF706232C0504FE
S31500001AD0930770006304F706232E0504930780001E
S31500001AE0630EF70423200506930790006308F704A6
S31500001AF0232205069307A0006302F70423240506A4
S31500001B009307B000630CF702232605069307C0006F
S31500001B106306F702232805069307D0006300F70241
S31500001B20232A05069307E000630AF700232C05061F
S31500001B30930700016314F700232E05069307300070
S31500001B402320F508930710002328F500678000007E
S31500001B508327050093F7F70F13D747006300070C99
S31500001B6093F7F70023200504138717006388070AF5
S31500001B7023220504930720006302F70A23240504A1
S31500001B8093073000630CF7082326050493074000EB
S31500001B906306F70823280504930750006300F70837
S31500001BA0232A050493076000630AF706232C05041D
S31500001BB0930770006304F706232E0504930780003D
S31500001BC0630EF70423200506930790006308F704C5
S31500001BD0232205069307A0006302F70423240506C3
S31500001BE09307B000630CF702232605069307C0008F
S31500001BF06306F702232805069307D0006300F70261
S31500001C00232A05069307E000630AF700232C05063E
S31500001C10930700016314F700232E05062320050809
S31500001C20930710002328F50067800000130101F8D0
S31500001C30233CB101930D050037F50401233C110641
S31500001C40233C3105233881062334910623302107AE
S31500001C50233841052334510523306105233C7103A4
S31500001C602338810323349103EFF0CF9A1305100034
S31500001C70EFF08F9B83A90D0003A74D0003A78D00EE
S31500001C8023A80D0083A60D013707FFFF1307F7FFF3
S31500001C90B3F6E6009B890900E38006069B8A0900E5
S31500001CA0E3C4095483A60D0133F7E600E314075491
S31500001CB0B7840000B3F49900E392045A1307800036
S31500001CC023A8ED0003A70D013744004033F4890033
S31500001CD013778700631A047A631A077A13070001D9
S31500001CE023A8ED00370700A033F7E900B70600A0E8
S31500001CF0630ED77A37A7000033F7E900B7A60000CE
S31500001D006306D77A03A70D01137707016316077ACF
S31500001D101307000223A8ED0003A70D01137707029E
S31500001D206312045C6312075C1307000423A8ED002A
S31500001D3003A70D01137707046306075C1307000862
S31500001D4023A8ED0003A70D0113770708630A075CB4
S31500001D50930600303787008023A8DD0033F7E900BB
S31500001D60631E075C03A70D0113770730631E075C2C
S31500001D701307004023A8ED00139719036342075E7B
S31500001D8003A70D01137707406306070013059000AC
S31500001D90EFF0CF8A37F7000023A8ED0003A70D0167
S31500001DA09356C70093F6F6006394065E3707020063
S31500001DB023A8ED0013F709106318075E03A70D01AA
S31500001DC09316E70263C8065E37071C0023A8ED00DA
S31500001DD093F63901639C065E03A70D01935627010E
S31500001DE093F67600639C065E23A80D001307100089
S31500001DF023AEED0003A7CD0113771700630007603C
S31500001E001307200023AEED0003A7CD0113772700AB
S31500001E10630407601307400023AEED0003A7CD015E
S31500001E201377470063180460630607001305F00084
S31500001E30EFF0CF801307800023AEED0003A7CD019E
S31500001E4013778700631807601307000223AEED00BF
S31500001E5003A7CD01370A060033FA490113770702B3
S31500001E60631C0A60631C07601BD749001377F700E1
S31500001E7013091700630E07249B0BF9FF23A07D05AA
S31500001E8003A70D0413F4F900138B0B001317470374
S31500001E9013574703130414006386EB001305200150
S31500001EA0EFE0DFF923A00D04130710006302E4221C
S31500001EB023A26D0503A74D041317470313574703C2
S31500001EC06386EB0013053001EFE05FF723A20D04F4
S31500001ED013072000630EE41E23A46D0503A78D04DB
S31500001EE013174703135747036386EB001305400197
S31500001EF0EFE0DFF423A40D0413073000630AE41CAB
S31500001F0023A66D0503A7CD041317470313574703ED
S31500001F106386EB0013055001EFE05FF223A60D0484
S31500001F20130740006306E41A23A86D0503A70D05F1
S31500001F3013174703135747036386EB001305600126
S31500001F40EFE0DFEF23A80D04130750006302E41847
S31500001F5023AA6D0503A74D05131747031357470318
S31500001F60E390EB2A23AA0D04130760006302E4162C
S31500001F7023AC6D0503A78D051317470313574703B6
S31500001F80E396EB2823AC0D04130770006302E414F8
S31500001F9023AE6D0503A7CD05131747031357470354
S31500001FA0E39CEB2623AE0D04130780006302E412C4
S31500001FB023A06D0703A70D061317470313574703FF
S31500001FC0E396EB2623A00D06130790006302E410A8
S31500001FD023A26D0703A74D0613174703135747039D
S31500001FE0E39CEB2423A20D061307A0006302E40E74
S31500001FF023A46D0703A78D0613174703135747033B
S31500002000E392EB2423A40D061307B0006302E40C4D
S3150000201023A66D0703A7CD061317470313574703D8
S315000020206386EB001305D001EFE05FE123A60D0602
S315000020301307C000630EE40823A86D0703A70D0766
S3150000204013174703135747036386EB001305E00195
S31500002050EFE0DFDE23A80D061307D000630AE406CF
S3150000206023AA6D0703A74D07131747031357470303
S315000020706386EB001305F001EFE05FDC23AA0D0693
S315000020801307E0006306E40423AC6D0703A78D077E
S3150000209013174703135747036386EB001305000224
S315000020A0EFE0DFD923AC0D06130700016312E4024B
S315000020B023AE6D0703A7CD0713174703135747032F
S315000020C06306770113051002EFE05FD723AE0D0616
S315000020D01B09090063920444E3C80A20130C50024A
S315000020E0930A1000130B2000B78BFFFF6F0000014F
S315000020F09B8414001B0C5C0063069906139704026C
S315000021001354E70133848D00232054090327040860
S3150000211013771700630C073C0327040863F6EA00ED
S315000021201B05DCFFEFE09FD1232064090327040889
S3150000213013772700E31607062320740903270408EC
S31500002140E31A07042320040803270408E30207FA16
S3150000215013050C009B841400EFE05FCE1B0C5C00A3
S31500002160E31E99F81304F0FF23A48D0E03A78D0E2A
S31500002170631A0A346306070013051007EFE01FCC45
S3150000218023A40D0E23A68D0E03A7CD0E631A0734C6
S3150000219013D749011BD9490123A60D0E1377F70062
S315000021A01379F900930C6007930400006300070E8F
S315000021B0370C0400B70B0400370B0200B70A020005
S315000021C0370A0100B70901006F004004232064119B
S315000021D003270410337757019316E70263D60606E2
S315000021E02320441103270410337737019316F7028F
S315000021F063DA06062320041003270410631E07066D
S315000022009B8414009B8C4C0063F2240913970402F0
S315000022101354E70133848D0023208411032704100F
S31500002220337777019316D702E3C206FA1B85DCFFE4
S31500002230EFE0DFC023206411032704103377570132
S315000022409316E702E3CE06F81B85ECFFEFE01FBF0F
S315000022502320441103270410337737019316F7021E
S31500002260E3CA06F81B85FCFFEFE05FBD23200410E0
S3150000227003270410E30607F813850C009B8414005B
S31500002280EFE0DFBB9B8C4C00E3E224F903A70D00D3
S315000022909316170263C8064203A70D00935617014B
S315000022A093F63600639C06308330810703340107BA
S315000022B0833481060339010683398105033A010512
S315000022C0833A8104033B0104833B8103033C0103FE
S315000022D0833C8102833D810113050000130101083F
S315000022E067800000E31207A413055000EFE01FB556
S315000022F01307000423A8ED0003A70D0113770704B5
S31500002300E31E07A213056000EFE05FB313070008A2
S3150000231023A8ED0003A70D0113770708E31A07A208
S3150000232013057000EFE09FB19306003037870080F9
S3150000233023A8DD0033F7E900E30607A203A70D0192
S3150000234013770730E306D7A213058000EFE01FAF2F
S315000023501307004023A8ED0013971903E35207A2C1
S3150000236003A70D01137707406316070013059000B6
S31500002370EFE0DFAC37F7000023A8ED0003A70D015F
S3150000238037F60000B7F600003377C700E300D7A2A0
S315000023901305A000EFE09FAA3707020023A8ED006F
S315000023A013F70910E30C07A003A70D019316E70224
S315000023B0E3CC06A01305B000EFE05FA837071C00CA
S315000023C023A8ED0093F63901E38806A083A60D0144
S315000023D037061C00B3F6C600E388E6A01305C00066
S315000023E0EFE0DFA51307100023A80D0023AEED00D4
S315000023F003A7CD0113771700E31407A01305D00038
S31500002400EFE0DFA31307200023AEED0003A7CD0105
S3150000241013772700E31007A01305E000EFE01FA2E3
S315000024201307400023AEED0003A7CD011377470045
S31500002430E30C049E631607001305F000EFE01FA0EF
S315000024401307800023AEED0003A7CD0113778700A5
S31500002450E31C079E13050001EFE05F9E13070002D1
S3150000246023AEED0003A7CD01370A060033FA490172
S3150000247013770702E3080A9EE318079E1305100167
S31500002480EFE0DF9B6FF05F9EE31A078413053000D1
S31500002490EFE0DF9A1307000123A8ED00370700A03D
S315000024A033F7E900B70600A0E316D78403A70D01AA
S315000024B013770701E31E078413054000EFE01F981A
S315000024C06FF01F856316070013051007EFE01F97CF
S315000024D023A40D0E23A68D0E03A7CD0EE31A07CA5D
S315000024E013052007EFE09F956FF09FCA1B05CCFFF1
S315000024F0EFE0DF946FF05FC283A60D01B7840000A2
S315000025009B8A090033F7E600B3F49900631807FACB
S3150000251063C60AFA6FF0CFF9130C50029304000059
S31500002520930A1000930B2000378BFFFF6F0000010A
S315000025309B8414001B0C5C00E38624C313970402DF
S315000025401354E70133848D0023205409032704081C
S3150000255013771700630807040327040863F6EA00E5
S315000025601B05DCFFEFE09F8D232074090327040879
S3150000257013772700630E0702232064090327040844
S31500002580630667011B05FCFFEFE05F8B2320040851
S3150000259003270408E30E07F813050C00EFE01F8A73
S315000025A06FF01FF91B05CCFFEFE05F896FF0DFFAD4
S315000025B01B05ECFFEFE09F886FF01FFC1305400042
S315000025C0EFE09F8603A70D00634E074403A78D0027
S315000025D09B56570093F676009B548700930C100089
S315000025E01B872600BB9CEC0093F4F40F93FCFC0FB6
S315000025F09384740093D43400130700029B870C0065
S3150000260023A8ED00B38494012334F100930B00005A
S31500002610130C00006384040A2330A103370B00C0A7
S31500002620B70A3000130A1000370D0080B7092000E2
S315000026303709100023A06D0D03A70D0C9B0607009C
S31500002640E34C07FEB3F6560113D74601137737005E
S31500002650631E073463F49B373B178A0123A4ED0EF0
S3150000266023A0AD0D03A70D0CE34E07FE23A06D0DB1
S3150000267003A70D0C1B040700E34C07FE3377340158
S315000026801B07070063E29B3F631207423374240172
S315000026901317B402635E073223A60D0E23A0AD0DF9
S315000026A003A70D0CE34E07FE9B8B1B0013FCFB0FD1
S315000026B0930B0C00E3409CF8033D010223A80D0098
S315000026C06FF09FBE130520002330A103EFE0CFF586
S315000026D003A74D0113773700631A074A03A78D0135
S315000026E01377C7006314074C03A70D01137707027E
S315000026F06312074C1307100023AAED006F00800039
S315000027006310074A03A78D01937647001B0707004E
S3150000271013778700E39606FE13054000EFE00FF2FD
S3150000272013053000EFE04FF003A74D0093061000AD
S31500002730930540001B56570013767600BB94E600BF
S31500002740BB96C6001B578700138A040013FDF60FBD
S31500002750137BF70F63F49500130A4000130700027A
S3150000276023A8ED0003A78D01137707016304074231
S3150000277013040000638A0420130910009309200043
S31500002780930A3000930B4000130C5000930C60002A
S315000027909307700093041000137714009B05F7FF4E
S315000027A023A2BD0C9376F40F3B07E040630C2D0388
S315000027B023A4ED0C63083D0323A6BD0C63045D034F
S315000027C023A8ED0C63007D0323AABD0C630C8D01C9
S315000027D023ACED0C63089D0123AEBD0C6304FD0024
S315000027E023A0ED0E3BF76603B7060080B366D40060
S315000027F03B97E40023A2ED0E23A0DD0C03A70D0CEE
S315000028009B060700E34C07FE13D7460113773700F4
S315000028106314072C1B041400E36044F9930A900028
S3150000282013090000B70C00C0370C3000336799015C
S315000028301B0707009379F90F23A0ED0C03A70D0CD6
S315000028409B060700E34C07FEB3F6860113D7460145
S3150000285013F41900137737009B04F4FF6318072657
S3150000286003A74D0C9B8BFAFF6386E40013850B00D0
S31500002870EFE0CFDC930710003B0480406302FD0AC3
S3150000288003A78D0C6306870013850B00EFE00FDBB3
S31500002890930720006306FD0803A7CD0C6386E400BA
S315000028A013850B00EFE08FD993073000630AFD060E
S315000028B003A70D0D6306870013850B00EFE00FD805
S315000028C093074000630EFD0403A74D0D63069700B2
S315000028D013850B00EFE08FD6930750006302FD04CB
S315000028E003A78D0D6306870013850B00EFE00FD558
S315000028F0930760006306FD0203A7CD0D63069700EC
S3150000290013850B00EFE08FD313077000630AED0009
S3150000291003A70D0E6306870013850B00EFE00FD2A9
S31500002920BBF9690383A64D0E130710003B17370149
S315000029306306D70013850A00EFE04FD01B09190084
S315000029409B8A3A00E36449EF1304000037090080CC
S31500002950B70430003367240123A20D0E1B070700BE
S3150000296023A0ED0C03A70D0C9B060700E34C07FE06
S31500002970B3F6960013D74601137737006312071490
S315000029801B041400E36844FD033D010223A80D0067
S315000029906FF09F901B05FCFFEFE04FCA6FF08FFAB8
S315000029A01B05ECFFEFE08FC96FF00FF913152C0034
S315000029B033058501EFE08FC8E3E09BCB83378100C9
S315000029C03B07FC403B17EA0023A6ED0E6FF05FC9FC
S315000029D01B152C003B0585011B054500EFE00FC6C6
S315000029E023A60D0E6FF09FCB13051000EFE00FC569
S315000029F003A70D01B7840000B3F499006FF00FAC84
S31500002A0013057001EFE08FC36FF0CFD5130580017A
S31500002A10EFE0CFC26FF00FD713059001EFE00FC2C2
S31500002A206FF04FD803A74D006FF09FBA1305A001B2
S31500002A30EFE0CFC06FF00FD91305B001EFE00FC084
S31500002A406FF04FDA1305C001EFE04FBF1307B00078
S31500002A5023A40D06631EE4DA6FF08FE7130520004A
S31500002A60EFE0CFBD6FF08FA5630807023374240132
S31500002A701317B4026346070023A40D0E6FF01FC29E
S31500002A801B152C003B0585011B052500EFE00FBB40
S31500002A9023A40D0E6FF09FC01B152C003B0585016E
S31500002AA01B051500EFE08FB96FF05FFC1B152C00BE
S31500002AB03B0585011B053500EFE04FB86FF01FBDE4
S31500002AC01B053401EFE08FB76FF09FEB1B85EAFF24
S31500002AD0EFE0CFB66FF0DFD81B053400EFE00FB69E
S31500002AE0930770006FF01FD3930C5002930A1000E7
S31500002AF0130B2000378CFFFFB70BFEFF6F000001A2
S31500002B009B8414009B8C5C00630E99E4139704026B
S31500002B101354E70133848D00232054090327040846
S31500002B2013771700630807040327040863F6EA000F
S31500002B301B85DCFFEFE08FB0232064090327040820
S31500002B4013772700630E070223208409032704084E
S31500002B50630677011B85FCFFEFE04FAE23200408D8
S31500002B6003270408E30E07F813850C00EFE00FAD0A
S31500002B706FF01FF91B85CCFFEFE04FAC6FF0DFFA6B
S31500002B801B85ECFFEFE08FAB6FF01FFC1305100009
S31500002B906FF0DFB813051000EFE04FAA6FF05FBDCE
S31500002BA01307C00023ACED006FF09FB7130520009C
S31500002BB06FF0DFB6130530006FF05FB6130101CF7B
S31500002BC02334312F930905001305000023341130F7
S31500002BD023308130233C912E2338212FEF70500C67
S31500002BE09304050013054000EF70900B13040500D5
S31500002BF037D50101EFE00FA2B7B7BEEF138901B3D6
S31500002C009387E7DD2324F90013050900B7270000A1
S31500002C10233039012316F900EF301062033609001C
S31500002C200325490193050000EF30D04D6346051496
S31500002C30374700008336090093070500032549013D
S31500002C40B3E7E7001B860700930500002338612DD4
S31500002C502334B12BEF309050176601000336867B84
S31500002C60B7F6002037F7FFFF9386E6FB130707202A
S31500002C709307E10A2330C10A1306E0002324D10A90
S31500002C802316E10A130B010A930D011A3B06F640BF
S31500002C903B07F6002380E70093871700E39AFDFEC3
S31500002CA0938901B39385090013850D00EF40801EBB
S31500002CB0E30A05FE938901B3138609009305010A09
S31500002CC013050010EF400013E30805FE938901B3D6
S31500002CD0138609009385040013050400EF400025C0
S31500002CE0E30805FE0327040093070010631EF7049C
S31500002CF093870D001305012A1307010A6F00800050
S31500002D006304F50883C50700034607009387170089
S31500002D1013071700E386C5FE13052000EFE00F92A8
S31500002D20033B012D833D812A13052000833081302A
S31500002D30033401308334812F0339012F8339812EE7
S31500002D40130101316780000013051000EFE00F8FBB
S31500002D508330813003340130033B012D833D812ACA
S31500002D608334812F0339012F8339812E13051000F7
S31500002D70130101316780000013050000EFE00F8C9E
S31500002D80130500006FF09FFA8327890163860766A3
S31500002D908327C90163820766033909002330412F5F
S31500002DA0233C512D2334712D2330812D233C912B2F
S31500002DB02338A12B1309C9010329090013050010A3
S31500002DC0EF70006EB7F7DDFA9B0C09009397470288
S31500002DD09387F7FF1B960C011B5606012330F5005F
S31500002DE09767010083B787639B5909011B17890001
S31500002DF01B5686002334F5009767010083B7876268
S31500002E003367C7001B5A89019B5B890093F9F90F49
S31500002E101306A0022338F5009767010083B7076100
S31500002E20130C05002330E1002320C400233CF500E9
S31500002E302320050223120502230345031B5909011A
S31500002E40A303350393FBFB0F93FAFC0F2314E50250
S31500002E50138D01B393050D0013850D00EF4080031C
S31500002E60E30A05FE138D01B30325040013060D00C6
S31500002E7093050C00EF301078E30805FE138D01B3BF
S31500002E8013060D009385040013050400EF40000AA5
S31500002E90E30805FE1306611B034606001376F60FCC
S31500002EA09307711B83C7070093F7F70F9305811BE1
S31500002EB083C505009B9787001B16060193F5F50F42
S31500002EC03366F6003366B6001B0606001B050600D1
S31500002ED09305911B83C5050093F5F50F9308A11B78
S31500002EE083C8080093F8F80F1308B11B03480800BD
S31500002EF0370301001303F3FFB3FC6C003B892C017D
S31500002F00B79700001B1919009B8777D3BB07F900F9
S31500002F10337EF3009BD70701BB87C7013373F300EA
S31500002F209BD70701BB87670093C7F7FF1BDE8700A8
S31500002F3093F7F70F137EFE0F370301FF9397870072
S31500002F401303F3FFB367FE00130E10F013170A0105
S31500002F50B3F76700131E8E01B3E7E700130EFEFFFB
S31500002F60130F10F0139D8901B3F7C701131F0F024A
S31500002F70130FFFFFB3E7A701930E10F0130E8103A3
S31500002F80B3F7E7012334E100939E8E0213970B02F9
S31500002F909B528500B3E7E700938EFEFF9B5F0E0111
S31500002FA0130F10F0B3F7D7012338E10093FEFF0F9C
S31500002FB013978A0293F2F20F131F0F03B3E7E7008A
S31500002FC09B92820013550501130FFFFF9B9E8E00F7
S31500002FD09B538E019B5F8E0033655500B3F7E70167
S31500002FE0233CE100B3EED30113170A0393FFFF0F4F
S31500002FF0337A6500B3FE6E00937AF80F370300014B
S315000030001378F60F33E6E7009B970F0133E5FE00D2
S315000030101303F3FF9B9888009B178E019B95050170
S315000030202330E10213978903B3796500B3E51501EF
S31500003030B3E9F90093074003B3EA55011B180801E9
S315000030402320F4009767010083B7473F336A0A01DC
S31500003050976C0100938C0C3E1B980A012338FC00E8
S315000030608337010083B80C009BD505011B58080166
S31500003070131686009B958501337A6A009B9A8A000F
S315000030801B588800B7BEFFFF13568600336ABA0086
S31500003090B3EA0A01938EEEDD3366E6002310FC02E6
S315000030A0B70700122334E10223204C0123125C01EE
S315000030B02313DC0123341C01233CCC0023110C0216
S315000030C02322FC0223340C0223283C03938B01B3F6
S315000030D093850B0013850D00EF30D05BE30A05FEE8
S315000030E0938B01B30325040013860B0093050C0094
S315000030F0EF305050E30805FE938B01B313860B00A7
S315000031009385040013050400EF305062E30805FEC2
S315000031109307C11C83C7070093F7F70F1307D11C4A
S31500003120034507001375F50F1306E11C0346060059
S315000031301376F60F9305F11C83C505009B9787014F
S315000031401B15050193F5F50FB3E7A700B3E7B70025
S315000031501B168600B3E7C7001396E7029B85070098
S315000031606354062A9BD52501938B0500B79700006B
S315000031709B87F7D7370601001306F6FF3B09F900D0
S31500003180B37726011B590901BB07F9003375F60011
S315000031901BD607013B06A6001346F6FF0337810040
S315000031A09B5786001376F60F1316860093F7F70FD4
S315000031B0B3E7C700B3E7E70033EDA70183370101A3
S315000031C0130610F00337810113168602336DFD00D6
S315000031D01306F6FF337DCD00930710F0336DED0037
S315000031E093970703033701029387F7FF9B95250102
S315000031F0337DFD00336DED009BD70541033781021A
S31500003200176901001309092493E72700131D8D0090
S315000032100338090093F7F70F135D8D0083B80C0090
S315000032209BD58501336DED009B9787000337010021
S31500003230B3E7F50037B3FFFF1303E3DD130EC00753
S3150000324023380C012316FC023708005A9307400264
S315000032509305010A1306800413054C032320C401B9
S3150000326023204C0123125C0123136C0023341C0120
S315000032702310EC02233CAC0123110C0223220C0385
S3150000328023240C022317FC0223283C03EF6050641E
S31500003290938501B313850D00EF30D03F938501B3BD
S315000032A0E30A05FE138605000325040093050C00BA
S315000032B0EF305034138601B3E30805FE938504000E
S315000032C013050400EF309046138601B3E30805FEAC
S315000032D09307D11C83C7070093F72700639E071245
S315000032E09B871B009B9727011BD607411376F60F7A
S315000032F0033509001B16860003B80C0003370100CE
S315000033009BD78701B3E7C700B7B5FFFF1306C00712
S315000033109385E5DD2320C4002316FC023706005AF8
S315000033209307400223204C0123125C012313BC00A7
S3150000333023340C012338AC002310EC02233CAC01EF
S3150000334023110C022322CC0223240C022317FC0295
S3150000335023283C03138901B39305090013850D0047
S31500003360EF305033E30A05FE138901B30325040049
S315000033701306090093050C00EF30D027E30805FE7D
S31500003380138901B31306090093850400130504008D
S31500003390EF30D039E30805FE832504001306C00785
S315000033A09306411D9307810E6386C5006F00C00713
S315000033B06384670983C5060003460B0093861600DF
S315000033C0130B1B00E386C5FE13055000EFD01FA7A5
S315000033D013055000033A012E833A812D033B012D3C
S315000033E0833B812C033C012C833C812B033D012B29
S315000033F0833D812A6FF09F93033B012D833D812AF4
S31500003400130500006FF09F929BD525019B8B15003D
S3150000341093850B006FF09FD513053000EFD01FA2E8
S31500003420130530006FF01FFB13054000EFD01FA1FE
S31500003430130540006FF01FFA13050C00EF704007EC
S3150000344013050000033A012E833A812D033B012D1B
S31500003450833B812C033C012C833C812B033D012BB8
S31500003460833D812A6FF09F8C130101F8B7E2FFFFBD
S3150000347023388106233C710323345105233C11066E
S31500003480233C310523349106233021072338410597
S3150000349023306105130A0500233881032334910381
S315000034A037550B0133015100EFD0DF963726000068
S315000034B037E7FFFF93060601B386E600130701010F
S315000034C03387E60037F9FFFF9306060193071000DE
S315000034D0B38626011306010193970702938707C057
S315000034E03389C60013051000337BF7003379F900E2
S315000034F0232E07FEEFD05F93B78735919387D79B2F
S315000035002320FB40930A0B40B707008037070201D0
S3150000351023A2FA0013074730B707060523A4EA00DB
S315000035209387877023A6FA00930720002338FA00B2
S3150000353037470100930720042330FA00130767106A
S31500003540B71700002330EA04938727C42334FA040C
S315000035509307F0FF93D70702130C10002334FA12D7
S3150000356023388A0113052000EFD01F8C13070008AB
S3150000357023345A212338EA20233C0A2023300A2206
S31500003580930700012334FA2223308A21930B0A3051
S315000035909304094023B49B0023B8EB0023BC0B0023
S315000035A023B00B0223B4FB0223B80B0223308A316B
S315000035B03707010013040A2093090A101307F7FFBF
S315000035C093060001233CF40083370402B3F7E700B7
S315000035D0E39CD7FE37270000B7E7FFFF1307070175
S315000035E03307F70093070101B307F70003A7C7FFE7
S315000035F02334F1009307300163C2E7021307300159
S31500003600833781008336810083A7C7FF9B87170016
S3150000361023AEF6FE83A7C6FFE354F7FE3727000066
S31500003620B7E7FFFF130707013307F7009307010109
S31500003630B307F70023AE07FE2334F10083378A0071
S31500003640639C072403B78901930700766306F70096
S3150000365013052000EFD08FFE03270940B787359169
S315000036609387D79B6306F70013053000EFD00FFD55
S3150000367003A74400B70700806306F7001305400060
S31500003680EFD0CFFB03A78400B7070201938747302B
S315000036906306F70013055000EFD04FFA03A7C400E6
S315000036A0B7070605938787706306F7001305600062
S315000036B0EFD0CFF813053000EFD00FF723300A20F4
S315000036C023300A3023380A009307C0042330FA0057
S315000036D09307F0FF93D7070223B4F902130C1000E7
S315000036E0B747CB8723388A01938767122320FB408D
S315000036F037F7F2F1B707008023A2FA001307473F16
S31500003700B7A7A6A523A4EA009387877A23A6FA007B
S3150000371013055000EFD04FF123345401233C04002D
S315000037202330040223308A2123B49B0023BC0B00E0
S3150000373023B00B0223308A319307000137070100BB
S31500003740233CF4001307F7FF9306000183370402B6
S31500003750B3F7E700E39CD7FE37270000B7E7FFFF84
S31500003760130707013307F70093070101B307F700B3
S3150000377003A7C7FF2334F1009307300163C2E702B2
S3150000378013073001833781008336810083A7C7FF83
S315000037909B87170023AEF6FE83A7C6FFE354F7FE0A
S315000037A037270000B7E7FFFF130707013307F700C6
S315000037B093070101B307F70023AE07FE2334F10098
S315000037C083378A006394070C03B789019307007651
S315000037D06306F70013058000EFD04FE60327094084
S315000037E0B747CB87938767126306F70013059000E8
S315000037F0EFD0CFE403A74400B70700806306F700C5
S315000038001305A000EFD08FE303A78400B7F7F2F10A
S315000038109387473F6306F7001305B000EFD00FE22A
S3150000382003A7C400B7F7F6F59387877F6306F7000B
S315000038301305C000EFD08FE09307F0FF93D7070280
S3150000384023B4F902930720002338FA00B7220000B8
S315000038503301510083308107033401078334810625
S315000038600339010683398105033A0105833A810448
S31500003870033B0104833B8103033C0103833C810238
S31500003880130500001301010867800000130570008E
S31500003890EFD0CFDA6FF05FF313051000EFD00FDA39
S315000038A06FF05FDA83A781929B87170023A4F192BA
S315000038B06780000013870192930705000335070010
S315000038C0638407002330F700678000001387819127
S315000038D09307050003350700638407002330F700CC
S315000038E067800000130101F92338A101130D0500BB
S315000038F037150101233C9104233C5103233861030E
S31500003900233411062330810623382105938A0500C6
S31500003910EFD04FD09307F0FF83248D002322FD00C4
S315000039202328FD0093071000232CFD0003270D001C
S3150000393083270D001B8B040093F474006300F724A7
S315000039409307F0012322FD002320FD00638C04145D
S315000039502334310523304105233471032330810399
S31500003960233C9101232C0D00930710006382F4047D
S3150000397023240D0293072000638CF402232C0D02EE
S31500003980930730006386F40223240D049307400056
S315000039906380F402232C0D0493075000638AF4001D
S315000039A023240D06930770006394F400232C0D0660
S315000039B0930C0000130CF000130A60009309F00149
S315000039C0930BF0FF1309000113944C0033048D0090
S315000039D013850C00EFD04FC523280400232A840149
S315000039E0232C4401832704016386870113053000D5
S315000039F0EFD0CFC4232C34019307E0001B870700C8
S31500003A0083260401E39EE6FE9B87F7FFE39877FF94
S31500003A1083270401E39E87FF8327840193F7070129
S31500003A2063880710232C24018327840193F7070159
S31500003A30639C07109B8C1C00E39894F9137B6B0026
S31500003A40631A0B10232C0D00930710006382FC04ED
S31500003A5023240D0293072000638CFC02232C0D0205
S31500003A60930730006386FC0223240D04930740006D
S31500003A706380FC02232C0D0493075000638AFC002C
S31500003A8023240D06930770006394FC00232C0D0677
S31500003A9083398104033A0104833B8102033C01021A
S31500003AA0833C81011306C100970500009385C5DF9D
S31500003AB013850A0023260100EF30107593040500D4
S31500003AC06308050C13850A00EF40C0251309100092
S31500003AD013040500630A250B9307F000232AFD0053
S31500003AE09307D000232CFD0013850400EF30507E91
S31500003AF0930720006302F50A13850A00EF40801B36
S31500003B006304250B130400008330810613050400AB
S31500003B10033401068334810503390105833A8103A1
S31500003B20033B0103033D0101130101076780000008
S31500003B3013054000EFD08FB0232C24018327840186
S31500003B4093F70701E38807EE13055000EFD00FAF98
S31500003B506FF05FEE13058000EFD00FAD9307F00016
S31500003B60232CFD009307F0022324FD021307D00047
S31500003B7083270D02E39EE7FE6FF0DFEC13051000CE
S31500003B80EFD0CFAB6FF0DFDBEFD04FAB6FF0DFF7EF
S31500003B90EFD0CFAA6FF01FF713057000EFD00FAA72
S31500003BA0130470006FF05FF613058000EFD00FA9C5
S31500003BB0130480006FF05FF5130101FF23308100CD
S31500003BC01304050037C5000123341100EFD08FA47C
S31500003BD063120522930710002326F4002322040013
S31500003BE0930730082324F40093074006232004009B
S31500003BF09B87F7FFE39C07FE930740060327040015
S31500003C009B87F7FFE39C07FE130744008327070003
S31500003C1093F74700E38C07FE930710002324F40074
S31500003C202320040083270700130605002320040031
S31500003C301B051500832707009BD7474193F7F7031A
S31500003C40E3D4A7FE930710006304F514930730002E
S31500003C502324F400832707009305600013F57700FB
S31500003C6093070500930660006304B502638AD700D4
S31500003C70832704008327070093F77700E39AD7FE8C
S31500003C808327070093F5770093870500E390D5FE19
S31500003C90930610002324D400930740032320F40046
S31500003CA08327070093F727006386071A6306D61053
S31500003CB09B06E6FF9396060293D6060297450100F9
S31500003CC09385655A974701009387D759B385D500E1
S31500003CD083C60700938717002320D400E39AB7FE14
S31500003CE0832707009BD7474193F7F703639CC716C3
S31500003CF08327070093F707206386071A83270700A1
S31500003D0093F7170063980716930730082324F400E7
S31500003D108327070093F70740E38C07FE83270700F6
S31500003D2093F717006380070C832707009BD7A7012B
S31500003D30639AC7148327070093F70710638C071449
S31500003D408327070093F70740638607169747010006
S31500003D50938747513305F6006F0080006386A70AF4
S31500003D608326040083C507009B86060093871700F9
S31500003D70E386D5FE1305C000EFD04F8C833081005B
S31500003D80033401001305C000130101016780000020
S31500003D9093073000130610002324F400832707003E
S31500003DA09305600013F577009307050093066000FE
S31500003DB0E31EB5EA6FF0DFED8327070093F71700E0
S31500003DC0639A070A930730082324F4008327070021
S31500003DD093F71700E38C07FE8327070093F7170076
S31500003DE0E39607F613058000EFD04F851305800094
S31500003DF06F00800013051001833081000334010039
S31500003E001301010167800000930710006306F602A4
S31500003E108327070093F707106396070A832707008F
S31500003E20B70600049B87070063F6D70A83270700B7
S31500003E3093F70740639007080327070013751700D9
S31500003E40E30C05FA13050001EFC05FFF130500013F
S31500003E506FF09FFA13052000EFC05FFE13052000E8
S31500003E606FF09FF913056000EFC05FFD130560005A
S31500003E706FF09FF81305F000EFC05FFC1305F0002C
S31500003E806FF09FF713059000EFC05FFB13059000DE
S31500003E906FF09FF61305A000EFC05FFA1305A000B0
S31500003EA06FF09FF513057000EFC05FF91305700002
S31500003EB06FF09FF41305B000EFC05FF81305B00074
S31500003EC06FF09FF31305D000EFC05FF71305D00026
S31500003ED06FF09FF21305E000EFC05FF61305E000F8
S31500003EE06FF09FF193061000138801B7BB96C600CA
S31500003EF02330A800B386A6002334D800635AB00244
S31500003F00B7170000B386F6009B851500130710004F
S31500003F10371600009307270093973700B307F8007A
S31500003F2023B0D7001B071700B386C600E314B7FEFD
S31500003F30678000006354B032B7270000130101F711
S31500003F409B8707F037370000B7260000232CF100C7
S31500003F509B0747009B080500232EF100372500002C
S31500003F609B8746C0B72E00002320F1029B0745D051
S31500003F70372F0000233CA1032338B103372D00005F
S31500003F80B72D00002322F1029B874EE023348108DF
S31500003F9023309108233C2107233831072334410776
S31500003FA023305107233C6105B72A0000372B000058
S31500003FB0372A0000B729000037290000B72400007F
S31500003FC037240000B7230000B7220000372800007E
S31500003FD01B0D0DC09B8D0DD02324F1029B074FF0C6
S31500003FE0233871052334810523309105130E000013
S31500003FF017630100130383A3930C004B372C0000B7
S315000040001B0B0BBC9B8A4ABC1B0A8ABC9B89C9BC7E
S315000040101B09C9CD9B84C4DD1B04C4ED9B83C3FD72
S315000040209B824200B73B00001B0808E09B0F16006E
S315000040302326F102930E0D00138F0D00B3079E0386
S31500004040939D08023B8D680193DD0D02131D0D0241
S315000040503B855801135D0D0213150502BB86480109
S3150000406013550502B307F30023B0B70123B8A72100
S31500004070939606023B87380123BCA72093D60602F7
S315000040801317070223B0D72213570702BB8628014E
S3150000409023B4E7221397060213570702BB8698003C
S315000040A023B0E724939606023B87880093D6060240
S315000040B01317070223BCD72413570702BB867800C1
S315000040C023B8E726939606023B071C0193D6060201
S315000040D01317070223B4D72813570702BB865800C5
S315000040E023B8E728939606023B871B0193D6060260
S315000040F0131707021357070223BCD72823B0E72A52
S31500004100130710FC6344E610BB86D801939606029B
S315000041103B87E80193D606021317070223B8D72276
S315000041201357070223B4E72403278101BB8608013E
S31500004130939606023B87E80093D6060213170702FA
S315000041401357070223B0D72623BCE7261307F0032D
S315000041506352C71003270102BB86E800032741020A
S315000041609396060293D606023B87E80013170702CA
S3150000417023BCD722135707028326810223B8E724DC
S315000041800327C102BB86D800939606023B87E80048
S3150000419093D606021317070223B4D726135707022E
S315000041A023B0E728130D6009330DAE038327C10141
S315000041B093061000B7DDFFFF3B851701233411017D
S315000041C02338C101B307DD0013874705131E050217
S315000041D0BB88AD0013173700135E0E023307E300EA
S315000041E093973700939808022334C70193D808029F
S315000041F0B307F30023B417019B8616001B05450081
S31500004200E392F6FD83388100033E0101B787000083
S315000042101B0E1E00BB881701E392C5E30334810819
S31500004220833401080339810783390107033A81067C
S31500004230833A0106033B8105833B0105033C810468
S31500004240833C0104033D8103833D010313010109FE
S3150000425067800000E348C0F46FF05FFB67800000F2
S31500004260635EB04C37460000B74600003B06A6002A
S315000042709B864600B747000013160602138701B750
S31500004280135606023B88A6009B878700B7460000A8
S31500004290233CC710131808023B86A7009B8686019D
S315000042A0B74700001358080213160602BB86A6007D
S315000042B09B87C701233007131356060293960602FF
S315000042C0BB87A7002334C71293D60602939707022B
S315000042D02338D71293D70702233CF7129306100010
S315000042E09B070500638CD54437C5000037C6000020
S315000042F03B05F5001B064600B7C600001315050270
S31500004300135505023B88C7009B86860037C600000A
S315000043102330A714131808023B85D7001B06860115
S31500004320B7C6000013580802131505023B86C700DE
S315000043309B86C6012334071513550502131606027C
S31500004340BB86D7002338A714135606029396060297
S3150000435093D60602233CC7142330D71693062000B3
S31500004360638ED53C37450100374601003B05F50015
S315000043701B064600B7460100131505021355050234
S315000043803B88C7009B868600374601002334A71664
S31500004390131808023B85D7001B068601B7460100A5
S315000043A013580802131505023B86C7009B86C601F3
S315000043B0233807171355050213160602BB86D700C6
S315000043C0233CA716135606029396060293D60602B8
S315000043D02330C7182334D718930630006380D536A8
S315000043E037C5010037C601003B05F5001B06460030
S315000043F0B7C6010013150502135505023B88C70011
S315000044009B86860037C601002338A71813180802B2
S315000044103B85D7001B068601B7C601001358080264
S31500004420131505023B86C7009B86C601233C071968
S315000044301355050213160602BB86D7002330A71AAA
S31500004440135606029396060293D606022334C71A1B
S315000044502338D71A930640006382D52E37450200CB
S31500004460374602003B05F5001B064600B74602002C
S3150000447013150502135505023B88C7009B86860067
S3150000448037460200233CA71A131808023B85D700BB
S315000044901B068601B74602001358080213150502CB
S315000044A03B86C7009B86C6012330071D13550502B0
S315000044B013160602BB86D7002334A71C1356060222
S315000044C09396060293D606022338C71C233CD71CB4
S315000044D0930650006384D52637C5020037C602000E
S315000044E03B05F5001B064600B7C60200131505027C
S315000044F0135505023B88C7009B86860037C6020017
S315000045002330A71E131808023B85D7001B06860119
S31500004510B7C6020013580802131505023B86C700EA
S315000045209B86C6012334071F135505021316060280
S31500004530BB86D7002338A71E13560602939606029B
S3150000454093D60602233CC71E2330D720930660006D
S315000045506386D51E37450300374603003B05F50045
S315000045601B064600B7460300131505021355050240
S315000045703B88C7009B868600374603002334A72066
S31500004580131808023B85D7001B068601B7460300B1
S3150000459013580802131505023B86C7009B86C60101
S315000045A0233807211355050213160602BB86D700CA
S315000045B0233CA720135606029396060293D60602BC
S315000045C02330C7222334D722930670006388D5167A
S315000045D037C5030037C603003B05F5001B0646003A
S315000045E0B7C6030013150502135505023B88C7001D
S315000045F09B86860037C603002338A72213180802B5
S315000046003B85D7001B068601B7C603001358080270
S31500004610131505023B86C7009B86C601233C07236C
S315000046201355050213160602BB86D7002330A724AE
S31500004630135606029396060293D606022334C7241F
S315000046402338D72493068000638AD50E37450400A5
S31500004650374604003B05F5001B064600B746040036
S3150000466013150502135505023B88C7009B86860075
S3150000467037460400233CA724131808023B85D700BD
S315000046801B068601B74604001358080213150502D7
S315000046903B86C7009B86C6012330072713550502B4
S315000046A013160602BB86D7002334A7261356060226
S315000046B09396060293D606022338C726233CD726AE
S315000046C093069000638CD50637C504003B05F500BC
S315000046D0B7C604009B86460037C6040013150502BC
S315000046E0BB85D700135505021B068600B7C6040016
S315000046F02330A7283B86C700939505029B86860133
S3150000470037C50400BB86D70093D5050213160602EB
S315000047101B05C5012334B7281356060293960602D5
S31500004720BB87A7002338C72893D6060293970702AC
S31500004730233CD72893D707022330F72A6780000047
S31500004740130101FF233411002330810083A78193D5
S31500004750639A070803A7C1939B57F7419BD7A70105
S31500004760BB87E7009BD767409B9717001384C193CD
S315000047709B87070873900735732710358326040037
S3150000478093071000B397D700631EF70CF357C03595
S315000047908326040013D70701639AE6000327040063
S315000047A09397070393D707036306F70013051000D3
S315000047B0EFC0CFE8F32710356394070CF357C035E5
S315000047C06398070C83A7019463960700930710006C
S315000047D023A0F19483308100033401001301010109
S315000047E06780000003A7419393172700B387E7006C
S315000047F0138401B793973700B307F40083B7871381
S3150000480003A7C19383A707009BD607016398E60019
S3150000481003A7C19393F7F70F6386E70013054000DC
S31500004820EFC0CFE103A7419393172700B387E700B3
S31500004830939737003304F4008337841383A7070064
S31500004840639E070483A70194E39607F883308100EB
S31500004850033401009307200023A0F1941301010102
S315000048606780000013050000EFC04FDDF357C03529
S315000048708326040013D70701E382E6F26FF01FF3E5
S3150000488013052000EFC08FDBF357C035E38C07F22A
S3150000489013053000EFC08FDA6FF0DFF2130550001A
S315000048A0EFC0CFD96FF01FFA130101FF23341100B7
S315000048B02330810083A78193639A070803A7C193D6
S315000048C09B57F7419BD7A701BB87E7009BD767405C
S315000048D09B9717001384C1939B870708739007154E
S315000048E0732710158326040093071000B397D7008B
S315000048F0631EF70CF357C0158326040013D7070170
S31500004900639AE600032704009397070393D70703E8
S315000049106306F70013057000EFC04FD2F32710159A
S315000049206394070CF357C0156398070C83A701948B
S31500004930639607009307100023A0F194833081004B
S3150000494003340100130101016780000003A74193AE
S3150000495093172700B387E700138401B793973700AF
S31500004960B307F40083B7871303A7C19383A7070090
S315000049709BD607016398E60003A7C19393F7F70F49
S315000049806386E7001305A000EFC04FCB03A7419352
S3150000499093172700B387E700939737003304F40093
S315000049A08337841383A70700639E070483A70194B4
S315000049B0E39607F883308100033401009307200053
S315000049C023A0F19413010101678000001305600024
S315000049D0EFC0CFC6F357C0158326040013D70701CF
S315000049E0E382E6F26FF01FF313058000EFC00FC5F8
S315000049F0F357C015E38C07F213059000EFC00FC400
S31500004A006FF0DFF21305B000EFC04FC36FF01FFA6F
S31500004A10130101F8233C110623385106233461069D
S31500004A2023307106233CA1042338B1042334C10486
S31500004A302330D104233CE1022338F102233401035D
S31500004A4023301103233CC1012338D1012334E10172
S31500004A502330F101F3272034732700FB63CC0706CC
S31500004A6003A70193930710006310F706F377413409
S31500004A70F3271034938747007390173423A80192C5
S31500004A8083308107833201070333810683330106AE
S31500004A900335810583350105033681048336010418
S31500004AA00337810383370103033881028338010208
S31500004AB0033E8101833E0101033F8100833F0100E4
S31500004AC013010108730020301305D001EFC00FB7A2
S31500004AD06FF01FFB9397170093D717001357070123
S31500004AE06394E7021307B000E36CF7F81737010089
S31500004AF01307877B93972700B387E70083A70700F1
S31500004B00B387E7006780070013057001EFC00FB396
S31500004B106FF01FF7EFF0DFC26FF09FF6EFF0DFD810
S31500004B206FF01FF693070008F3B74730930710009E
S31500004B3023A0F1946FF0DFF483B7019623A007005A
S31500004B409307100023A0F1946FF09FF393071000D2
S31500004B5023A8F1927377413423A0F1946FF05FF2AA
S31500004B6003A7C1939B57F7419BD7A701BB87E700D4
S31500004B709BD76740130101FF9B97170023308100E5
S31500004B80233411001384C1939B870708739007256C
S31500004B90732710258326040093071000B397D700C8
S31500004BA06386E70013058001EFC04FA9F357C025C0
S31500004BB08326040013D70701639AE600032704003F
S31500004BC09397070393D707036306F700130590012E
S31500004BD0EFC0CFA6F327102563960702F357C0252B
S31500004BE0639A070283A70194639607009307100050
S31500004BF023A0F194833081000334010013010101E5
S31500004C00678000001305A001EFC04FA3F357C0252E
S31500004C10E38A07FC1305B001EFC04FA26FF09FFCBB
S31500004C20130101F8233C110623385106233461068B
S31500004C3023307106233CA1042338B1042334C10474
S31500004C402330D104233CE1022338F102233401034B
S31500004C5023301103233CC1012338D1012334E10160
S31500004C602330F101F32720149397170093D71700E9
S31500004C70732700DBF32600DB63820708135707015F
S31500004C806396E702130790006384E7081307A00002
S31500004C90638CE70613071000639EE70023A8F192D2
S31500004CA07377413423A0F1946F00C000130590017F
S31500004CB0EFC0CF9883308107833201070333810623
S31500004CC083330106033581058335010503368104E7
S31500004CD083360104033781038337010303388102D6
S31500004CE083380102033E8101833E0101033F8100B7
S31500004CF0833F010013010108730020101305A00172
S31500004D00EFC0CF936FF01FFBEFF09FE56FF09FFAB8
S31500004D10EFF09FB96FF01FFA83B7019623A0070043
S31500004D209307100023A0F1946780000093071000FA
S31500004D3023A8F1927377413423A0F1946780000091
S31500004D4093070008F3B747309307100023A0F194A8
S31500004D5067800000F3670430F36701306780000066
S31500004D60F3770430F377013067800000B71700004F
S31500004D709B870780F3A7473093070020F3A74730A8
S31500004D8093070040F3A7476067800000F36744304D
S31500004D90F3674130F36742606780000093070008BD
S31500004DA0F3A747306780000093070008F3B7473042
S31500004DB067800000930700077390073573D010359E
S31500004DC09307200773900735735010359B56F541AE
S31500004DD09BD6A601BB86A600930710FC9BD6664011
S31500004DE06342F5021307000C930700001306F0FF59
S31500004DF073100735731016359B8717001B0727009E
S31500004E00E3D8F6FE67800000930700077390071546
S31500004E1073D010159307200773900715735010155C
S31500004E209B56F5419BD6A601BB86A600930710FCB0
S31500004E309BD666406342F5021307000C93070000F9
S31500004E401306F0FF73100715731016159B871700CE
S31500004E501B072700E3D8F6FE67800000F3270060F3
S31500004E603717FCFF1307F7FFB3F7E7009395C50065
S31500004E70B3E7B700739007609307000773900725A1
S31500004E8073D01025930720077390072573501025BC
S31500004E909B56F5419BD6A601BB86A600930710FC40
S31500004EA09BD666406342F5021307000C9307000089
S31500004EB01306F0FF73100725731016259B8717003E
S31500004EC01B072700E3D8F6FE67800000F327006083
S31500004ED03717FCFF1307F7FFB3F7E7001315C500F5
S31500004EE03365F500731005606780000073D0073ADC
S31500004EF09307F0FF93D707027390073B6780000084
S31500004F00B71700009B870780F3A70730B717000085
S31500004F10F3B70730970200009382020173931234AD
S31500004F20730020306780000093070010F3A7071076
S31500004F3093070008F3A70760970200009382020117
S31500004F407393121473002010678000001B05050C74
S31500004F50678000001B0505086780000093070500B1
S31500004F60630805061B07F5FF130510006374E506C5
S31500004F701307400013052000635EF7041307800043
S31500004F80130530006358F7041307000113054000AA
S31500004F906352F7041307000213055000635CF7021F
S31500004FA013070004130560006356F7021307000891
S31500004FB0130570006350F7021307001013058000F5
S31500004FC0635AF70013070020130590006354F70097
S31500004FD01305000067800000130101FF930710000E
S31500004FE02326F1008327C100634CF5008327C10007
S31500004FF09B8717002326F1008327C100E358F5FE9F
S3150000500013010101678000006358A00C130101FB26
S3150000501023308104233C91022338210323343103B6
S3150000502023304103233C5101233861012334110409
S31500005030130A050093041000138BC193938A01B7DA
S3150000504093890194130910001304500023A00194BE
S3150000505023209B0003B70A00232621018327C100D2
S3150000506023209700634CF4008327C1009B87170019
S315000050702326F1008327C100E358F4FE83A7090025
S315000050806380070483A70900639427059B841400A3
S31500005090E35E9AFA13051000833081040334010499
S315000050A0833481030339010383398102033A010200
S315000050B0833A8101033B010113010105678000006A
S315000050C01305C001EFB09FD783A70900E38027FD32
S315000050D01305F0FF6FF05FFC1305100067800000FA
S315000050E06358A00C130101FB23308104233C910279
S315000050F0233821032334310323304103233C510158
S315000051002338610123341104130A050093041000A7
S31500005110138BC193938A01B79389019413091000E5
S315000051201304500023A0019423209B0003B78A0098
S31500005130232621018327C10023209700634CF40016
S315000051408327C1009B8717002326F1008327C10010
S31500005150E358F4FE83A709006380070483A70900C8
S31500005160639427059B841400E35E9AFA13051000E6
S31500005170833081040334010483348103033901033A
S3150000518083398102033A0102833A8101033B01011B
S3150000519013010105678000001305C001EFB01FCAA7
S315000051A083A70900E38027FD1305F0FF6FF05FFC7E
S315000051B01305100067800000635EA00C130101FB5D
S315000051C093852500233C510193973500938A01B7B7
S315000051D023308104233C91022338210323343103F5
S315000051E0233041032338610123341104130A0500D7
S315000051F093041000138BC19393890194B38AFA0028
S31500005200130910001304500023A0019423209B00CF
S3150000521003B70A00232621018327C1002320970014
S31500005220634CF4008327C1009B8717002326F100F7
S315000052308327C100E358F4FE83A7090063800704AF
S3150000524083A70900639427059B841400E35E9AFAFA
S315000052501305100083308104033401048334810371
S315000052600339010383398102033A0102833A81013A
S31500005270033B010113010105678000001305C0010E
S31500005280EFB0DFBB83A70900E38027FD1305F0FF1E
S315000052906FF05FFC1305100067800000130101F733
S315000052A0233411082334A1006350A020233C91032A
S315000052B0974C0100938C8C7783B70C001307401032
S315000052C023A0E7006354B01823308108233C9106DD
S315000052D02338210723304107233C51052334710528
S315000052E0233081052338A1032334B1032334310746
S315000052F02338610513090000938DC193138D019422
S315000053001B8C1500930B1000930A6009130A004BBF
S31500005310130450009304004033065903130710008A
S31500005320B307E6009396370093874705B386DC00FC
S315000053309397370083B68600B387FC0083B7870050
S3150000534023A0760123A0E7001B071700E31A87FDB9
S31500005350B3064903130B1000B389DC0023A00194A4
S3150000536023A06D0183B5092403B60927232E7101F5
S315000053709B070B000327C10123A0F5002320F6009D
S31500005380634CE4008327C1019B871700232EF1009D
S315000053908327C101E358F4FE83270D00638E0704BB
S315000053A083270D001B870700639277071B0B1B00E3
S315000053B0E3168BFBB3065903B387E60093973700D2
S315000053C0B387FC0083B787001B07170023A097004D
S315000053D0E31487FF833781001B091900638E2709B1
S315000053E0B307490313074010B387FC0083B70700D0
S315000053F023A0E7006FF05FF21305C001EFB01FA412
S3150000540083270D001B870700E38277FB033401081F
S315000054108330810883348107033901078339810684
S31500005420033A0106833A8105033B0105833B810468
S31500005430033C0104833C8103033D0103833D810258
S315000054401305F0FF13010109678000001307000030
S31500005450833781001B0717006380E7069307004B1D
S31500005460B307F70293064010B387FC0083B7070023
S3150000547023A0D7006FF0DFFD0334010883348107D2
S315000054800339010783398106033A0106833A810508
S31500005490033B0105833B8104033C0104833C8103F8
S315000054A0033D0103833D810213051000833081080B
S315000054B01301010967800000833C81031305100076
S315000054C06FF0DFFE23A00194130101FE9307100085
S315000054D003B70196233C11002320F7002326F10091
S315000054E00327C1009307500063CEE700130750005F
S315000054F08327C1009B8717002326F1008327C1005D
S31500005500E358F7FE83A70194638A0700833081017D
