S00B000072616D2E73726563D9
S3150000000097810000938101D1970200009382820DAF
S3150000001073905230732440F163100402970200007B
S315000000209382420D73905230EF40907E970200000B
S3150000003093824222E78002001313240097020000F5
S3150000004093824204B302530003A302000F00F00F91
S31500000050E31C03FE138E013793134400B30E7E0098
S31500000060138F8E0083BF0E0003310F00970200002E
S315000000709382420873905230732540F1E7800F0057
S31500000080730010007300100073001000730010005E
S31500000090730010007300100073001000730010004E
S315000000A0730010007300100073001000730010003E
S315000000B0730010007300100073001000730010002E
S315000000C013132500970300009383C3FBB302730049
S315000000D00F00500F2FA002081305000067800000D4
S315000000E0730010001300000013000000130000004E
S315000000F073202034130101EF23301100233831001F
S31500000100233C41002330510223346102233871021B
S31500000110233C8102233091042334A1042338B10403
S31500000120233CC1042330D1062334E1062338F106EB
S31500000130233C0107233011092334210923383109CF
S31500000140233C41092330510B2334610B2338710BB7
S31500000150233C810B2330910D2334A10D2338B10D9F
S31500000160233CC10D2330D10F2334E10F2338F10F87
S3150000017073250030F325103473262034233CA10E5A
S315000001802330B1102334C11063560600EF40907738
S315000001906F00C00093060100EF40507683300100E7
S315000001A0833101010332810183320102033381026B
S315000001B0833301030334810383340104033581044B
S315000001C0833501050336810583360106033781062B
S315000001D0833701070338810783380108033981080B
S315000001E083390109033A8109833A010A033B810AEB
S315000001F0833B010B033C810B833C010C033D810CCB
S31500000200833D010D033E810D833E010E033F810FA9
S31500000210833F011073100F3073901F34033F810E1C
S31500000220833F010F1301011173002030130101FFF9
S3150000023023341100EF00902DEF00102F8330810042
S315000002401305000013010101678000000000000093
S31500000250EF40105C1304010093020000639C02004F
S31500000260138501141386016BB306A64093D5360099
S31500000270EF40105B9382012F23B08200EF40505C69
S31500000280EF401059EF508014EF50001AEF508001E4
S3150000029017650000130585BDEF50D038EF5090422A
S315000002A0EF00400F9382811803A50200938201118B
S315000002B083B5020013060000EFF05FF7EF50D0376A
S315000002C07300100000000000000000009387010C7E
S315000002D01387010C630AF700930700006386070083
S315000002E01385010C67800700678000009387010C67
S315000002F09385010CB385F54093D7354093D5F50327
S31500000300B385F50093D51540638A05009307000071
S31500000310638607001385010C67800700678000006D
S31500000320130101FF2330810083C7812F233411007D
S3150000033063920702EFF09FF99307000063880700B6
S315000003401385811397000000E70000009307100053
S31500000350238CF12E83308100033401001301010147
S31500000360678000009307000063840702130101FF02
S315000003709385013013858113233411009700000003
S31500000380E700000083308100130101016FF01FF6C2
S315000003906FF0DFF5B707801F938717209397370015
S315000003A01307300023A0E70067800000130101FF58
S315000003B0233081001304050037550401233411004E
S315000003C0EF00D01713051000EF00501883278400A4
S315000003D093F70701639E07168327840093F7870028
S315000003E0639207168327840093F7470063860714F2
S315000003F08327840093F72700639A071283278400D4
S3150000040093F71700639E07108327440093F787002E
S31500000410638207108327440093F747006396070E0D
S315000004208327440093F72700639A070C8327440029
S3150000043093F71700639E070A13052000EF001011BB
S31500000440130710002322E400832744009B8707003C
S315000004506386E70013059000EF0050109307A00590
S315000004602328F4008327840093F79700E38C07FE84
S315000004708327840093F78700639607069307100087
S315000004802324F40083278400130740009B8707007A
S315000004906386E7001305B000EF00500C8327C40005
S315000004A01307F00F9B8707006386E7001305C0005C
S315000004B0EF00D00A2322040083274400130780009C
S315000004C09B8707006386E7001305D000EF0010093D
S315000004D0833081000334010013050000130101017C
S315000004E0678000001305A000EF0050076FF01FF9AA
S315000004F013058000EF0090066FF01FF413057000DF
S31500000500EF00D0056FF09FF213056000EF001005B5
S315000005106FF01FF113055000EF0050046FF09FEFCE
S3150000052013054000EF0090036FF01FEE1305300037
S31500000530EF00D0026FF09FEC13052000EF001002D1
S315000005406FF01FEB13051000EF0050016FF09FE9ED
S3150000055013050000EF0090006FF01FE883A7011459
S315000005609B87170023A0F11467800000130101FE8A
S3150000057023349100930405001305400023388100BD
S31500000580233C1100EF00807C83A70400138404023F
S315000005909BD7470193F7F700638C070083A70400F6
S315000005A0130760009BD7470193F7F7006370F71EA8
S315000005B0B707700723A0F4028327440093D7E70008
S315000005C093F71700639607188327440093D7C7004D
S315000005D093F71700639A07188327440093D7B70049
S315000005E093F71700639E07188327440093F7074085
S315000005F0639407148327440093F707206398071230
S315000006008327440093F70710638C07109307E0FFD6
S31500000610B7B6DE0B232CF400130700009B8656D5D5
S3150000062013060002BB97E6002328F4008327440044
S3150000063093F70710E38C07FE1B078700E314C7FE3A
S3150000064083A704009BD7870093F7C70F638C070A1D
S315000006508327440093D7C70093F71700639C070AC4
S31500000660B71700002322F400832744009B87070066
S31500000670E3CC07FE832744018327440183274401F3
S31500000680832744018327440093F70720639C070AC6
S315000006909306300013070000232804008327440034
S315000006A093F70720E38C07FE832744011B17870077
S315000006B09B86F6FF9BD7070193F7F70FB3E7E70093
S315000006C01B870700E39A06FCB7B7DE00938747D57A
S315000006D06306F7001305A000EF0040689307F0FFDC
S315000006E0232CF40023A00402833081012322F4008A
S315000006F00334010183348100130500001301010254
S31500000700678000008327440093D7C70093F717003C
S31500000710E39807F413058000EF0040646FF05FF480
S3150000072013057000EF0080636FF05FEE1305600045
S31500000730EF00C0626FF0DFEC13055000EF000062BF
S315000007406FF05FEB13059000EF0040616FF05FF410
S3150000075013052000EF0080608327440093D7C7006D
S3150000076093F71700E38A07E613053000EF00005FF2
S315000007708327440093D7B70093F71700E38607E66D
S3150000078013054000EF00805D6FF01FE613051000B3
S31500000790EF00C05C6FF0DFE1130101FC23302103A1
S315000007A01309050013055000233C1102233881026A
S315000007B023349102233C310193840500EF00005954
S315000007C01306C10097050000938585D9138504009B
S315000007D023260100EF404075930905001304090222
S315000007E0630A051213850400EF40D0239307100017
S315000007F06304F50E832744009B870700639C070A62
S31500000800B70730432320F902930700202324F4007E
S3150000081083A70114639A070823280400832744004A
S315000008209B870700E3CC07FE8327440093F7072046
S31500000830638E0708832744019B8707002324F10062
S315000008408327440093F70720639C070683A70114B8
S31500000850130710006386E70013056000EF000050E1
S31500000860232404002320090213850900EF400076A3
S3150000087093072000630AF50813850400EF409013E0
S3150000088093071000630EF5048330810303340103DC
S315000008908334810203390102833981011305000083
S315000008A0130101046780000013053000EF00004BC0
S315000008B06FF09FF613052000EF00404A6FF05FF4DB
S315000008C013055000EF0080496FF05FF813054000F4
S315000008D0EF00C0486FF01FF6EF0040486FF09FF141
S315000008E013058000EF008047833081030334010342
S315000008F08334810203390102833981011305000023
S31500000900130101046780000013057000EF00004525
S315000009106FF09FF6EF0080446FF0DFEC130101FAF1
S31500000920233021051309050037D502012338810438
S31500000930233C310323306103233C11042334910407
S315000009402338410323345103233C710123388101A9
S3150000095023349101138B0500EF00403E83290900E3
S31500000960130409029BD9490193F9F900638A091E08
S315000009709B8719009304F0FF13051000BB94F40045
S31500000980EF00C03C8327090293C4F4FF130AF0006A
S315000009909B8707009B8404003B0A3A416390071E2D
S315000009A0832744009B8707006394071E83278400E0
S315000009B09B8707006398071E8327C4009B87070051
S315000009C0639C071E832704019B870700639007200B
S315000009D013052000EF00803793994901B7070043BC
S315000009E0B3E7F900832A09002320F902832744008C
S315000009F09BDA8A0093FAFA0F93D7E70093F717006A
S31500000A00639A072E8327440093D7C70093F71700EE
S31500000A10639C072C8327440093D7B70093F71700EE
S31500000A20639E072A8327440093F707406392072AA9
S31500000A308327440093F707206396072883274400FB
S31500000A4093F70710638A0726B7BBAAAA9B8C0A00EE
S31500000A5093861A00938BABAA930700001B870B00A3
S31500000A602328E4009B87170093CBFBFFE398F6FE51
S31500000A708327440093F70740639A0722832744009D
S31500000A8093F70710E38C07FE8327440093F70720AC
S31500000A90638807209B8B0B0023287401B70740004F
S31500000AA02326F40037470000832744009B8707006E
S31500000AB0B3F7E7009B870700E38807FE8327440018
S31500000AC093D7C70093F717006386071C37BCAAAAFB
S31500000AD0938CFC00930BE000130CACAA8327440113
S31500000AE033F784013B1747019B87070013850B00EB
S31500000AF09B8B1B006304F700EF004026134CFCFFA2
S31500000B00E39E7CFD9307F0FF232009022322F400D5
S31500000B10930720006306FB1E8327090093D727014E
S31500000B2093F71700639A070A83308105033401059A
S31500000B30833481040339010483398103033A0103B1
S31500000B40833A8102033B0102833B8101033C01019D
S31500000B50833C810013050000130101066780000035
S31500000B6013051000EF00801E83270902130A0000F8
S31500000B709304F0FF9B870700E38407E21305000058
S31500000B80EF00C01D832744009B870700E38007E230
S31500000B9013051000EF00801C832784009B87070045
S31500000BA0E38C07E013052000EF00401B8327C400F9
S31500000BB09B870700E38807E013053000EF00001A63
S31500000BC0832704019B870700E38407E013054000A1
S31500000BD0EF00C0186FF0DFDF13053000EF000017DD
S31500000BE0B72700C3B3E9F900B7F7ADDE2320390311
S31500000BF09387D7002320F920B7175221938727FF21
S31500000C002322F920930730002328F904232A090414
S31500000C10232C0904232E09042322F402930720001F
S31500000C20930909202320F4028327440093F7072021
S31500000C30E38C07FE03A70920B7F7ADDE9387D7003D
S31500000C40B3F7F4001B070700BB9747016386E7006D
S31500000C501385FA00EF00801083A749203717522129
S31500000C60130727FFB3F4E4009B8707003B9A440170
S31500000C706306FA0013850A01EF00400E23200402E2
S31500000C808327040293F72700E39C07FE232009022B
S31500000C906FF09FE91305D000EF00400C6FF01FE3E3
S31500000CA01305C000EF00800B6FF0DFDE1305B00008
S31500000CB0EF00C00A6FF09FDC1305A000EF00000AEA
S31500000CC06FF09FD813059000EF0040096FF01FD713
S31500000CD013058000EF0080086FF09FD513057000A4
S31500000CE0EF00C0076FF01FD413056000EF00000788
S31500000CF06FF05FD213055000EF0040066FF09FD0F3
S31500000D0013050900EFF09F866FF01FE1F32740F10E
S31500000D106398070083B781101307100023A8E70024
S31500000D20130500006780000083B7811013071000C9
S31500000D3023AAE700130500006780000083B781102F
S31500000D4023A0A700130500006780000083B7811069
S31500000D5023A4A700130500006780000083B7811055
S31500000D6023A2A700130500006780000083B7811047
S31500000D7023ACA7006780000083B78110130710001B
S31500000D8023AEE70067800000130101F723308108D6
S31500000D901304050037B5040123341108233C9106DA
S31500000DA02338210793840500233C51052338610528
S31500000DB0233C910323343107233041072334710543
S31500000DC0233081052338A1032334B103EFF01FF745
S31500000DD0B7070001938A01163304F40013898115BD
S31500000DE01305000023B09A0023308900EFF01FF6A8
S31500000DF003B50A00938C01159384C114EF30407932
S31500000E00930705001305100023A0FC00EFF01FF464
S31500000E1003B50A00138B8114EF3080769307050023
S31500000E2003B50A009B97A70023A0F400EF30407794
S31500000E309307050003A50C002320FB00EFF01FF32A
S31500000E4083A704001BD5F7411B5565013B05F5003B
S31500000E501B55A540EFF09FF103250B00EFF01FF1A6
S31500000E6013052000EFF09FEE13053000EFF01FEEA4
S31500000E7003AF0C00635CE00983AE04008335090010
S31500000E80B72800009B830E001B8305001306000095
S31500000E90130E0000B382D5019B8FCEFF93881800F6
S31500000EA03387C5009346F3FFBB876F002320D70027
S31500000EB093C7F7FF3387C200232EF7FE93860E00F3
S31500000EC01BD7F6013B07D7001B5717409B07C7FFE9
S31500000ED013850600B387C7009B060700B387F50096
S31500000EE03387C6003387E50013C8F7FF23A0070141
S31500000EF09347F7FF2320F700E3C4A8FC1B0E1E0050
S31500000F003B8363003306D601E31CEEF9130540006C
S31500000F10EFF0DFE383A70C006356F04E03A5040051
S31500000F20372C0000130D0010130A0000930B8100EC
S31500000F30130C1C00BB07AA02833509001B56F5419A
S31500000F4003B70A0083260B001B5666013B06A60064
S31500000F501B56A64013850B00BB85F500EF30905D50
S31500000F6083278100638A074483A704008335090029
S31500000F7003B70A003B8847031BD6F7419B88C7FF88
S31500000F8083260B001B5666013B06F6001B56A64041
S31500000F9013850B0033081801BB850501EF30905906
S31500000FA0832781006384074003A504009B093D0055
S31500000FB013040500BB05AA029B57F401BB878700F3
S31500000FC09BDD1740033809001B56F5419B88CDFF72
S31500000FD003B70A0083260B001B5666013B06A600D4
S31500000FE0B38515011B56A640BB05B80013850B003B
S31500000FF0EF305054832781006384073A03A5040029
S315000010008335090003B70A00BB07AA021B56F54140
S3150000101083260B001B5666013B06A6001B56A64000
S3150000102013850B00B387B701BB85F500EF309050F1
S3150000103083278100638C070003A504009B89290090
S3150000104063508C0213840D006FF0DFF613850900E0
S31500001050EFF0DFD003A504009B892900E3448CFE52
S3150000106083A70C001B0A1A001B0D0D01E344FAECC2
S31500001070033709009B17250013055000B307F70037
S3150000108013C7F7FF23A0E700EFF05FCC83A70400A8
S3150000109003B70A0083260B001BD6F74183250900F8
S315000010A01B5666013B06F6001B56A64013850B0031
S315000010B0EF305048832781006390073413041000F3
S315000010C09309500083A704000338090003B70A00F8
S315000010D0BB8587021BD6F74183260B001B5666018C
S315000010E03B06F6001B56A64013850B00BB05B80051
S315000010F0EF30504483278100638A072E1B041400B7
S31500001100E31234FD13056000EFF05FC483A70C0003
S315000011100336090003A704006354F00E9309301840
S3150000112013040000BB05E4021B85D9FFB307B60014
S3150000113083A6070093C7F7FF9B870700638AF6001D
S31500001140EFF0DFC103A7040003360900BB05E40284
S315000011509B57F701BB87E7009BD717409B86C7FFC6
S31500001160B386B600B306D60003A8060093C6F6FFFC
S315000011709B8606001B85E9FF6300D802EFF01FBEC1
S3150000118003A7040003360900BB05E4029B57F701D9
S31500001190BB87E7009BD71740B387B700B307F600B6
S315000011A083A6070093C7F7FF9B8707001B85F9FFF8
S315000011B0638AF600EFF09FBA03A70400033609001E
S315000011C0BB05E4029B07C7FFB387B700B307F6006A
S315000011D083A6070093C7F7FF9B87070013850900BF
S315000011E0638CF61EEFF09FB783A70C001B04140058
S315000011F00336090003A704009B890901E344F4F2BE
S31500001200BB87E7023306F600032706001346F6FF00
S315000012109B0706006306F7001305001CEFF01FB4DA
S3150000122013057000EFF09FB283B50A001305100096
S31500001230EF30803B13056000EFF05FB183A70C0031
S315000012400336090003A704006354F00E9309301B0C
S3150000125013040000BB05E4021B85D9FFB307B600E3
S3150000126083A6070093C7F7FF9B870700638AF600EC
S31500001270EFF0DFAE03A7040003360900BB05E40266
S315000012809B57F701BB87E7009BD717409B86C7FF95
S31500001290B386B600B306D60003A8060093C6F6FFCB
S315000012A09B8606001B85E9FF6300D802EFF01FABA3
S315000012B003A7040003360900BB05E4029B57F701A8
S315000012C0BB87E7009BD71740B387B700B307F60085
S315000012D083A6070093C7F7FF9B8707001B85F9FFC7
S315000012E0638AF600EFF09FA703A704000336090000
S315000012F0BB05E4029B07C7FFB387B700B307F60039
S3150000130083A6070093C7F7FF9B870700138509008D
S31500001310638AF60AEFF09FA483A70C001B0414004F
S315000013200336090003A704009B890901E344F4F28C
S315000013309B172700B307F60003A7070093C7F7FF1D
S315000013409B8707006306F7001305F01FEFF01FA148
S3150000135003B50A00EF3040161305800CEFF01F9F0F
S315000013608330810803340108833481070339010778
S3150000137083398106033A0106833A8105033B010559
S31500001380833B8104033C0104833C8103033D010349
S31500001390833D8102130500001301010967800000E7
S315000013A01B85F9FFEFF09F9B6FF05FC51B051D00C6
S315000013B0EFF0DF9A6FF05FBF13050D00EFF01F9A95
S315000013C06FF09FBA83A70C001B0414009B890901C8
S315000013D0E342F4E86FF0DFF583A70C001B0414006A
S315000013E09B890901E340F4D46FF09FE11B050414C7
S315000013F0EFF0DF966FF09FD01B050A14EFF01F96F3
S315000014006FF0DFCB03A50400130A0000930B8100E5
S315000014106FF01FC6130101FF23308100130405007E
S315000014203785020123341100EFF05F911305100098
S31500001430EFF0DF9103270400B70701009387F7FF5A
S315000014401B0707006306F70013050000EFF01F9166
S31500001450832744009B870700639207148327840031
S315000014609B870700639607128327C4009B870700A4
S31500001470639A071013052000EFF05F8D9307300085
S315000014802320F400930700082322F400130500002C
S31500001490930650009308000A930500091767000099
S315000014A013074700930E100A13080001130E500588
S315000014B0130300051306600063E4A60893172500CE
S315000014C0B387E70083A70700B387E70067800700B5
S315000014D023240400232604018327C40093F727004E
S315000014E0E39C07FE8327C40093F70708639E070A59
S315000014F08327C40093F707026398070C1B051500A2
S31500001500E31CC5FA930780062326F4008327C4004C
S3150000151093F72700E39C07FE8327840013075005F3
S315000015209B8707006390E704833081002322040031
S315000015300334010013050000130101016780000058
S31500001540232414012326B4006FF01FF92324D401A9
S315000015502326B4006FF05FF82324C4012326640019
S315000015606FF09FF71305F000EFF04FFF8330810017
S3150000157023220400033401001305000013010101B6
S315000015806780000013053000EFF04FFD6FF09FEE0F
S3150000159013052000EFF08FFC6FF01FED1305100010
S315000015A0EFF0CFFB6FF09FEB1B054500EFF00FFB55
S315000015B08330810023220400033401001305000058
S315000015C013010101678000001B059500EFF00FF97C
S315000015D08330810023220400033401001305000038
S315000015E01301010167800000130101FC2338810209
S315000015F01304050037E50301233C1102233491024D
S315000016002330210393840500233C31012338410113
S315000016102334510123306101EFF04FF2130520000E
S31500001620EFF0CFF29307300323A0F40023A60400C3
S3150000163023AA04009307D00123A2F4009307A00075
S315000016402320F400930700082322F4009307600682
S315000016502324F400930700092326F4001305000051
S31500001660EFF0CFF00325C4001B050500EFF00FF0E7
S315000016708327C40093F72700E39C07FE13050000A9
S31500001680EFF0CFEE8327C40093F707086396071A97
S315000016908327C40093F70702639A071A23240400DA
S315000016A01309000093070001130AF00F9309300095
S315000016B0930A20002326F40083A7840093F74700AB
S315000016C0E38C07FE23A4440183A704011B0B090036
S315000016D09B870700638627011B052B00EFF00FE8A9
S315000016E08327C40093F72700E39C07FE8327C400E3
S315000016F093F70708639207121B091900930709005D
S31500001700630C39012324F40093070005E30459FB15
S31500001710930700016FF01FFA930770062324F40065
S31500001720930700092326F4000329C400137929002E
S31500001730E31C09FE8327C40093F70708639E07107E
S315000017409309100093070002930A2000130A300041
S315000017502326F4008327C40093F72700E39C07FEA3
S3150000176083A7840093F72700638C07046300590757
S3150000177023AA340183A744001B8B09009B8707001B
S3150000178093E7470023A2F40083A784009B87070002
S3150000179023A4F400832784009B8707006306F900CF
S315000017A01B05F900EFF08FDB9307800663045B01EE
S315000017B0930700021B0919009B8919006FF05FF956
S315000017C01B05C900EFF08FD9E31459FB83A78400EA
S315000017D09B87070023A4F400832784009B870700C8
S315000017E06392270523A20400833081032322040089
S315000017F003340103833481020339010283398101F1
S31500001800033A0101833A8100033B010013050000FE
S3150000181013010104678000001B055B00EFF00FD485
S315000018206FF09FED130510011B8B0900EFF00FD32E
S31500001830E38A49FB6FF05FF713050000EFF00FD264
S315000018408327C40093F70702E38A07E41305100011
S31500001850EFF0CFD06FF09FE41305B000EFF00FD09C
S315000018606FF01FEE832745011307050093F7370036
S3150000187063980704832785011305200093F7C700A3
S31500001880639E0702832707011305300093F70702BB
S315000018906396070293071000232AF7006F00800063
S315000018A0639407028327870193F647009B87070007
S315000018B093F78700E39606FE130540006780000055
S315000018C013051000678000009307C000232CF70063
S315000018D013050000678000000327450193070500F4
S315000018E013773700631A07020327850113052000C3
S315000018F01377C7006314070203A707011305300017
S3150000190013770702631C07001307100023AAE700DA
S3150000191013050000678000001305100067800000B3
S315000019208327850113F747009B87070093F78700F6
S31500001930630C0700E38607FE9307C000232CF5001F
S315000019401305000067800000130540006780000053
S31500001950832705019B87070093E707022328F500E5
S315000019609307F0FF2324F50EB7070080B3E5F500D3
S315000019702320B50C8327050C9B870700E3CC07FEC5
S315000019802324050E832705019B87070093F7F7FDA0
S315000019902328F50067800000832705019B87070041
S315000019A093E707022328F5009307F0FF2326F50E99
S315000019B0B7070080B3E5F5002320B50C8327050C97
S315000019C09B870700E3CC07FE2326050E8327050128
S315000019D09B87070093F7F7FD2328F5006780000033
S315000019E08327050093F7F70F13D747006300070C0B
S315000019F093F7F70023200504138717006388070A67
S31500001A0023220504930720006302F70A2324050412
S31500001A1093073000630CF70823260504930740005C
S31500001A206306F70823280504930750006300F708A8
S31500001A30232A050493076000630AF706232C05048E
S31500001A40930770006304F706232E050493078000AE
S31500001A50630EF70423200506930790006308F70436
S31500001A60232205069307A0006302F7042324050634
S31500001A709307B000630CF702232605069307C00000
S31500001A806306F702232805069307D0006300F702D2
S31500001A90232A05069307E000630AF700232C0506B0
S31500001AA0930700016314F700232E05069307300001
S31500001AB02320F508930710002328F500678000000F
S31500001AC08327050093F7F70F13D747006300070C2A
S31500001AD093F7F70023200504138717006388070A86
S31500001AE023220504930720006302F70A2324050432
S31500001AF093073000630CF70823260504930740007C
S31500001B006306F70823280504930750006300F708C7
S31500001B10232A050493076000630AF706232C0504AD
S31500001B20930770006304F706232E050493078000CD
S31500001B30630EF70423200506930790006308F70455
S31500001B40232205069307A0006302F7042324050653
S31500001B509307B000630CF702232605069307C0001F
S31500001B606306F702232805069307D0006300F702F1
S31500001B70232A05069307E000630AF700232C0506CF
S31500001B80930700016314F700232E0506232005089A
S31500001B90930710002328F50067800000130101F861
S31500001BA02330A103130D050037F50401233C11066C
S31500001BB0233491062338810623302107233C31053F
S31500001BC0233841052334510523306105233C710335
S31500001BD02338810323349103233CB101EFF00F96A0
S31500001BE013051000EFF08F9683240D0003274D0098
S31500001BF003278D0023280D0003270D01B706FFFFDD
S31500001C009386F6FF1B0707003377D7009B840400F3
S31500001C10E30C0708B78A00009B8C0400B3FA540152
S31500001C20E3C0045C03270D011B070700B376D7004A
S31500001C30E38C0608130780002328ED0003270D0117
S31500001C403704004033F4840013778700E316040456
S31500001C50E316070413D7D401930600012328DD00F9
S31500001C6013771700E31E070003270D0113770701FB
S31500001C70E31E0700130700022328ED0003270D01CA
S31500001C8013770702631004646310076413070004E4
S31500001C902328ED0003270D01137707046304076467
S31500001CA0130700082328ED0003270D011377070803
S31500001CB063080764130700302328ED003787008088
S31500001CC033F7E400631C076403270D011B578700E5
S31500001CD013773700631E076413D7E40093060040AA
S31500001CE02328DD00137717006312076603270D010B
S31500001CF0137707406306070013059000EFF00F8681
S31500001D0037F700002328ED0003270D011B57C700F6
S31500001D101377F70063140766370702002328ED00E0
S31500001D2013F704106318076603270D0113571701ED
S31500001D30137717006318076637071C002328ED0082
S31500001D4013F73401631C076603270D011B57270190
S31500001D5013777700631E076623280D00130710000C
S31500001D60232EED000327CD011377170063020768C2
S31500001D7013072000232EED000327CD01137727003C
S31500001D806306076813074000232EED000327CD01E5
S31500001D9013774700631A0468630607001305F0000B
S31500001DA0EFE0DFFB13078000232EED000327CD01B4
S31500001DB013778700631A076813070002232EED00C6
S31500001DC00327CD011BDC140193773C002334F1007B
S31500001DD013770702639E0768631E07681BD74400D4
S31500001DE01377F700130A1700630007269B09FAFF0B
S31500001DF023203D0503270D0413F4F400130B1400F0
S31500001E0013174703135747031389090013040B00DD
S31500001E106306370113052001EFE05FF423200D046C
S31500001E20130710006302EB2223222D0503274D041E
S31500001E30131747031357470363063701130530018A
S31500001E40EFE0DFF123220D0413072000630EE41EEA
S31500001E5023242D0503278D04131747031357470320
S31500001E606306370113054001EFE05FEF23240D04FD
S31500001E7013073000630AE41C23262D050327CD042F
S31500001E80131747031357470363063701130550011A
S31500001E90EFE0DFEC23260D04130740006306E41A87
S31500001EA023282D0503270D0513174703135747034B
S31500001EB06306370113056001EFE05FEA23280D048E
S31500001EC0130750006302E418232A2D0503274D0546
S31500001ED01317470313574703E31E372D232A0D0411
S31500001EE0130760006302E416232C2D0503278D05D6
S31500001EF01317470313574703E314372D232C0D04F9
S31500001F00130770006302E414232E2D050327CD0565
S31500001F101317470313574703E31A372B232E0D04D2
S31500001F20130780006302E41223202D0703270D0602
S31500001F301317470313574703E31C372B23200D06BC
S31500001F40130790006302E41023222D0703274D0692
S31500001F501317470313574703E312372B23220D06A4
S31500001F601307A0006302E40E23242D0703278D0622
S31500001F701317470313574703E398E92823240D064D
S31500001F801307B0006302E40C23262D070327CD06B2
S31500001F9013174703135747036386E9001305D00158
S31500001FA0EFE0DFDB23260D061307C000630EE4080F
S31500001FB023282D0703270D07131747031357470336
S31500001FC06386E9001305E001EFE05FD923280D06DB
S31500001FD01307D000630AE406232A2D0703274D07BB
S31500001FE013174703135747036386E9001305F001E8
S31500001FF0EFE0DFD6232A0D061307E0006306E404AC
S31500002000232C2D0703278D07131747031357470361
S315000020106386E90013050002EFE05FD4232C0D066A
S31500002020130700016312E402232E2D070327CD07B1
S3150000203013174703135747036306370113051002A7
S31500002040EFE0DFD1232E0D061B0A0A00130930022A
S31500002050130C4002930D0000130B1000930B20008D
S31500002060B789FFFF6F0000046302074A2320340983
S31500002070032704081B0707006306370113050C0036
S31500002080EFE0DFCD23200408032704081B07070021
S31500002090631C07069B8D1D001B0C5C001B09590069
S315000020A063804D0913940D021354E40133048D002B
S315000020B023206409032704081377170063040742E3
S315000020C0032704081B0707001377E7FF631607407B
S315000020D0232074090327040813772700E3960AF8D8
S315000020E063C80C40631007462320340903270408FD
S315000020F01B070700E31407F8232004080327040836
S315000021001B070700E30807F81B051C009B8D1D0035
S31500002110EFE0DFC41B0C5C001B095900E3944DF98A
S315000021201304F0FF23248D0E03278D0E83378100C1
S315000021301B0707006392073E630607001305100797
S31500002140EFE0DFC123240D0E23268D0E0327CD0ECF
S315000021501B0707006312073E9BD4440123260D0E7E
S3150000216093F4F400930C6007130C0000638C040EC8
S31500002170B70B0400370B0400B70A0200370A020047
S31500002180B7090100370901006F00C004232054116C
S31500002190032704101B070700337747011B070700B7
S315000021A0630E070623203411032704101B070700BC
S315000021B0337727011B070700630207082320041053
S315000021C0032704101B070700631607089B8C4C00A7
S315000021D0630A9C0813140C021354E40133048D00A3
S315000021E023207411032704101B0C1C001B07070077
S315000021F0337767011B070700E31A07F81B85DCFF27
S31500002200EFE0DFB523205411032704101B07070056
S31500002210337747011B070700E31607F81B85ECFF1A
S31500002220EFE0DFB323203411032704101B07070058
S31500002230337727011B070700E31207F81B85FCFF0E
S31500002240EFE0DFB123200410032704101B0707006B
S31500002250E30E07F613850C00EFE05FB09B8C4C0095
S31500002260E31A9CF603270D001357E70113771700AF
S31500002270631C073E03270D001B5717011377370012
S31500002280631E072C833081070334010783348106DC
S315000022900339010683398105033A0105833A81042E
S315000022A0033B0104833B8103033C0103833C81021E
S315000022B0033D0102833D810113050000130101085E
S315000022C067800000E314079C13055000EFE01FA988
S315000022D0130700042328ED0003270D0113770704D5
S315000022E0E310079C13056000EFE05FA713070008E3
S315000022F02328ED0003270D0113770708E31C079A2F
S3150000230013057000EFE09FA5130700302328ED00AA
S315000023103787008033F7E400E308079A03270D01A7
S31500002320930630001B57870013773700E306D79ACA
S3150000233013058000EFE09FA213D7E4009306004048
S315000023402328DD0013771700E302079A03270D0100
S31500002350137707406316070013059000EFE01FA0F0
S3150000236037F700002328ED0003270D019306F00040
S315000023701B57C7001377F700E300D79A1305A00091
S31500002380EFE0DF9D370702002328ED0013F7041066
S31500002390E30C079803270D0113571701137717004E
S315000023A0E31C07981305B000EFE05F9B37071C009E
S315000023B02328ED0013F73401E308079803270D01DE
S315000023C0930670001B57270113777700E306D7980B
S315000023D01305C000EFE09F981307100023280D0097
S315000023E0232EED000327CD0113771700E31207987C
S315000023F01305D000EFE09F9613072000232EED0073
S315000024000327CD0113772700E31E07961305E00087
S31500002410EFE0DF9413074000232EED000327CD01E4
S3150000242013774700E30A0496631607001305F000C6
S31500002430EFE0DF9213078000232EED000327CD0186
S3150000244013778700E31A079613050001EFE01F9143
S3150000245013070002232EED000327CD011BDC140118
S3150000246093773C002334F10013770702E38607963F
S31500002470E316079613051001EFE05F8E6FF01F96C7
S3150000248003270D0113770701631607FE13054000A6
S31500002490EFE0DF8C6FF00FFE631E07FA13053000C6
S315000024A0EFE0DF8B6FF00FFB03270D01B78A00000B
S315000024B09B8C04001B070700B376D700B3FA5401C0
S315000024C0639A06F663C80CF663860AF613052000BF
S315000024D0EFE0DF886FF00FF61B05ECFFEFE01F88DB
S315000024E06FF01FBF1B05DCFFEFE05F876FF05FBD7E
S315000024F0630007062320340903270408B707FEFFF5
S315000025001B070700E300F7B86FF05FB71305090074
S31500002510EFE0DF846FF09FB5631607001305100721
S31500002520EFE0DF8323240D0E23268D0E0327CD0E29
S315000025301B070700E31207C213052007EFE01F82FF
S315000025406FF09FC113050900EFE05F816FF0DFB9FF
S3150000255013050900EFE09F806FF0DFF913054000D7
S31500002560EFE0CFFE03270D001B0707006346074673
S3150000257003278D009B56570093F676009B548700E1
S31500002580130C10001B8726003B17EC0093F4F40F86
S31500002590137CF70F9384740093D43400130700025E
S315000025A09B070C002328ED00B38484012334F1003B
S315000025B0930B0000930D00006384040A370B00C0E0
S315000025C0B70A3000130A1000B70C0080B7092000C4
S315000025D03709100023206D0D03270D0C9B060700FD
S315000025E0E3CC06FE33F756011B07070063160738D0
S315000025F063FC8B393B17BA012324ED0E23209D0D76
S3150000260003270D0C1B070700E34C07FE23206D0D67
S3150000261003270D0C9B06070013840600E3CA06FE7B
S3150000262033F736011B07070063FC8B3F630A074439
S31500002630337724011B0707006312073623240D0E88
S3150000264023209D0D03270D0C1B070700E34C07FEF7
S315000026509B8B1B0093FDFB0F938B0D00E3CC9DF62C
S3150000266023280D006FF01FC213052000EFE00FEEC8
S3150000267003274D01137737006318074203278D019F
S315000026801377C7006312074403270D011377070268
S315000026906310074413071000232AED006F00800023
S315000026A0631E074003278D01937647001B0707002B
S315000026B013778700E39606FE13054000EFE00FEA66
S315000026C013053000EFE08FE803274D009306100056
S315000026D0930540001B5B5700137B7B003B94E60091
S315000026E0BB9666011B578700130A040093FDF60F7D
S315000026F0937AF70F63F48500130A4000130700026C
S315000027002328ED0003278D01137707016302073A9B
S315000027101309000013050000630C0424130C2000A9
S31500002720930C30009304400093075000130460009C
S31500002730930B1000B70900801347F9FF13771700B2
S31500002740BB06E0402322DD0C1B07F7FF630E0B02DE
S315000027502324ED0C638A8D032326DD0C63869D03FB
S315000027602328ED0C63829D02232ADD0C638EFD0077
S31500002770232CED0C638A8D00232EDD0C930670004E
S315000027806384DD002320ED0EBB76590333673501E4
S315000027901B070700BB96DB002322DD0E2320ED0C72
S315000027A003270D0C9B06070013870600E3CA06FEE7
S315000027B0B70630003377D700631C07281B091900BA
S315000027C01375F90F13090500E36845F79304000034
S315000027D093090000370C00C0B70B300033E78901BE
S315000027E01B0707002320ED0C03270D0C9B06070093
S315000027F0E3CC06FE33F776011B07070063120726B4
S3150000280083264D0C13C4F4FF137414001B97140095
S315000028103B0797003B0980409B8606009B0C870080
S315000028206306D90013850C00EFE04FD31B04F4FFB9
S3150000283063000B0C83268D0C9B8606006386860040
S3150000284013850C00EFE08FD1930720006382FD0A09
S315000028508326CD0C9B8606006306D90013850C00E3
S31500002860EFE0CFCF930730006384FD0883260D0D7C
S315000028709B8606006386860013850C00EFE00FCE6C
S31500002880930740006386FD0683264D0D9B86060052
S315000028906306D90013850C00EFE04FCC9307500078
S315000028A06388FD0483268D0D9B8606006306D4008F
S315000028B013850C00EFE08FCA93076000638AFD0260
S315000028C08326CD0D9B8606006306D90013850C0072
S315000028D0EFE0CFC893077000638CFD0083260D0ED2
S315000028E09B8606006386860013850C00EFE00FC703
S315000028F0BBF6540303274D0E930510001B07070074
S31500002900BB96D500638AE6001B9519003B05350189
S315000029101B059500EFE08FC49B84140093F9F40F18
S3150000292093840900E3EC49EB13040000130500004F
S3150000293037090080B70430003367250123220D0EC6
S315000029401B0707002320ED0C03270D0C9B06070031
S31500002950E3CC06FE33F796001B070700631C07103F
S315000029601B0714001375F70F13040500E36645FDF6
S3150000297023280D006FF01F901B952D003B05B50118
S31500002980EFE0CFBDE3E88BC7833781003B87FD408F
S315000029903B17EA002326ED0E6FF05FC61B952D0050
S315000029A03B05B5011B052500EFE04FBB23240D0EAB
S315000029B06FF01FC913057001EFE04FBA6FF00FD229
S315000029C013058001EFE08FB96FF04FD31305900127
S315000029D0EFE0CFB86FF08FD403274D006FF09FB9AB
S315000029E013051000EFE08FB703270D016FF08FA4DA
S315000029F01305A001EFE08FB66FF04FD41305B001B9
S31500002A00EFE0CFB56FF08FD51305C001EFE00FB53E
S31500002A101307B00023240D066318E4D66FF0CFE247
S31500002A20631A0706337724011B07070063060700AE
S31500002A3023260D0E6FF0DFC01B952D003B05B5015B
S31500002A401B054500EFE08FB123260D0E6FF05FBF2B
S31500002A5013053500EFE08FB0930750006FF01FD6D7
S31500002A601B9519003B0535011B057500EFE00FAFFF
S31500002A706FF01FD913053501EFE04FAE6FF05FEE33
S31500002A801B952D003B05B5011B051500EFE00FADAD
S31500002A906FF01FBA1B952D003B05B5011B053500D0
S31500002AA0EFE0CFAB6FF01FF8130510006FF01FC1FA
S31500002AB013051000EFE08FAA6FF09FC51307C00043
S31500002AC0232CED006FF0DFBF130520006FF01FBF52
S31500002AD0130530006FF09FBE130101CC2330213364
S31500002AE01309050013050000233C113223388132F7
S31500002AF023349132233C313123384131233451314F
S31500002B0023306131233C712F2338812F2334912FB9
S31500002B102330A12F233CB12DEF30804493040500D0
S31500002B2013054000EF30C0431304050037D50101FB
S31500002B30EFE0CFA0B7B7BEEF938901339387E7DD08
S31500002B4023A4F900B7270000138509002396F9008E
S31500002B5023B02901EF10003703B6090003A5490188
S31500002B6093050000EF100023634E0512374700005F
S31500002B709307050083B6090003A54901B3E7E700FB
S31500002B801B86070093050000EF100026175700006C
S31500002B90033747242338E10C37F700201307E7FBF8
S31500002BA0232CE10C37F7FFFF9307E10D13070720EE
S31500002BB01306E000231EE10C1309010D930D011D00
S31500002BC03B06F6403B07F6002380E7009387170095
S31500002BD0E39AFDFE138A013393050A0013850D005F
S31500002BE0EF104079E30A05FE138A013313060A0043
S31500002BF09305010D13050010EF10C06DE30805FEE7
S31500002C00138A013313060A00938504001305040092
S31500002C10EF10C07FE30805FE0327040093070010AA
S31500002C20631AF70693870D001305012D1307010D8F
S31500002C306F0080006380A70803C60700834607006D
S31500002C409387170013071700E306D6FE1305200027
S31500002C50EFE0CF9013052000833081330334013336
S31500002C60833481320339013283398131033A0131A8
S31500002C70833A8130033B0130833B812F033C012F94
S31500002C80833C812E033D012E833D812D13010134AA
S31500002C906780000013051000EFE04F8C130510004D
S31500002CA06FF09FFB13050000EFE04F8B130500004C
S31500002CB06FF09FFA83A7890113050000E38E07F8DA
S31500002CC083A7C901E38A07F803BA0900130ACA01F0
S31500002CD0032A0A0013050010EF308028B7F7DDFA43
S31500002CE09B090A00939747029387F7FF9B9909016F
S31500002CF09BD909012330F5009757000083B7070ECB
S31500002D001B178A009B5A0A011BD689002334F5003B
S31500002D109757000083B7070D1B5B8A0193FAFA0FDA
S31500002D203366C7009305A0022338F50097570000C5
S31500002D3083B7C70B2324E100130C05002320B4003E
S31500002D40233CF50023200502231205022303650315
S31500002D509B5B0A01A30355032314C502938C01331D
S31500002D6093850C0013850D00EF10C060E30A05FE85
S31500002D70938C01330325040013860C0093050C0085
S31500002D80EF104055E30805FE938C013313860C00C3
S31500002D909385040013050400EF104067E30805FE61
S31500002DA01306611E034606001376F60F9307711E7F
S31500002DB083C7070093F7F70F9305811E83C50500A8
S31500002DC09B9787001B16060193F5F50F3366F600F1
S31500002DD03366B6001B0506009308911E83C80800DB
S31500002DE093F8F80F1303A11E034303001373F30FA5
S31500002DF01308B11E03480800B70501009385F5FFC7
S31500002E0033FA4501BB0B7A01B79700001B9D1B00E7
S31500002E109B8777D3BB07FD0033FEF5001B138300AA
S31500002E209BD707019B980801BB87C701B3E86800D9
S31500002E3013038106B3F5F5001378F80F1B1703018A
S31500002E409BD707011B570701BB87B700B3E50801EE
S31500002E509B9B05011B588700232CE1040337810047
S31500002E6093C7F7FF9BDB0B019B9685001B9F070112
S31500002E709BDE8B009BD58900B365B7009370F50F79
S31500002E80135705019B5F8500975C0000938C8CF6B9
S31500002E9033E5D6011B5F0F019B13830003BE0C00B5
S31500002EA09B9787002312AC001B5F8F0037B5FFFF8F
S31500002EB033E6E7011305E5DD9BD808019B520301C4
S31500002EC0938703002320D10493FFFF0F9B568301B2
S31500002ED093F8F80F13F3F20FB3E707012313AC00CF
S31500002EE0231CCC0017550000033545F11308400399
S31500002EF037060012232471042338E100233CF10134
S31500002F0023301102233411032338D102233C6102FA
S31500002F10232004012300EC00A300FC0123011C0074
S31500002F20A3011C012334CC012338AC00230D6C0112
S31500002F30A30D5C01231EBC00230F6C01A30F5C01D3
S31500002F402310BC0223110C022322CC0223340C02D0
S31500002F502308DC02A3086C02138A01332319FC023E
S31500002F6093050A0013850D00EF10C040E30A05FE25
S31500002F70138A01330325040013060A0093050C0087
S31500002F80EF104035E30805FE138A013313060A00E5
S31500002F909385040013050400EF104047E30805FE7F
S31500002FA09307C11F83C7070093F7F70F1307D11FB6
S31500002FB0034607001376F60F9305E11F83C5050048
S31500002FC09305F11F83C505001B1606019B97870114
S31500002FD0B3E7C70093D517011BD6270193F5150054
S31500002FE09BD72701130A0600639605001B8A170064
S31500002FF013060A00B79700009B87F7D7B7050100AD
S315000030003B0DFD009385F5FFB3F7A5011B5D0D0193
S31500003010BB07FD00B3F5F5009BD70701BB87B700DB
S3150000302093C7F7FF1B9707011B570701232EE104E0
S315000030309B5F8700033781001BD589009B9687001D
S31500003040336EA700033701049BD58B0083278105C8
S31500003050336FB70013870600B36FF7010337810498
S315000030609BD78700175D0000130DCDD9B36EF7000F
S315000030709307C0072320F4008337010183B80C00AF
S3150000308003380D002300FC00833781011B1626013F
S315000030909B520641A300FC00833701021B538601A5
S315000030A02328D1042301FC008337810293E2220006
S315000030B02312EC01A301FC00B7B7FFFF9387E7DDFE
S315000030C02313FC00B707005A2322FC0223341C01F9
S315000030D09307400223380C01230D6C01A30D5C01FC
S315000030E0231ECC01230F6C01A30F5C012310CC031C
S315000030F0231CFC0123110C0223240C0223066C0260
S31500003100A3065C022317FC0283370103130680041F
S315000031109305010D2308FC028337810313054C0335
S315000031202319DC03A308FC02EF3080659385013385
S3150000313013850D00EF100024E30A05FE1386013304
S315000031400325040093050C00EF10C0181386013305
S31500003150E30805FE9385040013050400EF10002B19
S3150000316013860133E30805FE9307D11F83C70700C3
S3150000317093D7170093F71700639C07160327C1051B
S315000031809BD989009BD58B001B558700032781059A
S3150000319083B80C0003380D001B56870003378100E7
S315000031A09B071A009B972701B36937010337010470
S315000031B01BD38701130EC007B365B700033701059C
S315000031C02312BC00B7B5FFFF3365A70003378104A0
S315000031D09385E5DD2313BC003366C7000337010181
S315000031E0B705005A9BD707412300EC00033781013E
S315000031F0231E3C0123103C03A300EC00033701020D
S315000032002320C40123341C012301EC00033781026F
S3150000321023380C01230D6C01A301EC00A30D5C0106
S31500003220230F6C01A30F5C01231CAC0023110C02BD
S315000032302322BC0223240C0223066C02A306FC02F2
S31500003240930740022317FC02833701032319CC029C
S31500003250938901332308FC0283378103A308FC0208
S315000032609385090013850D00EF10C010E30A05FED3
S3150000327093890133032504001386090093050C0086
S31500003280EF104005E30805FE938901331386090014
S315000032909385040013050400EF104017E30805FEAC
S315000032A0832504001306C007930641209307811166
S315000032B06386C5006F00C0026304F90403C60600F6
S315000032C0034709009386160013091900E306E6FE74
S315000032D013055000EFD09FA8130550006FF0DF973D
S315000032E013054000EFD09FA7130540006FF0DF964F
S315000032F013053000EFD09FA6130530006FF0DF9561
S3150000330013050C00EF209046130500006FF0DF94C4
S31500003310130101F937E3FFFF233C51032334710303
S31500003320233431052334110623308106233C9104CE
S3150000333023382105233041052338610323308103D7
S31500003340130B05003301610037550B01EFD01F9FAA
S31500003350B7260000130910001306010113870601A2
S315000033603307C70093140902B7E7FFFF93860601E8
S31500003370B307F700B386C600138704C0B7F4FFFF90
S31500003380B38496001305100033FAE700B3F4E400A3
S3150000339023AE07FEEFD09F9BB78735919387D79BC8
S315000033A02320FA4093090A40B707008023A2F900B8
S315000033B0B70702019387473023A4F900B70706052C
S315000033C09387877023A6F900930720002338FB0014
S315000033D0930720042330FB00B7470100938767104B
S315000033E02330FB04B7170000938727C42334FB045C
S315000033F09307F0FF93D707022334FB1223382B01E0
S3150000340013052000EFD09F941307000823343B21B7
S315000034102338EB20233C0B2023300B22930700019B
S315000034202334FB2223302B21930B0B3013840440CF
S3150000343023B48B0023B8EB0023BC0B0023B00B0294
S3150000344023B4FB0223B80B0223302B3137070100CC
S31500003450930A0B2013090B101307F7FF93060001BD
S3150000346023BCFA0083B70A02B3F7E700E39CD7FE52
S31500003470B72700009306010193870701B387D7009A
S3150000348037E7FFFF3387E7008327C7FF930630013F
S315000034909B87070063CEF6008327C7FF9B8717002D
S315000034A0232EF7FE8327C7FF9B870700E3D6F6FE8A
S315000034B0372700001307070193060101B7E7FFFF4F
S315000034C03307D700B307F70023AE07FE2334F10016
S315000034D083378B00639607260337890193070076A7
S315000034E06306F70013052000EFD05F8703A70440AB
S315000034F0B78735919387D79B1B0707006306F700AD
S3150000350013053000EFD09F858327440037070080DE
S315000035109B8707006386E70013054000EFD01F84F2
S3150000352003278400B7070201938747301B0707006C
S315000035306306F70013055000EFD05F820327C4002F
S31500003540B7070605938787701B0707006306F70012
S3150000355013056000EFD09F8013053000EFD00FFFFA
S3150000356023300B2023300B3023380B009307C00485
S315000035702330FB009307F0FF93D707022334F902A9
S31500003580130C1000B747CB8723388B01938767123C
S315000035902320FA40B707008023A2F900B7F7F2F11B
S315000035A09387473F23A4F900B7A7A6A59387877AF1
S315000035B023A6F90013055000EFD04FF923B43A01C2
S315000035C023BC0A0023B00A0223308B2123B48B00CC
S315000035D023BC0B0023B00B0223308B319307000171
S315000035E03707010023BCFA001307F7FF9306000113
S315000035F083B70A02B3F7E700E39CD7FEB7270000BC
S315000036009306010193870701B387D70037E7FFFFCA
S315000036103387E7008327C7FF930630019B870700A0
S3150000362063CEF6008327C7FF9B871700232EF7FE7E
S315000036308327C7FF9B870700E3D6F6FE37270000E0
S315000036401307070193060101B7E7FFFF3307D7000A
S31500003650B307F70023AE07FE2334F10083378B0050
S31500003660639A070C03378901930700766306F70010
S3150000367013058000EFD08FEE03A70440B747CB8732
S31500003680938767121B0707006306F7001305900070
S31500003690EFD0CFEC83274400370700809B870700D5
S315000036A06386E7001305A000EFD04FEB03278400E5
S315000036B0B7F7F2F19387473F1B0707006306F7004A
S315000036C01305B000EFD08FE90327C400B7F7F6F56E
S315000036D09387877F1B0707006306F7001305C00063
S315000036E0EFD0CFE79307F0FF93D707022334F90211
S315000036F0930720002338FB003723000033016100C5
S3150000370083308106033401068334810503390105BC
S3150000371083398104033A0104833A8103033B01039D
S31500003720833B8102033C01021305000013010107DC
S315000037306780000013057000EFD04FE26FF09FF234
S3150000374013051000EFD08FE16FF01FD983A7811703
S315000037509B87170023ACF1166780000013870117BB
S315000037609307050003350700638407002330F7003D
S31500003770678000001387811693070500033507004D
S31500003780638407002330F70067800000130101F807
S3150000379023388106130405003715010123349106E9
S315000037A02334510523306105233C110623302107BC
S315000037B0233C310523384105233C7103233881031B
S315000037C0233491032330A103233CB101938A0500DE
S315000037D0EFD0CFD69307F0FF832484002322F40092
S315000037E02328F40093071000232CF4000327040079
S315000037F0832704001B8B04001B0707009B87070019
S3150000380093F47400630EF7229307F0012322F40069
S31500003810937B6B002320F400138B0B006388041E3C
S31500003820232C0400930710006382F404232404026B
S3150000383093072000638CF402232C040293073000C4
S315000038406386F40223240404930740006380F40291
S31500003850232C040493075000638AF40023240406EF
S31500003860930770006394F400232C0406930D000064
S31500003870130DF000130A60009309F001930CF0FF9A
S3150000388013090001139C4D00330C840113850D00B0
S31500003890EFD0CFCB23280C00232AAC01232C4C01DC
S315000038A083270C019B8707006386A7011305300059
S315000038B0EFD0CFCA232C3C019307E0009B8607007C
S315000038C003270C011B070700E31CD7FE9B87F7FFA6
S315000038D0E39697FF83270C019B870700E39CA7FFCE
S315000038E083278C0193F70701638C0710232C2C0187
S315000038F083278C0193F70701639E070E9B8D1D009E
S31500003900E392B4F963160B10232C040063820B04B4
S315000039102324040293072000638CF402232C040260
S31500003920930730006386F4022324040493074000BF
S315000039306380F402232C040493075000638AF40086
S3150000394023240406930770006394F400232C0406D2
S315000039501306C10097050000938585DF13850A00CD
S3150000396023260100EF10405C130905006304050ED1
S3150000397013850A00EF10100B93091000930405003D
S315000039806306350D9307F000232AF4009307D00051
S31500003990232CF40013050900EF1040639307200061
S315000039A06300F50C13850A00EF10D00093040000A5
S315000039B06300350D8330810703340107033901069F
S315000039C083398105033A0105833A8104033B0104E7
S315000039D0833B8103033C0103833C8102033D0102D7
S315000039E0833D810113850400833481061301010898
S315000039F06780000013055000EFD04FB66FF01FF040
S31500003A0013054000EFD08FB56FF05FEEE3820BF445
S31500003A1013058000EFD08FB39307F000232CF4003A
S31500003A209307F0022324F4021307D000832704022D
S31500003A309B870700E39CE7FEE39804EC6FF05FF1D9
S31500003A4013051000EFD08FB16FF01FDCEFD00FB170
S31500003A506FF05FF6EFD08FB0930400006FF09FF524
S31500003A6013057000EFD08FAF930470006FF09FF4D2
S31500003A7013058000EFD08FAE930480006FF09FF3A4
S31500003A80130101FF233081001304050037C500012F
S31500003A9023341100EFD08FAA631605229307100076
S31500003AA02326F40023220400930730082324F4007D
S31500003AB093074006232004009B87F7FFE39C07FE3D
S31500003AC093074006032704009B87F7FFE39C07FE46
S31500003AD0130744008327070093F74700E38C07FE8C
S31500003AE0930710002324F4002320040083270700F3
S31500003AF093060500232004001B05150083270700F5
S31500003B009BD7474193F7F703E3D4A7FE930710002B
S31500003B106304F50013850600930730002324F400A0
S31500003B20832707001306600093F57700930660006D
S31500003B309B8707006398C5006F0040028327040037
S31500003B408327070093F77700E39AD7FE83270700BA
S31500003B5013F677009B870700E316D6FE9306100040
S31500003B602324D400930740032320F400832707006F
S31500003B7093F72700638807186308D5041B06E5FF3B
S31500003B8013160602135606029746000093862693DE
S31500003B9097470000938797923306D60083C607009F
S31500003BA0938717002320D400E31AF6FE8327070025
S31500003BB09BD7474193F7F703639EA7148327070014
S31500003BC093F70720638007188327070093F71700EA
S31500003BD063940710930730082324F400930710001A
S31500003BE06304F50C8327070093F70740E38C07FE71
S31500003BF08327070093F71700638E071293071000B9
S31500003C006304F502832707009BD7A701639CA710CF
S31500003C108327070093F70710638607148327070097
S31500003C2093F70740638807129B06F5FF93960602F3
S31500003C3093D606029745000093855588974700005E
S31500003C409387C787B385D5008326040003C607007C
S31500003C509B860600938717006318D608E396F5FE41
S31500003C60930710006304F5028327070093F70710F4
S31500003C7063920710832707009BD7A7016394071059
S31500003C808327070093F707406396070C032707006F
S31500003C9013751700630A050213050001EFD00F8C98
S31500003CA0130500016F0040028327070093F71700F2
S31500003CB0E39007F48327070093F71700E38607FED0
S31500003CC06FF01FF3130510018330810003340100E8
S31500003CD013010101678000001305F000EFD00F8883
S31500003CE01305F0006FF05FFE1305C000EFD00F87DD
S31500003CF083308100033401001305C0001301010164
S31500003D006780000013052000EFD04F8513052000C3
S31500003D106FF09FFB13056000EFD04F841305600022
S31500003D206FF09FFA13059000EFD04F8313059000B4
S31500003D306FF09FF913058000EFD04F8213058000C6
S31500003D406FF09FF813057000EFD04F8113057000D8
S31500003D506FF09FF71305B000EFD04F801305B0004A
S31500003D606FF09FF61305A000EFC05FFF1305A000DC
S31500003D706FF09FF51305D000EFC05FFE1305D0006E
S31500003D806FF09FF41305E000EFC05FFD1305E00040
S31500003D906FF09FF3130706018327070093F7870049
S31500003DA0E39C07FE9B97650093F7077C1B15B50000
S31500003DB0B3E7A70093E727009B8707002328F600B1
S31500003DC08327070093F68700E39C06FE93F7070117
S31500003DD063980700032507001B550501678000004F
S31500003DE01305F0FF6780000013870601832707008D
S31500003DF093F78700E39C07FE9B95650093F7057C88
S31500003E001B15B500B3E7A7001B160601B3E7C700ED
S31500003E1093E717009B87070023A8F6008327070070
S31500003E2093F78700E39C07FE6780000003C7050041
S31500003E3093070500033605002304E50003C71500B4
S31500003E4013051000A384E70003C725002385E700B8
S31500003E5003C73500A385E70003C745002386E700AF
S31500003E6003C75500A386E70083C7150003C70500EF
S31500003E7093978700B3E7E7001B97870093D78700E0
S31500003E80B3E7E7009B9707019BD707012324F600BA
S31500003E9083C7250083C6350003C8550003C7450000
S31500003EA09B9606019B978701B3E7D700B3E7070107
S31500003EB01B178700B3E7E7009B8707002326F6005A
S31500003EC067800000130101FD233C91002338210186
S31500003ED023341102033905002330810223343101D2
S31500003EE09304050083270900374700009BD6B701D6
S31500003EF033F7E7001BD6F70193F6160013371700C2
S31500003F002328D5009BD7F701232CC500232EE500D7
S31500003F10639C0700930700042320F9008327090008
S31500003F2093F70704E39C07FE1304090183270400A3
S31500003F309BD7B70093F7F7013715000023AAF400C3
S31500003F4013050580EF20C0019B09054093F909C0C0
S31500003F509B8909009396090293D606029387060069
S31500003F601387064023A0070093878700E39CE7FE9C
S31500003F703715000023B0D40213050580EF10507EDC
S31500003F809B06054093F606C09B860600939506029F
S31500003F9093D50502938705001387054023A00700E4
S31500003FA093878700E39CE7FE9307F0FF13D607028B
S31500003FB01307490123B4B4023377C7009307890175
S31500003FC023203701B3F7C70023A0D70083A78401B6
S31500003FD023B8040223BC04026384070A83A7C4012E
S31500003FE06380070A13070000930630006F00800005
S31500003FF0130700008327040093F78700E39A07FE60
S315000040001B071700E318D7FE83C7940003C7840075
S315000040108330810293978700B3E7E7001B978700F9
S3150000402093D78700B3E7E7009B9707019BD7070164
S315000040302324F90083C7A40083C6B40003C6D400B2
S3150000404003C7C4009B9787019B960601B3E7D70079
S31500004050B3E7C7001B17870003340102B3E7E70085
S315000040609B8707002326F900833481010339010168
S3150000407083398100130500001301010367800000E6
S3150000408003A744018327040093F78700E39C07FEF8
S315000040909B17B7003707008013071700B3E7E70041
S315000040A09B8707002328F9008327040093F78700DE
S315000040B0E39C07FEB786000003A74401832704009C
S315000040C093F78700E39C07FE9B17B70093E727004B
S315000040D09B8707002328F9008327040013F787002E
S315000040E0E31C07FE93F70701E39807FC8327040008
S315000040F09BD7070133F7D7001B070700E31E07FA14
S3150000410037170000B3F7E700639A070803A74401CF
S315000041108327040093F78700E39C07FE9B17B700ED
S3150000412093E727009B8707002328F90083270400CD
S3150000413013F78700E31C07FE93F7070103A60401A4
S31500004140639E0716832704009BD607016304060AAD
S3150000415037260000130706043377D70093060004BA
S31500004160630AD710630EC70E1BD787011B174700BC
S31500004170137707011306000083A7C401B7460000A2
S315000041803367C7009B97E700B3C7D700B3E7E700DD
S315000041909B8707002320F9006FF01FE7B7C60000D2
S315000041A09386163503A744018327040093F78700F7
S315000041B0E39C07FE9B17B70093E727049B8707003E
S315000041C02328F9008327040013F78700E31C07FE62
S315000041D093F70701E39C07F2832704009BD70701A7
S315000041E093F70702E39407F29B86F6FFE39C06FA31
S315000041F06FF0DFF1B7250000138705043377D7008A
S315000042006304B70A1BD787011B17470013770701FB
S3150000421083A644018327040093F78700E39C07FEE7
S315000042209B97B60093E717249B8707002328F9007E
S315000042308327040093F78700E39C07FE83A7C40146
S31500004240B74600003367C7009B97E700B3C7D700A0
S31500004250B3E7E7009B8707002320F9006FF0DFDA5A
S315000042601BD787011B1747001377070113060008A2
S315000042706FF09FF01BD7870183A7C4011B17470068
S3150000428013770701130600109B97E700B746000057
S315000042903367C700B3C7D700B3E7E7009B870700BC
S315000042A02320F9006FF05FD61BD787011B17470045
S315000042B013770701130600086FF09FF563160600D3
S315000042C0130700016FF0DFF4130600001307000167
S315000042D06FF09FEA032806030337060293170802C6
S315000042E093D7D7013307F70083270700B7160000D7
S315000042F09B87070093860680B3F7D7006398070667
S315000043009B8505002322B7009307F0076308F80290
S315000043103365D5002320A7001B08180023280603B1
S3150000432003370600832707009B87070093E71700DC
S315000043302320F7001305100067800000B727000050
S31500004340938707803365F5002320A70023280602FC
S3150000435003370600832707009B87070093E71700AC
S315000043602320F700130510006780000013050000E6
S315000043706780000003A6450303B78502931706026C
S3150000438093D7D7013307F70083270700B716000036
S315000043909B87070093860680B3F7D70063940706CA
S315000043A01B0505002322A7009307F0076306F60204
S315000043B02320D7001B06160023AAC50203B7050053
S315000043C0832707009B87070093E727002320F70032
S315000043D01305100067800000B72700009387078049
S315000043E02320F70023AA050203B705008327070049
S315000043F09B87070093E727002320F700130510008B
S315000044006780000013050000678000000367C6038D
S315000044108337860213173700B387E70083A70700A1
S315000044209B87070013D7B70013771700631407029B
S3150000443093F7F77F2320F5008327C6031307F007BA
S31500004440638EE7009B871700232EF60213051000E4
S31500004450678000001305000067800000232E060217
S315000044601305100067800000832685038337050245
S31500004470139706021357D701B387E70083A70700F0
S3150000448093D7B70093F71700639E07009307F007CB
S31500004490638EF6009B861600232CD50213051000AA
S315000044A0678000001305000067800000232C0502CA
S315000044B0130510006780000083270500370700807A
S315000044C09B87070033E7E7002320E5001BD5F701AC
S315000044D067800000032705009317170293D717027A
S315000044E02320F5001B55F701678000008327050090
S315000044F0370700409B87070033E7E7009BD7E74174
S315000045002320E50013F517006780000083270500C8
S31500004510370700C01307F7FF9B87070033F7E7004D
S315000045209BD7E7412320E50013F5170067800000BD
S31500004530832705009B87070093E717002320F500D4
S3150000454067800000832705009B87070093F7E7FF36
S315000045502320F50067800000832705009B8707005E
S3150000456093E727002320F5006780000083270500D6
S315000045709B87070093F7D7FF2320F500678000008D
S31500004580032545001B5525001375F57F6780000040
S3150000459003254500137535001305150067800000D7
S315000045A08327450093D7870193F717006386070093
S315000045B013050004678000001305000267800000F1
S315000045C01B153500136555001B05050023A4A50022
S315000045D0678000001B153500136565001B05050087
S315000045E023A4A500678000001B1535001365750020
S315000045F01B05050023A4A50067800000137505FEB2
S315000046001365150023A4A50067800000137505FE39
S315000046101365250023A4A50067800000137505FE19
S315000046201365350023A4A500678000009B9545000F
S3150000463093F505031B150501B3E5A50093E51500E4
S315000046409B8505002326B600678000009B954500E4
S3150000465093F505031B150501B3E5A50093E52500B4
S315000046609B8505002326B600678000009B954500C4
S3150000467093F505031B150501B3E5A50093E5350084
S315000046809B8505002326B600678000009B954500A4
S315000046909B96360093F50503B3E5D5009B16960069
S315000046A0B3E5D5001B168600B3E5C500137505C036
S315000046B0B3E5A50093E555009B8505002326B700C5
S315000046C0678000009B9545009B96360093F5050391
S315000046D0B3E5D5009B169600B3E5D5001B168600FC
S315000046E0B3E5C500137505C0B3E5A50093E5650000
S315000046F09B8505002326B700678000009B95450033
S315000047009B96360093F50503B3E5D5009B169600F8
S31500004710B3E5D5001B168600B3E5C500137505C0C5
S31500004720B3E5A50093E575009B8505002326B70034
S315000047306780000003270600832746001B57870073
S315000047401377F70093F737009306170013881700BF
S315000047501B0717009B8717006340D80683260600B1
S315000047601B989500BB87E740137505C033650501A7
S315000047709B97470037F8FFFF1308F80F9B86060044
S3150000478093F70703B3F60601B3E7A7009B958500E9
S315000047901B17870033E7E600B3E7B7001B070700E0
S315000047A093E777002320E6009B8707002326F60081
S315000047B013050000678000001305F0FF6780000006
S315000047C0832705009BD7870093F7F700638A0702C4
S315000047D003270500B7F6FFFF9386F60F9B87F7FFC3
S315000047E01B0707003377D7009B978700B367F7004F
S315000047F09B8707002320F500130500006780000053
S315000048001305F0FF67800000832705000327450096
S31500004810930605009BD7870013773700130617000A
S3150000482093F7F7001B0717006344F6063B07F740AC
S315000048301B174700137707031367F7002326E500C6
S31500004840032705009B87F7FF37160000130606F0BF
S315000048509B978700B3F7C70037F6FFFF1306F60FDF
S315000048601B0707003377C700B3E7E7009B870700FE
S315000048702320F50083270500370700801305000075
S31500004880B3E7E7009B87070023A0F60067800000D8
S315000048901305F0FF67800000832846001307000019
S315000048A09BD8080193F8F80393070702939727000C
S315000048B0B307F60083A60700130807001B071700B7
S315000048C093F6360063940604B707FCFFB377F5004A
S315000048D093F5C5FFB3E7B7001308080293E717007F
S315000048E0131828009B870700330606012320F600CD
S315000048F0634A17016398E800B336D0003305D04009
S31500004900678000001305000067800000E34E17F97A
S315000049106FF05FFE83284600130700009BD808014E
S3150000492093F8F8039307070293972700B307F60057
S3150000493083A60700130807001B07170093F6360027
S3150000494063980604B707FCFF93F5C5FFB377F50038
S31500004950B3E7B700B70501001308080293851500F1
S31500004960B3E7B700131828009B8707003306060134
S315000049702320F600634A17016398E800B336D00097
S315000049803305D040678000001305000067800000F3
S31500004990E34A17F96FF05FFE83284600130700000D
S315000049A09BD8080193F8F80393070702939727000B
S315000049B0B307F60083A60700130807001B071700B6
S315000049C093F6360063940604B707FCFFB377F50049
S315000049D093F5C5FFB3E7B7001308080293E727006E
S315000049E0131828009B870700330606012320F600CC
S315000049F0634A17016398E800B336D0003305D04008
S31500004A00678000001305000067800000E34E17F979
S31500004A106FF05FFE032E4600930E05001B5E0E012F
S31500004A20137EFE0363020E06370F01001308000013
S31500004A301305F0FFB70FFCFF130FCFFF93162800E7
S31500004A40B306D60003A706081B0818001373370021
S31500004A501B070700B347D701B348B700B3F7F70101
S31500004A60B3F8E801B3E717019B870700630A030061
S31500004A701377C7FF6396070023A0E6081B051500FA
S31500004A80E31E0EFB678000001305F0FF6780000041
S31500004A9023AAA5029307100023A8F5026780000049
S31500004AA0832705039B87070093F7E7FF2328F50273
S31500004AB0678000009B95450093F505031B150501CE
S31500004AC0B3E5A50093E525009B8505002328B602DE
S31500004AD0678000002326050223240502832705029A
S31500004AE09B87070093F777FF2320F5026780000076
S31500004AF0832705029B87070013E717002320E5029B
S31500004B0013F51700678000001375F50723A4A502A7
S31500004B1083A705029B87070093E7870023A0F5027A
S31500004B20678000009B175501B706E00F1B17E500CD
S31500004B30B3F7D700B7C61F003377D700B3E7E70050
S31500004B401377F507B3E7E700374700001B15750035
S31500004B50130707F83375E500B3E7A7009B8707003F
S31500004B6023A6F50283A705029B87070093E7870024
S31500004B7023A0F502678000009B975501B706E00F5A
S31500004B801B97E500B3F7D700B7C61F003377D700EA
S31500004B90B3E7E70013F7F507B3E7E7003747000089
S31500004BA09B957500130707F8B3F5E500B3E7B70063
S31500004BB09B8707001375C5FF2326F60213651500AC
S31500004BC0232CA6026780000003A705029B17850019
S31500004BD037150000130505F0B3F7A700B3E7E700A4
S31500004BE09B87070023A0F502678000009B178500BE
S31500004BF03715000003A70502130505F0B3F7A70054
S31500004C0093C7F7FFB3F7E7009B87070023A0F502DA
S31500004C10678000009B57150013050000638A070094
S31500004C2093D717001B051500E39C07FE678000005D
S31500004C30678000009BD5150063840502930700007A
S31500004C4093D515001B8707009B871700E39A05FE7F
S31500004C501B07B7003B55E5003B15E50067800000E4
S31500004C601307A0003B55E5003B15E50067800000F3
S31500004C709BD51500638C05049307000093D515009A
S31500004C801B8707009B871700E39A05FE93075001D1
S31500004C903B87E7409306F0FFBB96E6001B561600DF
S31500004CA0630E060093070000135616009B87170035
S31500004CB0E31C06FE3B07F7003B55F5003BD7E60035
S31500004CC03375E5001B05050067800000B706C0FFC9
S31500004CD0130760016FF09FFC9BD5150063880502E2
S31500004CE0930700009BD515009B871700E39C05FEE4
S31500004CF093050002BB87F5409305F0FFBB95F500D1
S31500004D00BBD5F5003375B5009B0505001385050079
S31500004D10678000001B55850013753500678000000D
S31500004D201B55650013753500678000001375F50186
S31500004D3067800000B7080800130101FFBB88E80080
S31500004D409398080223348100233091001B561600E5
S31500004D50930E00001B07070093D808026306061A85
S31500004D6093070600130800009BD717001B030800D3
S31500004D701B081800E39A07FE1B03B3003BDF650020
S31500004D803B1F6F0013080600135818001B8E070000
S31500004D909B871700E31A08FE930750013B8EC74115
S31500004DA01303F0FF3B13C3019BD716009B8F06002E
S31500004DB0638E07001308000093D717001B0818001E
S31500004DC0E39C07FE3B0E0E01BBD505013B5EC3010E
S31500004DD0B3F5C5019B9735009397070293D7E70173
S31500004DE0B388F80003A408009B820500130E000098
S31500004DF01374F401930400049303400003A3080012
S31500004E001B030300630E060E9305060093070000BE
S31500004E1093D515001B8807009B871700E39A05FEAC
S31500004E201B08B800BB5703013B9807016304E8075A
S31500004E301B0E1E0093884800E3127EFC130300003D
S31500004E4013060000BB855F022320C500B7072000BC
S31500004E5037060800232A85009B962E00033481001E
S31500004E601B983E01232265002328D5013B87E500D8
S31500004E70BB87E7003B06E6003B87C600BB8707010A
S31500004E802324E5002326F5008334010013010101E4
S31500004E90678000009B57830093F7370063820704FF
S31500004EA01B536300930500041B860700137333002E
S31500004EB06394B60683A608011BD8860013783800CB
S31500004EC09B850600630A08049BD6650093F63600A8
S31500004ED03306F8003B836600930E0E006FF09FF6D4
S31500004EE0E39896F483A508011BD88500137838004B
S31500004EF09B850500E30E08F2130300006FF0DFFC4C
S31500004F001308A0006FF01FF213FF05C03703C0FFA0
S31500004F10130E60016FF05FE9930E0E006FF09FF2C3
S31500004F2003A5411A67800000130101FD2334110215
S31500004F3023308102233C910023382101233431019F
S31500004F401B07F5FF9307E00163E0E70613890500F9
S31500004F50638C0504930405001305000293090600FB
S31500004F60EF100000130405006300050423249500D8
S31500004F7023382501233C3501EF00C0526312050298
S31500004F808330810213050400033401028334810156
S31500004F900339010183398100130101036780000091
S31500004FA013050400EF00907C130400008330810297
S31500004FB0130504000334010283348101033901011E
S31500004FC0833981001301010367800000130101FE8C
S31500004FD02338810023349100233C110093040500FB
S31500004FE0EF008051130405006316050013850400C5
S31500004FF0EF00D077833081011305040003340101EB
S315000050008334810013010102678000000000000064
S3150000501067800000000000000000000000000000A3
S315000050209387F5FF638C05001307F0FF2330050017
S315000050309387F7FF13058500E39AE7FE6780000074
S31500005040B77700003777000013860751930507519D
S315000050506304B60AB77600009386065163FED50848
S315000050603365B6009386F6FF13757500130707516F
S31500005070B386B6406310050613B5C6021345150080
S315000050801375F50F6308050493D62600938616005C
S3150000509013D81600131838009387075133080601F2
S315000050A003B507009387870013078700233CA7FEF5
S315000050B0E39807FF13F5E6FF13172500B307E6008D
S315000050C0B385E500638AA60283A7070023A0F5003F
S315000050D06780000093F6C6FF93864600B306D600A7
S315000050E09387075103A707009387470093854500D9
S315000050F023AEE5FEE398F6FE67800000730010001D
S31500005100678000009317160093D717001307B000A7
S315000051106386E7007300100067800000130101FD3D
S315000051202334310183B98119B707200023382101BF
S31500005130B389F90003A94900233041012334110240
S3150000514023308102233C91001B090900138A014781
S31500005150630209049317090293D7D701B307FA002C
S3150000516003B407009B040900630E0400833704019F
S315000051700335840193850400E780070003340400A7
S31500005180E31604FE23A2290103A949001B0909000D
S31500005190E31209FC83308102033401028334810166
S315000051A00339010183398100033A01001301010328
S315000051B06780000083B6811963820606F3750430A2
S315000051C003A7011A1B56F5411B56B6013B06A6005E
S315000051D01B1727001B565640131757003307C700E7
S315000051E013172700B386E60037270000B386E600CC
S315000051F003A7060093071000BB97A70093C7F7FF06
S31500005200B3F7E7009B87070023A0F60093F7850016
S3150000521073A0073013050000678000001305100017
S315000052206780000003B781196300070673760430B0
S3150000523083A7011A9B56F5419BD6B601BB86A600ED
S315000052409B9727009BD6564093975700B387D70066
S31500005250939727003307F700B72700003307F700B7
S3150000526083270700930610003B95A60033E5A700A9
S315000052701B0505002320A7009377860073A007303F
S31500005280130500006780000013051000678000000A
S3150000529083A7411A130500009B87170023A2F11A62
S315000052A067800000130101FA2338810483A7411A9D
S315000052B0233C110423349104638E070C83B78119B0
S315000052C0639A070203A58111B76700009387C7D9C0
S315000052D01308010013074000930620001306200C54
S315000052E093051000EF00502A9317050293D7070283
S315000052F023BCF11883B70119639A070203A581112C
S31500005300B76700009387C7D9130801001307400049
S31500005310930620001306300C93051000EF00D026EC
S315000053209317050293D7070223B8F11803A7011AAA
S3150000533083B68119930710001B1727001307072050
S315000053401317C7003387E6002320070093051000D4
S3150000535013060002139727003387E6002320B700C1
S315000053609B871700E398C7FEB71700009B87078047
S3150000537073A047309307800073A007308330810500
S31500005380033401058334810413050000130101066B
S315000053906780000003A58111B7570000938707298E
S315000053A01308000013074000930610001306D00BE5
S315000053B093051000EF00501D83A7411AE39007F0F4
S315000053C09307100023A2F11A6FF05FEF130101FF9C
S315000053D02330810083B7811A23341100130500009E
S315000053E0639C070203A58111B7670000130800003C
S315000053F09387C7D913074000930640001306C000E1
S3150000540093051000EF0050181315050213550502F9
S3150000541023B4A11A1335150083308100033401002B
S315000054201301010167800000130101FD2330810291
S3150000543083B7811B2334110213050000638A07001A
S3150000544083308102033401021301010367800000E7
S3150000545003A58111B76700009387C7D91308810098
S315000054601307400093064000130610019305100031
S31500005470EF0090119317050293D7070223BCF11A88
S3150000548013051000E38E07FA03479100833081026B
S315000054900334010223A8E11A1305000013010103D6
S315000054A067800000832785001307E0019B86F7FFCE
S315000054B06360D70403370501630C070213870147AE
S315000054C09397370023300500B387E700F37604305F
S315000054D093F686001387070083B70700E39C07FE51
S315000054E02330A70073A00630130500006780000074
S315000054F01305200067800000832785001387014776
S3150000550093973700B387E700F376043093F6860067
