S00B000072616D2E73726563D9
S3150000000097210000938101E6970200009382820EF9
S3150000001073905230732440F163100402970200007B
S315000000209382420E73905230EF0080449702000094
S3150000003093824223E78002001313240097020000F4
S3150000004093828204B302530003A302000F00F00F51
S31500000050E31C03FE171E0000130ECE7E931344000E
S31500000060B30E7E00138F8E0083BF0E0003310F0088
S31500000070970200009382020973905230732540F173
S31500000080E7800F007300100073001000730010006B
S31500000090730010007300100073001000730010004E
S315000000A0730010007300100073001000730010003E
S315000000B0730010007300100073001000730010002E
S315000000C0730010001300000013000000130000006E
S315000000D01313250097030000938303FBB3027300F9
S315000000E00F00500F2FA002081305000067800000C4
S315000000F0730010001300000013000000130000003E
S3150000010073202034130101EF23301100233831000E
S31500000110233C41002330510223346102233871020B
S31500000120233C8102233091042334A1042338B104F3
S31500000130233CC1042330D1062334E1062338F106DB
S31500000140233C0107233011092334210923383109BF
S31500000150233C41092330510B2334610B2338710BA7
S31500000160233C810B2330910D2334A10D2338B10D8F
S31500000170233CC10D2330D10F2334E10F2338F10F77
S3150000018073250030F325103473262034233CA10E4A
S315000001902330B1102334C11063560600EF00803CB3
S315000001A06F00C00093060100EF00403B8330010062
S315000001B0833101010332810183320102033381025B
S315000001C0833301030334810383340104033581043B
S315000001D0833501050336810583360106033781061B
S315000001E083370107033881078338010803398108FB
S315000001F083390109033A8109833A010A033B810ADB
S31500000200833B010B033C810B833C010C033D810CBA
S31500000210833D010D033E810D833E010E033F810F99
S31500000220833F011073100F3073901F34033F810E0C
S31500000230833F010F1301011173002030130101FFE9
S3150000024023341100EF004018EF00001A83308100BC
S315000002501305000013010101678000000000000083
S31500000260EF0000211304010093020000639E0200C8
S31500000270171500001305054E138681CFB306A64059
S3150000028093D53600EF00C01F9382019A23B08200F7
S31500000290EF000021EF00C01DEF00404CEF000052C0
S315000002A0EF00803817150000130505FAEF001075EA
S315000002B0EF00107FEF00C01B971200009382024AE6
S315000002C003A50200971200009382424683B50200FE
S315000002D013060000EFF09FF6EF0090737300100016
S315000002E0000000000000000037150000371700006E
S315000002F09307057113070771630AF7009307000058
S315000003006386070013050571678007006780000094
S31500000310371500009307057137170000930507711D
S31500000320B385F54093D7354093D5F503B385F500EE
S3150000033093D51540638A050093070000638607007E
S31500000340130505716780070067800000130101FF30
S315000003502330810083C7819A2334110063940702F6
S31500000360EFF09FF893070000638A07003715000037
S315000003701305057497000000E700000093071000BE
S315000003802384F19A833081000334010013010101B3
S315000003906780000093070000638607023715000098
S315000003A0130101FF9385019B130505742334110086
S315000003B097000000E700000083308100130101016F
S315000003C06FF01FF56FF0DFF4F32740F1639A070033
S315000003D09717000083B707351307100023A8E70017
S315000003E013050000678000009717000083B7873366
S315000003F01307100023AAE70013050000678000001A
S315000004009717000083B7073223A0A7001305000043
S31500000410678000009717000083B7C73023A4A700A2
S3150000042013050000678000009717000083B7872F29
S3150000043023A2A7001305000067800000971700009D
S3150000044083B7472E23ACA7006780000097170000EC
S3150000045083B7472D1307100023AEE700678000001F
S3150000046003A5019167800000000000000000000065
S31500000470678000000000000000000000000000008F
S315000004809387F5FF638C05001307F0FF2330050003
S315000004909387F7FF13058500E39AE7FE6780000060
S315000004A0B71700003717000013860766930507661F
S315000004B06304B60AB71600009386066663FED5087F
S315000004C03365B6009386F6FF137575001307076646
S315000004D0B386B6406310050613B5C602134515006C
S315000004E01375F50F6308050493D626009386160048
S315000004F013D81600131838009387076633080601C9
S3150000050003B507009387870013078700233CA7FEE0
S31500000510E39807FF13F5E6FF13172500B307E60078
S31500000520B385E500638AA60283A7070023A0F5002A
S315000005306780000093F6C6FF93864600B306D60092
S315000005409387076603A707009387470093854500AF
S3150000055023AEE5FEE398F6FE678000007300100008
S31500000560678000009317160093D717001307B00093
S315000005706386E7007300100067800000130101FD29
S315000005802334310183B98190B70720002338210134
S31500000590B389F90003A9490023304101233411022C
S315000005A023308102233C91001B090900138A01AE06
S315000005B0630209049317090293D7D701B307FA0018
S315000005C003B407009B040900630E0400833704018B
S315000005D00335840193850400E78007000334040093
S315000005E0E31604FE23A2290103A949001B090900F9
S315000005F0E31209FC83308102033401028334810152
S315000006000339010183398100033A01001301010313
S315000006106780000083A70191130500009B871700E0
S3150000062023A8F19067800000130101FA23388104A2
S3150000063083A70191233C1104233491046384070E9C
S3150000064083B78190639C0702B717000003A5077361
S31500000650B7170000938787091308010013074000A6
S31500000660930620001306200C93051000EF0090213E
S315000006709317050293D7070223B4F190B71400002D
S3150000068083B70476639C0702B717000003A50773B8
S31500000690B717000093878709130801001307400066
S315000006A0930620001306300C93051000EF00901DF2
S315000006B09317050293D7070223B0F47603A7419157
S315000006C083B68190930710001B1727001307072096
S315000006D01317C7003387E600232007009305100091
S315000006E013060002139727003387E6002320B7007E
S315000006F09B871700E398C7FEB71700009B87078004
S3150000070073A047309307800073A0073083308105BC
S315000007100334010583348104130500001301010627
S3150000072067800000B717000003A5077393074061B1
S315000007301308000013074000930610001306D00BA1
S3150000074093051000EF00101483A70191E39A07EEBA
S315000007509307100023A8F1906FF09FEE130101FF9D
S315000007602330810083B781912334110013050000E3
S31500000770639E0702B717000003A50773B7170000AB
S31500000780130800009387870913074000930640006B
S315000007901306C00093051000EF00D00E13150502D6
S315000007A01355050223BCA190133515008330810033
S315000007B0033401001301010167800000130101FDEC
S315000007C02330810283B7819223341102130500007E
S315000007D0638A070083308102033401021301010397
S315000007E067800000B717000003A50773B71700005E
S315000007F0938787091308810013074000930640007A
S315000008001306100193051000EF00D0079317050299
S3150000081093D7070223B4F19213051000E38C07FA6D
S3150000082003479100833081020334010223A0E19241
S315000008301305000013010103678000006382052091
S315000008406302062E03A70500233CB6029B575700FA
S3150000085093F607061377F70193F7F70133E7E600F8
S315000008602300F600A300E60083A70501639607129E
S315000008701307000093060000130800002306060174
S3150000088083A745012322D6002324E60063860718A2
S315000008901B970701B706F0FF33F7E7003377D7005A
S315000008A013F8F700930830001B07070093060800AB
S315000008B0630A18219BD747009B97470193C7F7FF09
S315000008C09B8707001308F0FF6388071713170702B3
S315000008D09397070213570702B367F7002338F6000A
S315000008E083A78501230CD6009308F0FF638E0710BB
S315000008F09B9607013707F0FFB3F6D700B3F6E6007D
S315000009001303300013F7F7009B8606001308070051
S31500000910630267181BD747001B1747011347F7FFEA
S315000009201B0707006306171183A7C501232ED600F0
S315000009302320E602230206036382070A1B970701A8
S31500000940B706F0FF33F7E7003377D70093F5F700E4
S31500000950130830001B070700938605006386050F02
S315000009609BD747009B97470193C7F7FF9B870700D5
S315000009709305F0FF638AB70A131707021357070296
S3150000098093970702B367F7002334F6022308D602CB
S3150000099013050000678000009B9607013707F0FFEC
S315000009A0B3F6D700B3F6E6009308300013F7F70066
S315000009B09B86060013080700630E17131BD7470014
S315000009C01B1747011347F7FF1B0707009307F0FFA5
S315000009D0E316F7EA130700006FF05FEA130700005B
S315000009E0930700001317070213570702939707028E
S315000009F093060000B367F7002334F6022308D602F5
S31500000A00130500006780000013070000930600002E
S31500000A10130800006FF05FF1930700001307000052
S31500000A20930600006FF09FEA930700006FF0DFF473
S31500000A30130700006FF05FEF930700006FF01FE9E8
S31500000A40130510006780000093C7F7FF9BD7470088
S31500000A50B7051000938505F09B9787001B57C700C5
S31500000A60B3F7B7003367E50093E7F70F1B070700F7
S31500000A709B8707001317070213570702939707026E
S31500000A80B367F7002334F6022308D60213050000E5
S31500000A906780000013C7F7FF1B574700B707100012
S31500000AA01B178700938707F09BD6C6003377F7009E
S31500000AB0B366D5001367F70F9B8606001B07070072
S31500000AC06FF09FE693C7F7FF9BD7470037081000E4
S31500000AD09B978700130808F01B57C700B3F7070159
S31500000AE03367E50093E7F70F1B0707009B870700AF
S31500000AF06FF0DFDD13C7F7FF1B574700B70710007E
S31500000B001B178700938707F09BD6C6003377F7003D
S31500000B10B366D5001367F70F9B8606001B07070011
S31500000B206FF0DFD51305200067800000130101F286
S31500000B30233C310B2338410B2330610B233C7109D5
S31500000B40233491092330A1092330D102233C110C0F
S31500000B502338810C2334910C2330210D2334510B7F
S31500000B6023388109233CB10793F61600233411017B
S31500000B70930C0500138B0500930B0600130D07005D
S31500000B80138A0700930908006388061037F40F00DC
S31500000B90336485001314040213540402630E080E12
S31500000BA0638405366302063EB71400001389048089
S31500000BB0330924019384F4FF6F00C0001304040278
S31500000BC0630C240D832604009BD7C600B3F7970059
S31500000BD01BD786019B87070033E7E7001B07070043
S31500000BE09BD68601E30C07FCE39A66FDE398FBFCC3
S31500000BF0930504001306010313850C00EFF01FC4D0
S31500000C008337810013070D009306100013860B002F
S31500000C1093050B0013050103E78009001B0505007A
S31500000C20E30E05F86F004010B71A000093870A809C
S31500000C30330CF400938AFAFF03270400930504009B
S31500000C40130601039B54C700B3F454019B840400AC
S31500000C509B578701B3E7F4009B87070013850C00B9
S31500000C60130404021B59870163860702EFF01FBDB8
S31500000C708337810013070D009306100013860400C6
S31500000C809305090013050103E78009001B0505000C
S31500000C90631C0508E31284FB03370102B707100043
S31500000CA093840780B3E49C00137C270013774700E6
S31500000CB0939404022330E100B71D000037170000AB
S31500000CC093D40402938D0D801309F7FF9387F7FFE2
S31500000CD01B071D00B38DB401233CE1002334F10250
S31500000CE003A304001B58C300337709019B578301F4
S31500000CF01B5483019B0A0700630C0C00B3E7FA0040
S31500000D009B870700638C0700630E0B04630C8B0440
S31500000D1063764D0193071000630CF4089384040274
S31500000D20E3909DFC130500008330810D0334010D13
S31500000D308334810C0339010C8339810B033A010B8F
S31500000D40833A810A033B010A833B8109033C01097B
S31500000D50833C8108033D0108833D81071301010E91
S31500000D606780000063840B00E3945BFBE38209FA6F
S31500000D70130601039385040013850C002328010143
S31500000D80EFF0DFAB8337810013070D0093062000D9
S31500000D9013860A009305040013050103E780090082
S31500000DA01B05050003280101E30405F66FF0DFF7D4
S31500000DB0930700026380FA12B71700009387B7FF04
S31500000DC033F807011B0808009307B0046304F81002
S31500000DD083370100E38407F493076000E390FAF495
S31500000DE083A7040137F40F001B93070133F3670051
S31500000DF0B707F0FF3373F3001B030300336483006C
S31500000E001314040213540402930A04086F00000129
S31500000E10630ABB0213048400E30254F103270400AF
S31500000E201B56C700337626011B0606009B57870113
S31500000E30B367F6009B8707009B558701E38C07FC89
S31500000E40E3180BFC63840B00E396CBFCE38409FCFC
S31500000E509B57570093F607061377F70133E7E6002B
S31500000E6093F7F7012308F102A308E1028326440061
S31500000E7083378100033781011B9546009BD0C6004E
S31500000E801BD84600B7061000B3F0A000138506F085
S31500000E90833681021B188800B3F0A0003378A800BF
S31500000EA0B3E060003348D800130501039306400001
S31500000EB02338610023308104232A1102232C0103E5
S31500000EC0E78009001B05050003330101E30405F46F
S31500000ED06FF09FE503A58400E30C05EE83388100DF
S31500000EE003378101833601021388090093070A003C
S31500000EF013860B0093050B00EFF05FC31B0505007F
S31500000F00E30805EC6FF05FE2E30006D23719000054
S31500000F10930A0980B30A54011309F9FF6F00C00050
S31500000F2013040402E38A8AD6832504009BD7C500EE
S31500000F30B3F727019B8707001BD7850133E7E70037
S31500000F401B0707009BD48501E30C07FCE39AFBFC17
S31500000F50930504001306010313850C00EFF01F8EA2
S31500000F608337810013070D009306100013860B00CC
S31500000F709385040013050103E78009001B0505009E
S31500000F80E30005FA6FF05FDA37190000930A09806B
S31500000F90B30A54011309F9FF6F00C00013040402D9
S31500000FA0E30C54CF032704009B54C700B3F4240179
S31500000FB09B5787019B840400B3E7F4009B870700D7
S31500000FC01B578701E38C07FCE31AEBFC930504002F
S31500000FD01306010313850C00EFF05F86833781004B
S31500000FE013070D00930610001386040093050B00EB
S31500000FF013050103E78009001B050500E30005FA58
S315000010006FF09FD263880506630A060603A80500EB
S3150000101037071000130307F09B56580093F806068F
S315000010201378F80193F6F60133E808012300D60099
S31500001030A300060183A745009306F7FF2338B600F1
S315000010401BD7C7009B9547009BD747003377B70050
S315000010509B97870033776700B3F767003365A70070
S31500001060B3C7D7002322A6002324F60013050000E9
S31500001070678000001305100067800000130520003C
S31500001080678000009308080013880700930707008D
S31500001090130700006FF09FA9638C07001307400039
S315000010A0638CE6009B86F6FF130710006376D70273
S315000010B003254500678000000337050023B0E700DD
S315000010C00337850023B4E7000337050103254500F0
S315000010D023B8E70067800000033E05000333850060
S315000010E083380501033885018335050203368502F9
S315000010F083360503033785030325450023B0C7015F
S3150000110023B4670023B8170123BC070123B0B70235
S3150000111023B4C70223B8D70223BCE70267800000C6
S3150000112083B6819063820606F375043003A7419166
S315000011301B56F5411B56B6013B06A6001B1727009A
S315000011401B565640131757003307C70013172700BF
S31500001150B386E60037270000B386E60003A706003D
S3150000116093071000BB97A70093C7F7FFB3F7E700F5
S315000011709B87070023A0F60093F7850073A007302E
S31500001180130500006780000013051000678000004B
S3150000119003B78190630007067376043083A74191F5
S315000011A09B56F5419BD6B601BB86A6009B972700AA
S315000011B09BD6564093975700B387D700939727003F
S315000011C03307F700B72700003307F7008327070028
S315000011D0930610003B95A60033E5A7001B05050006
S315000011E02320A7009377860073A00730130500001D
S315000011F06780000013051000678000009305050056
S315000012009306000013060000130500006F0000138C
S31500001210130101FF930500002330810023341100E0
S3150000122013040500EF00801DB717000003B5077112
S315000012308337850463840700E780070013050400ED
S31500001240EF000040130101FE23388100B7170000AC
S31500001250371400001304046593878765B3878740B6
S3150000126023349100233C110093D437406380040259
S31500001270938787FF33848700833704009384F4FFC2
S31500001280130484FFE7800700E39804FE833081019E
S3150000129003340101833481001301010267800000D9
S315000012A0130101FE23388100233021013714000089
S315000012B03719000093074464130949643309F94058
S315000012C0233C11002334910013593940630009026D
S315000012D013044464930400008337040093841400C9
S315000012E013048400E7800700E31899FE3714000012
S315000012F03719000093078464130909653309F94017
S3150000130013593940630009021304846493040000EE
S31500001310833704009384140013048400E7800700D5
S31500001320E31899FE8330810103340101833481007F
S3150000133003390100130101026780000083B701939E
S315000013406384070603A787001308F0016344E80ACD
S31500001350630C050203B80711630E080893183700DB
S31500001360B308180123B0C800032308201306100091
S315000013703B16E6003363C3002320682023B0D81051
S31500001380930620006302D504930627009396360041
S315000013901B07170023A4E700B387D70023B0B700C5
S315000013A01305000067800000938801BE23B81193DF
S315000013B013070000938701BEE30607F80337000012
S315000013C023B8E7106FF01FF88326482013050000A6
S315000013D033E6C600930627002322C8201B07170002
S315000013E09396360023A4E700B387D70023B0B7004F
S315000013F0678000001305F0FF67800000130101FA03
S31500001400233451032330210503B90193233C1104EE
S315000014102338810423349104233C310323384103C8
S3150000142023306103233C7101233881012334910168
S315000014302330A101630A090A930B0500138A0500EC
S31500001440130B1000130DF0FF83248900033C0911D0
S315000014501B84F4FF634A040863040A0E63060C083F
S3150000146093943400B3099C00B30499006F004001C3
S315000014701B04F4FF938989FF938484FF6306A40702
S3150000148083B7890FE316FAFE832C890003B784001D
S315000014909B87FCFF638A870823B40400E30A07FCE2
S315000014A083270C20BB168B00B3F7D7009B8707005A
S315000014B06388070683274C2083B589FFB3F7D700D7
S315000014C09B8707006388070613850500E70007006A
S315000014D00327890083B7019363149701E30AF9F898
S315000014E013890700E39207F683308105033401056B
S315000014F0833481040339010483398103033A0103E8
S31500001500833A8102033B0102833B8101033C0101D3
S31500001510833C8100033D0100130101066780000042
S31500001520E70007006FF0DFFA23248900930C04001C
S315000015306FF0DFF613850B00E70007006FF05FF929
S3150000154063020C0A939C3400B30999011B87F4FFCC
S3150000155083B78900B30C9C016306870623B4090090
S315000015606382070403270C20BB168B003377D70052
S315000015701B070700630E070403274C2083B58CFF67
S315000015803377D7001B0707006318070413850B0082
S31500001590E78007000327890083B70193E31297F4D6
S315000015A0E310F9F41B04F4FF938989FF938C8CFFF5
S315000015B0E30CA4F38324890083B789001B87F4FF17
S315000015C0E31E87F823248900930404006FF05FF973
S315000015D0E78007006FF01FFC13850500E780070012
S315000015E06FF05FFB93993400B30939016F00000374
S315000015F023B409001B04F4FF638C0700E78007008F
S315000016000327890083B70193E31C97ECE39A27ED40
S31500001610938989FFE30AA4ED832489001B87F4FFDD
S3150000162083B78900E31687FC23248900930404000A
S315000016306FF05FFC000000000000000000000000EA
S30900001640730010001D
S30900001644000000009C
S30D000016489403000000000000FD
S30D000016504C030000000000003D
S31500001658000000000000000000000000000000007C
S31500001668000000000000000000000000000000006C
S31500001678000000000000000000000000000000005C
S31500001688000000000000000000000000000000004C
S31500001698000000000000000000000000000000003C
S315000016A8000000000000000000000000000000002C
S315000016B8000000000000000000000000000000001C
S315000016C8000000000000000000000000000000000C
S315000016D800000000000000000000000000000000FC
S315000016E800000000000000000000000000000000EC
S315000016F800000000000000000000000000000000DC
S30D000017080000000000000000D3
S31500001710601600000000000000000000000000004D
S3150000172000000080000000005017000000000000CC
S315000017300000F0FF0000000060160000000000003E
S30900001740000000009F
S70500000000FA
